{
  "contractName": "TicketMarketplace",
  "abi": [
    {
      "anonymous": false,
      "inputs": [
        {
          "indexed": false,
          "internalType": "string",
          "name": "applicationName",
          "type": "string"
        },
        {
          "indexed": false,
          "internalType": "string",
          "name": "workflowName",
          "type": "string"
        },
        {
          "indexed": false,
          "internalType": "address",
          "name": "originatingAddress",
          "type": "address"
        }
      ],
      "name": "ContractCreated",
      "type": "event"
    },
    {
      "anonymous": false,
      "inputs": [
        {
          "indexed": false,
          "internalType": "string",
          "name": "applicationName",
          "type": "string"
        },
        {
          "indexed": false,
          "internalType": "string",
          "name": "workflowName",
          "type": "string"
        },
        {
          "indexed": false,
          "internalType": "string",
          "name": "action",
          "type": "string"
        },
        {
          "indexed": false,
          "internalType": "address",
          "name": "originatingAddress",
          "type": "address"
        }
      ],
      "name": "ContractUpdated",
      "type": "event"
    },
    {
      "inputs": [
        {
          "internalType": "uint256",
          "name": "",
          "type": "uint256"
        }
      ],
      "name": "tickets",
      "outputs": [
        {
          "internalType": "uint256",
          "name": "id",
          "type": "uint256"
        },
        {
          "internalType": "address",
          "name": "customer",
          "type": "address"
        },
        {
          "internalType": "string",
          "name": "worker",
          "type": "string"
        },
        {
          "internalType": "string",
          "name": "title",
          "type": "string"
        },
        {
          "internalType": "string",
          "name": "description",
          "type": "string"
        },
        {
          "internalType": "string",
          "name": "tag",
          "type": "string"
        },
        {
          "internalType": "string",
          "name": "date",
          "type": "string"
        },
        {
          "internalType": "int256",
          "name": "rate",
          "type": "int256"
        },
        {
          "internalType": "enum TicketMarketplace.TicketStatus",
          "name": "status",
          "type": "uint8"
        }
      ],
      "stateMutability": "view",
      "type": "function",
      "constant": true
    },
    {
      "inputs": [
        {
          "internalType": "string",
          "name": "title",
          "type": "string"
        },
        {
          "internalType": "string",
          "name": "tags",
          "type": "string"
        },
        {
          "internalType": "string",
          "name": "date",
          "type": "string"
        },
        {
          "internalType": "string",
          "name": "_description",
          "type": "string"
        },
        {
          "internalType": "string",
          "name": "target",
          "type": "string"
        }
      ],
      "name": "createTicket",
      "outputs": [
        {
          "internalType": "uint256",
          "name": "",
          "type": "uint256"
        }
      ],
      "stateMutability": "nonpayable",
      "type": "function"
    },
    {
      "inputs": [
        {
          "internalType": "uint256",
          "name": "ticketIndex",
          "type": "uint256"
        }
      ],
      "name": "cancelTicket",
      "outputs": [],
      "stateMutability": "nonpayable",
      "type": "function"
    },
    {
      "inputs": [
        {
          "internalType": "uint256",
          "name": "ticketIndex",
          "type": "uint256"
        }
      ],
      "name": "startTicket",
      "outputs": [],
      "stateMutability": "nonpayable",
      "type": "function"
    },
    {
      "inputs": [
        {
          "internalType": "uint256",
          "name": "ticketIndex",
          "type": "uint256"
        }
      ],
      "name": "expertFinishTicket",
      "outputs": [],
      "stateMutability": "nonpayable",
      "type": "function"
    },
    {
      "inputs": [
        {
          "internalType": "uint256",
          "name": "ticketIndex",
          "type": "uint256"
        }
      ],
      "name": "customerDoneTicket",
      "outputs": [],
      "stateMutability": "nonpayable",
      "type": "function"
    },
    {
      "inputs": [
        {
          "internalType": "string",
          "name": "addressString",
          "type": "string"
        }
      ],
      "name": "getTicketsByAddress",
      "outputs": [
        {
          "components": [
            {
              "internalType": "uint256",
              "name": "id",
              "type": "uint256"
            },
            {
              "internalType": "address",
              "name": "customer",
              "type": "address"
            },
            {
              "internalType": "string",
              "name": "worker",
              "type": "string"
            },
            {
              "internalType": "string",
              "name": "title",
              "type": "string"
            },
            {
              "internalType": "string",
              "name": "description",
              "type": "string"
            },
            {
              "internalType": "string",
              "name": "tag",
              "type": "string"
            },
            {
              "internalType": "string",
              "name": "date",
              "type": "string"
            },
            {
              "internalType": "int256",
              "name": "rate",
              "type": "int256"
            },
            {
              "internalType": "enum TicketMarketplace.TicketStatus",
              "name": "status",
              "type": "uint8"
            }
          ],
          "internalType": "struct TicketMarketplace.Ticket[]",
          "name": "",
          "type": "tuple[]"
        }
      ],
      "stateMutability": "view",
      "type": "function",
      "constant": true
    }
  ],
  "bytecode": "0x60806040526040518060400160405280601181526020017f5469636b65744d61726b6574706c616365000000000000000000000000000000815250600090816200004a919062000320565b506040518060400160405280601181526020017f5469636b65744d61726b6574706c6163650000000000000000000000000000008152506001908162000091919062000320565b503480156200009f57600080fd5b5062000407565b600081519050919050565b7f4e487b7100000000000000000000000000000000000000000000000000000000600052604160045260246000fd5b7f4e487b7100000000000000000000000000000000000000000000000000000000600052602260045260246000fd5b600060028204905060018216806200012857607f821691505b6020821081036200013e576200013d620000e0565b5b50919050565b60008190508160005260206000209050919050565b60006020601f8301049050919050565b600082821b905092915050565b600060088302620001a87fffffffffffffffffffffffffffffffffffffffffffffffffffffffffffffffff8262000169565b620001b4868362000169565b95508019841693508086168417925050509392505050565b6000819050919050565b6000819050919050565b600062000201620001fb620001f584620001cc565b620001d6565b620001cc565b9050919050565b6000819050919050565b6200021d83620001e0565b620002356200022c8262000208565b84845462000176565b825550505050565b600090565b6200024c6200023d565b6200025981848462000212565b505050565b5b8181101562000281576200027560008262000242565b6001810190506200025f565b5050565b601f821115620002d0576200029a8162000144565b620002a58462000159565b81016020851015620002b5578190505b620002cd620002c48562000159565b8301826200025e565b50505b505050565b600082821c905092915050565b6000620002f560001984600802620002d5565b1980831691505092915050565b6000620003108383620002e2565b9150826002028217905092915050565b6200032b82620000a6565b67ffffffffffffffff811115620003475762000346620000b1565b5b6200035382546200010f565b6200036082828562000285565b600060209050601f83116001811462000398576000841562000383578287015190505b6200038f858262000302565b865550620003ff565b601f198416620003a88662000144565b60005b82811015620003d257848901518255600182019150602085019450602081019050620003ab565b86831015620003f25784890151620003ee601f891682620002e2565b8355505b6001600288020188555050505b505050505050565b6122fe80620004176000396000f3fe608060405234801561001057600080fd5b506004361061007d5760003560e01c80635a3886111161005b5780635a3886111461010657806394baafc014610122578063a1af53c614610152578063ee355b1f1461016e5761007d565b80630d8b3e9b146100825780634a404c13146100b257806350b44712146100ce575b600080fd5b61009c60048036038101906100979190611268565b61018a565b6040516100a99190611388565b60405180910390f35b6100cc60048036038101906100c791906113cf565b61035e565b005b6100e860048036038101906100e391906113cf565b61046a565b6040516100fd9998979695949392919061154c565b60405180910390f35b610120600480360381019061011b91906113cf565b61079d565b005b61013c6004803603810190610137919061165c565b6108a9565b60405161014991906118d2565b60405180910390f35b61016c600480360381019061016791906113cf565b610df0565b005b610188600480360381019061018391906113cf565b610f8e565b005b6000600260405180610120016040528060028054905081526020013373ffffffffffffffffffffffffffffffffffffffff1681526020018481526020018881526020018581526020018781526020018681526020017fffffffffffffffffffffffffffffffffffffffffffffffffffffffffffffffff815260200160006004811115610219576102186114d5565b5b81525090806001815401808255809150506001900390600052602060002090600902016000909190919091506000820151816000015560208201518160010160006101000a81548173ffffffffffffffffffffffffffffffffffffffff021916908373ffffffffffffffffffffffffffffffffffffffff16021790555060408201518160020190816102ab9190611b00565b5060608201518160030190816102c19190611b00565b5060808201518160040190816102d79190611b00565b5060a08201518160050190816102ed9190611b00565b5060c08201518160060190816103039190611b00565b5060e082015181600701556101008201518160080160006101000a81548160ff0219169083600481111561033a576103396114d5565b5b0217905550505060016002805490506103539190611c01565b905095945050505050565b60006002828154811061037457610373611c35565b5b9060005260206000209060090201905060016004811115610398576103976114d5565b5b8160080160009054906101000a900460ff1660048111156103bc576103bb6114d5565b5b146103fc576040517f08c379a00000000000000000000000000000000000000000000000000000000081526004016103f390611cb0565b60405180910390fd5b60038160080160006101000a81548160ff02191690836004811115610424576104236114d5565b5b02179055507fbc3f77ce3a281e615c85054a5814e59703e2ee0cf33782f46911e0888d4c394c600060013360405161045e93929190611da0565b60405180910390a15050565b6002818154811061047a57600080fd5b90600052602060002090600902016000915090508060000154908060010160009054906101000a900473ffffffffffffffffffffffffffffffffffffffff16908060020180546104c990611923565b80601f01602080910402602001604051908101604052809291908181526020018280546104f590611923565b80156105425780601f1061051757610100808354040283529160200191610542565b820191906000526020600020905b81548152906001019060200180831161052557829003601f168201915b50505050509080600301805461055790611923565b80601f016020809104026020016040519081016040528092919081815260200182805461058390611923565b80156105d05780601f106105a5576101008083540402835291602001916105d0565b820191906000526020600020905b8154815290600101906020018083116105b357829003601f168201915b5050505050908060040180546105e590611923565b80601f016020809104026020016040519081016040528092919081815260200182805461061190611923565b801561065e5780601f106106335761010080835404028352916020019161065e565b820191906000526020600020905b81548152906001019060200180831161064157829003601f168201915b50505050509080600501805461067390611923565b80601f016020809104026020016040519081016040528092919081815260200182805461069f90611923565b80156106ec5780601f106106c1576101008083540402835291602001916106ec565b820191906000526020600020905b8154815290600101906020018083116106cf57829003601f168201915b50505050509080600601805461070190611923565b80601f016020809104026020016040519081016040528092919081815260200182805461072d90611923565b801561077a5780601f1061074f5761010080835404028352916020019161077a565b820191906000526020600020905b81548152906001019060200180831161075d57829003601f168201915b5050505050908060070154908060080160009054906101000a900460ff16905089565b6000600282815481106107b3576107b2611c35565b5b90600052602060002090600902019050600060048111156107d7576107d66114d5565b5b8160080160009054906101000a900460ff1660048111156107fb576107fa6114d5565b5b1461083b576040517f08c379a000000000000000000000000000000000000000000000000000000000815260040161083290611e6a565b60405180910390fd5b60018160080160006101000a81548160ff02191690836004811115610863576108626114d5565b5b02179055507fbc3f77ce3a281e615c85054a5814e59703e2ee0cf33782f46911e0888d4c394c600060013360405161089d93929190611ed6565b60405180910390a15050565b60606000805b6002805490508110156109355784846040516108cc929190611f5e565b6040518091039020600282815481106108e8576108e7611c35565b5b9060005260206000209060090201600201604051610906919061200f565b60405180910390200361092257818061091e90612026565b9250505b808061092d90612026565b9150506108af565b5060008167ffffffffffffffff8111156109525761095161113d565b5b60405190808252806020026020018201604052801561098b57816020015b61097861109a565b8152602001906001900390816109705790505b5090506000805b600280549050811015610de35786866040516109af929190611f5e565b6040518091039020600282815481106109cb576109ca611c35565b5b90600052602060002090600902016002016040516109e9919061200f565b604051809103902003610dd05760028181548110610a0a57610a09611c35565b5b906000526020600020906009020160405180610120016040529081600082015481526020016001820160009054906101000a900473ffffffffffffffffffffffffffffffffffffffff1673ffffffffffffffffffffffffffffffffffffffff1673ffffffffffffffffffffffffffffffffffffffff168152602001600282018054610a9490611923565b80601f0160208091040260200160405190810160405280929190818152602001828054610ac090611923565b8015610b0d5780601f10610ae257610100808354040283529160200191610b0d565b820191906000526020600020905b815481529060010190602001808311610af057829003601f168201915b50505050508152602001600382018054610b2690611923565b80601f0160208091040260200160405190810160405280929190818152602001828054610b5290611923565b8015610b9f5780601f10610b7457610100808354040283529160200191610b9f565b820191906000526020600020905b815481529060010190602001808311610b8257829003601f168201915b50505050508152602001600482018054610bb890611923565b80601f0160208091040260200160405190810160405280929190818152602001828054610be490611923565b8015610c315780601f10610c0657610100808354040283529160200191610c31565b820191906000526020600020905b815481529060010190602001808311610c1457829003601f168201915b50505050508152602001600582018054610c4a90611923565b80601f0160208091040260200160405190810160405280929190818152602001828054610c7690611923565b8015610cc35780601f10610c9857610100808354040283529160200191610cc3565b820191906000526020600020905b815481529060010190602001808311610ca657829003601f168201915b50505050508152602001600682018054610cdc90611923565b80601f0160208091040260200160405190810160405280929190818152602001828054610d0890611923565b8015610d555780601f10610d2a57610100808354040283529160200191610d55565b820191906000526020600020905b815481529060010190602001808311610d3857829003601f168201915b50505050508152602001600782015481526020016008820160009054906101000a900460ff166004811115610d8d57610d8c6114d5565b5b6004811115610d9f57610d9e6114d5565b5b81525050838381518110610db657610db5611c35565b5b60200260200101819052508180610dcc90612026565b9250505b8080610ddb90612026565b915050610992565b5081935050505092915050565b600060028281548110610e0657610e05611c35565b5b906000526020600020906009020190508060010160009054906101000a900473ffffffffffffffffffffffffffffffffffffffff1673ffffffffffffffffffffffffffffffffffffffff163373ffffffffffffffffffffffffffffffffffffffff1614610ea8576040517f08c379a0000000000000000000000000000000000000000000000000000000008152600401610e9f906120e0565b60405180910390fd5b60036004811115610ebc57610ebb6114d5565b5b8160080160009054906101000a900460ff166004811115610ee057610edf6114d5565b5b14610f20576040517f08c379a0000000000000000000000000000000000000000000000000000000008152600401610f1790612172565b60405180910390fd5b60048160080160006101000a81548160ff02191690836004811115610f4857610f476114d5565b5b02179055507fbc3f77ce3a281e615c85054a5814e59703e2ee0cf33782f46911e0888d4c394c6000600133604051610f8293929190611da0565b60405180910390a15050565b600060028281548110610fa457610fa3611c35565b5b9060005260206000209060090201905060006004811115610fc857610fc76114d5565b5b8160080160009054906101000a900460ff166004811115610fec57610feb6114d5565b5b1461102c576040517f08c379a000000000000000000000000000000000000000000000000000000000815260040161102390612204565b60405180910390fd5b60028160080160006101000a81548160ff02191690836004811115611054576110536114d5565b5b02179055507fbc3f77ce3a281e615c85054a5814e59703e2ee0cf33782f46911e0888d4c394c600060013360405161108e93929190612270565b60405180910390a15050565b60405180610120016040528060008152602001600073ffffffffffffffffffffffffffffffffffffffff16815260200160608152602001606081526020016060815260200160608152602001606081526020016000815260200160006004811115611108576111076114d5565b5b81525090565b6000604051905090565b600080fd5b600080fd5b600080fd5b600080fd5b6000601f19601f8301169050919050565b7f4e487b7100000000000000000000000000000000000000000000000000000000600052604160045260246000fd5b6111758261112c565b810181811067ffffffffffffffff821117156111945761119361113d565b5b80604052505050565b60006111a761110e565b90506111b3828261116c565b919050565b600067ffffffffffffffff8211156111d3576111d261113d565b5b6111dc8261112c565b9050602081019050919050565b82818337600083830152505050565b600061120b611206846111b8565b61119d565b90508281526020810184848401111561122757611226611127565b5b6112328482856111e9565b509392505050565b600082601f83011261124f5761124e611122565b5b813561125f8482602086016111f8565b91505092915050565b600080600080600060a0868803121561128457611283611118565b5b600086013567ffffffffffffffff8111156112a2576112a161111d565b5b6112ae8882890161123a565b955050602086013567ffffffffffffffff8111156112cf576112ce61111d565b5b6112db8882890161123a565b945050604086013567ffffffffffffffff8111156112fc576112fb61111d565b5b6113088882890161123a565b935050606086013567ffffffffffffffff8111156113295761132861111d565b5b6113358882890161123a565b925050608086013567ffffffffffffffff8111156113565761135561111d565b5b6113628882890161123a565b9150509295509295909350565b6000819050919050565b6113828161136f565b82525050565b600060208201905061139d6000830184611379565b92915050565b6113ac8161136f565b81146113b757600080fd5b50565b6000813590506113c9816113a3565b92915050565b6000602082840312156113e5576113e4611118565b5b60006113f3848285016113ba565b91505092915050565b600073ffffffffffffffffffffffffffffffffffffffff82169050919050565b6000611427826113fc565b9050919050565b6114378161141c565b82525050565b600081519050919050565b600082825260208201905092915050565b60005b8381101561147757808201518184015260208101905061145c565b60008484015250505050565b600061148e8261143d565b6114988185611448565b93506114a8818560208601611459565b6114b18161112c565b840191505092915050565b6000819050919050565b6114cf816114bc565b82525050565b7f4e487b7100000000000000000000000000000000000000000000000000000000600052602160045260246000fd5b60058110611515576115146114d5565b5b50565b600081905061152682611504565b919050565b600061153682611518565b9050919050565b6115468161152b565b82525050565b600061012082019050611562600083018c611379565b61156f602083018b61142e565b8181036040830152611581818a611483565b905081810360608301526115958189611483565b905081810360808301526115a98188611483565b905081810360a08301526115bd8187611483565b905081810360c08301526115d18186611483565b90506115e060e08301856114c6565b6115ee61010083018461153d565b9a9950505050505050505050565b600080fd5b600080fd5b60008083601f84011261161c5761161b611122565b5b8235905067ffffffffffffffff811115611639576116386115fc565b5b60208301915083600182028301111561165557611654611601565b5b9250929050565b6000806020838503121561167357611672611118565b5b600083013567ffffffffffffffff8111156116915761169061111d565b5b61169d85828601611606565b92509250509250929050565b600081519050919050565b600082825260208201905092915050565b6000819050602082019050919050565b6116de8161136f565b82525050565b6116ed8161141c565b82525050565b600082825260208201905092915050565b600061170f8261143d565b61171981856116f3565b9350611729818560208601611459565b6117328161112c565b840191505092915050565b611746816114bc565b82525050565b6117558161152b565b82525050565b60006101208301600083015161177460008601826116d5565b50602083015161178760208601826116e4565b506040830151848203604086015261179f8282611704565b915050606083015184820360608601526117b98282611704565b915050608083015184820360808601526117d38282611704565b91505060a083015184820360a08601526117ed8282611704565b91505060c083015184820360c08601526118078282611704565b91505060e083015161181c60e086018261173d565b5061010083015161183161010086018261174c565b508091505092915050565b6000611848838361175b565b905092915050565b6000602082019050919050565b6000611868826116a9565b61187281856116b4565b935083602082028501611884856116c5565b8060005b858110156118c057848403895281516118a1858261183c565b94506118ac83611850565b925060208a01995050600181019050611888565b50829750879550505050505092915050565b600060208201905081810360008301526118ec818461185d565b905092915050565b7f4e487b7100000000000000000000000000000000000000000000000000000000600052602260045260246000fd5b6000600282049050600182168061193b57607f821691505b60208210810361194e5761194d6118f4565b5b50919050565b60008190508160005260206000209050919050565b60006020601f8301049050919050565b600082821b905092915050565b6000600883026119b67fffffffffffffffffffffffffffffffffffffffffffffffffffffffffffffffff82611979565b6119c08683611979565b95508019841693508086168417925050509392505050565b6000819050919050565b60006119fd6119f86119f38461136f565b6119d8565b61136f565b9050919050565b6000819050919050565b611a17836119e2565b611a2b611a2382611a04565b848454611986565b825550505050565b600090565b611a40611a33565b611a4b818484611a0e565b505050565b5b81811015611a6f57611a64600082611a38565b600181019050611a51565b5050565b601f821115611ab457611a8581611954565b611a8e84611969565b81016020851015611a9d578190505b611ab1611aa985611969565b830182611a50565b50505b505050565b600082821c905092915050565b6000611ad760001984600802611ab9565b1980831691505092915050565b6000611af08383611ac6565b9150826002028217905092915050565b611b098261143d565b67ffffffffffffffff811115611b2257611b2161113d565b5b611b2c8254611923565b611b37828285611a73565b600060209050601f831160018114611b6a5760008415611b58578287015190505b611b628582611ae4565b865550611bca565b601f198416611b7886611954565b60005b82811015611ba057848901518255600182019150602085019450602081019050611b7b565b86831015611bbd5784890151611bb9601f891682611ac6565b8355505b6001600288020188555050505b505050505050565b7f4e487b7100000000000000000000000000000000000000000000000000000000600052601160045260246000fd5b6000611c0c8261136f565b9150611c178361136f565b9250828203905081811115611c2f57611c2e611bd2565b5b92915050565b7f4e487b7100000000000000000000000000000000000000000000000000000000600052603260045260246000fd5b7f5469636b6574206d75737420626520696e20446f696e67207374617475730000600082015250565b6000611c9a601e83611448565b9150611ca582611c64565b602082019050919050565b60006020820190508181036000830152611cc981611c8d565b9050919050565b60008154611cdd81611923565b611ce78186611448565b94506001821660008114611d025760018114611d1857611d4b565b60ff198316865281151560200286019350611d4b565b611d2185611954565b60005b83811015611d4357815481890152600182019150602081019050611d24565b808801955050505b50505092915050565b7f5469636b657446696e6973686564000000000000000000000000000000000000600082015250565b6000611d8a600e83611448565b9150611d9582611d54565b602082019050919050565b60006080820190508181036000830152611dba8186611cd0565b90508181036020830152611dce8185611cd0565b90508181036040830152611de181611d7d565b9050611df0606083018461142e565b949350505050565b7f5469636b6574206d75737420626520696e2050726f706f73616c20737461747560008201527f7300000000000000000000000000000000000000000000000000000000000000602082015250565b6000611e54602183611448565b9150611e5f82611df8565b604082019050919050565b60006020820190508181036000830152611e8381611e47565b9050919050565b7f5469636b65745374617274656400000000000000000000000000000000000000600082015250565b6000611ec0600d83611448565b9150611ecb82611e8a565b602082019050919050565b60006080820190508181036000830152611ef08186611cd0565b90508181036020830152611f048185611cd0565b90508181036040830152611f1781611eb3565b9050611f26606083018461142e565b949350505050565b600081905092915050565b6000611f458385611f2e565b9350611f528385846111e9565b82840190509392505050565b6000611f6b828486611f39565b91508190509392505050565b60008190508160005260206000209050919050565b60008154611f9981611923565b611fa38186611f2e565b94506001821660008114611fbe5760018114611fd357612006565b60ff1983168652811515820286019350612006565b611fdc85611f77565b60005b83811015611ffe57815481890152600182019150602081019050611fdf565b838801955050505b50505092915050565b600061201b8284611f8c565b915081905092915050565b60006120318261136f565b91507fffffffffffffffffffffffffffffffffffffffffffffffffffffffffffffffff820361206357612062611bd2565b5b600182019050919050565b7f5469636b6574206d7573742062652066696e69736820627920637573746f6d6560008201527f7200000000000000000000000000000000000000000000000000000000000000602082015250565b60006120ca602183611448565b91506120d58261206e565b604082019050919050565b600060208201905081810360008301526120f9816120bd565b9050919050565b7f5469636b6574206d75737420626520696e20646f6e652062792074686520657860008201527f7065727400000000000000000000000000000000000000000000000000000000602082015250565b600061215c602483611448565b915061216782612100565b604082019050919050565b6000602082019050818103600083015261218b8161214f565b9050919050565b7f596f752063616e27742063616e63656c20746865207469636b6574206966207360008201527f7461727465640000000000000000000000000000000000000000000000000000602082015250565b60006121ee602683611448565b91506121f982612192565b604082019050919050565b6000602082019050818103600083015261221d816121e1565b9050919050565b7f5469636b65744163636570746564000000000000000000000000000000000000600082015250565b600061225a600e83611448565b915061226582612224565b602082019050919050565b6000608082019050818103600083015261228a8186611cd0565b9050818103602083015261229e8185611cd0565b905081810360408301526122b18161224d565b90506122c0606083018461142e565b94935050505056fea2646970667358221220096d4b9c3f311c597020ebd1051825ef675ee1879e1ed12b10cac6b32c57ce2864736f6c63430008130033",
  "immutableReferences": {},
  "source": "// SPDX-License-Identifier: MIT\r\npragma solidity 0.8.19;\r\n\r\ncontract TicketMarketplace {\r\n    enum TicketStatus {\r\n        Proposal,\r\n        Doing,\r\n        Cancel,\r\n        ExpertDone,\r\n        CustDone\r\n    }\r\n\r\n    struct Ticket {\r\n        uint256 id;\r\n        address customer;\r\n        string worker;\r\n        string title;\r\n        string description;\r\n        string tag;\r\n        string date;\r\n        int rate;\r\n        TicketStatus status;\r\n    }\r\n\r\n    string internal ApplicationName = \"TicketMarketplace\";\r\n    string internal WorkflowName = \"TicketMarketplace\";\r\n\r\n    event ContractCreated(\r\n        string applicationName,\r\n        string workflowName,\r\n        address originatingAddress\r\n    );\r\n    event ContractUpdated(\r\n        string applicationName,\r\n        string workflowName,\r\n        string action,\r\n        address originatingAddress\r\n    );\r\n\r\n    Ticket[] public tickets;\r\n\r\n    function createTicket(\r\n        string memory title,\r\n        string memory tags,\r\n        string memory date,\r\n        string memory _description,\r\n        string memory target\r\n    ) public returns (uint256) {\r\n        tickets.push(\r\n            Ticket({\r\n                id: tickets.length,\r\n                customer: msg.sender,\r\n                title: title,\r\n                worker: target,\r\n                date: date,\r\n                description: _description,\r\n                status: TicketStatus.Proposal,\r\n                rate: -1,\r\n                tag: tags\r\n            })\r\n        );\r\n        return tickets.length - 1;\r\n    }\r\n\r\n    function cancelTicket(\r\n        uint256 ticketIndex\r\n    ) public {\r\n        Ticket storage ticket = tickets[ticketIndex];\r\n        require(\r\n            ticket.status == TicketStatus.Proposal,\r\n            \"You can't cancel the ticket if started\"\r\n        );\r\n        ticket.status = TicketStatus.Cancel;\r\n        emit ContractUpdated(\r\n            ApplicationName,\r\n            WorkflowName,\r\n            \"TicketAccepted\",\r\n            msg.sender\r\n        );\r\n    }\r\n\r\n    function startTicket(\r\n        uint256 ticketIndex\r\n    ) public {\r\n        Ticket storage ticket = tickets[ticketIndex];\r\n        // require(\r\n        //     abi.encodePacked(msg.sender) == keccak256(bytes(ticket.worker)),\r\n        //     \"Sender can't start they own ticket\"\r\n        // );\r\n        require(\r\n            ticket.status == TicketStatus.Proposal,\r\n            \"Ticket must be in Proposal status\"\r\n        );\r\n        ticket.status = TicketStatus.Doing;\r\n        emit ContractUpdated(\r\n            ApplicationName,\r\n            WorkflowName,\r\n            \"TicketStarted\",\r\n            msg.sender\r\n        );\r\n    }\r\n\r\n    function expertFinishTicket(uint256 ticketIndex) public {\r\n        Ticket storage ticket = tickets[ticketIndex];\r\n        // require(\r\n        //     msg.sender == keccak256(ticket.worker),\r\n        //     \"Only the assigned worker can complete the ticket\"\r\n        // );\r\n        require(\r\n            ticket.status == TicketStatus.Doing,\r\n            \"Ticket must be in Doing status\"\r\n        );\r\n        ticket.status = TicketStatus.ExpertDone;\r\n        emit ContractUpdated(\r\n            ApplicationName,\r\n            WorkflowName,\r\n            \"TicketFinished\",\r\n            msg.sender\r\n        );\r\n    }\r\n\r\n\r\n    function customerDoneTicket(uint256 ticketIndex) public {\r\n        Ticket storage ticket = tickets[ticketIndex];\r\n        require(\r\n            msg.sender == ticket.customer,\r\n            \"Ticket must be finish by customer\"\r\n        );\r\n        require(\r\n            ticket.status == TicketStatus.ExpertDone,\r\n            \"Ticket must be in done by the expert\"\r\n        );\r\n        ticket.status = TicketStatus.CustDone;\r\n        emit ContractUpdated(\r\n            ApplicationName,\r\n            WorkflowName,\r\n            \"TicketFinished\",\r\n            msg.sender\r\n        );\r\n    }\r\n\r\n    function getTicketsByAddress(\r\n        string calldata addressString\r\n    ) public view returns (Ticket[] memory) {\r\n\r\n\r\n        uint256 count = 0;\r\n        for (uint256 i = 0; i < tickets.length; i++) {\r\n            if (keccak256(bytes(tickets[i].worker)) == keccak256(bytes(addressString))) {\r\n                count++;\r\n            }\r\n        }\r\n\r\n        Ticket[] memory filteredItems = new Ticket[](count);\r\n        uint256 index = 0;\r\n        for (uint256 i = 0; i < tickets.length; i++) {\r\n            if (keccak256(bytes(tickets[i].worker)) == keccak256(bytes(addressString))) {\r\n                filteredItems[index] = tickets[i];\r\n                index++;\r\n            }\r\n        }\r\n\r\n        return filteredItems;\r\n    }\r\n}\r\n",
  "sourcePath": "D:\\DuancuaThien\\blc-fe\\contracts\\TicketMarketplace.sol",
  "compiler": {
    "name": "solc",
    "version": "0.8.19+commit.7dd6d404.Emscripten.clang"
  },
  "schemaVersion": "3.4.14",
  "updatedAt": "2023-06-21T08:30:00.649Z",
  "networkType": "ethereum",
  "devdoc": {
    "kind": "dev",
    "methods": {},
    "version": 1
  },
  "userdoc": {
    "kind": "user",
    "methods": {},
    "version": 1
  }
}