{
  "contractName": "TicketMarketplace",
  "abi": [
    {
      "anonymous": false,
      "inputs": [
        {
          "indexed": false,
          "internalType": "string",
          "name": "applicationName",
          "type": "string"
        },
        {
          "indexed": false,
          "internalType": "string",
          "name": "workflowName",
          "type": "string"
        },
        {
          "indexed": false,
          "internalType": "address",
          "name": "originatingAddress",
          "type": "address"
        }
      ],
      "name": "ContractCreated",
      "type": "event"
    },
    {
      "anonymous": false,
      "inputs": [
        {
          "indexed": false,
          "internalType": "string",
          "name": "applicationName",
          "type": "string"
        },
        {
          "indexed": false,
          "internalType": "string",
          "name": "workflowName",
          "type": "string"
        },
        {
          "indexed": false,
          "internalType": "string",
          "name": "action",
          "type": "string"
        },
        {
          "indexed": false,
          "internalType": "address",
          "name": "originatingAddress",
          "type": "address"
        }
      ],
      "name": "ContractUpdated",
      "type": "event"
    },
    {
      "inputs": [
        {
          "internalType": "uint256",
          "name": "",
          "type": "uint256"
        }
      ],
      "name": "tickets",
      "outputs": [
        {
          "internalType": "uint256",
          "name": "id",
          "type": "uint256"
        },
        {
          "internalType": "address",
          "name": "customer",
          "type": "address"
        },
        {
          "internalType": "string",
          "name": "worker",
          "type": "string"
        },
        {
          "internalType": "string",
          "name": "title",
          "type": "string"
        },
        {
          "internalType": "string",
          "name": "description",
          "type": "string"
        },
        {
          "internalType": "string",
          "name": "tag",
          "type": "string"
        },
        {
          "internalType": "string",
          "name": "date",
          "type": "string"
        },
        {
          "internalType": "string",
          "name": "senderEmail",
          "type": "string"
        },
        {
          "internalType": "string",
          "name": "cancelReason",
          "type": "string"
        },
        {
          "internalType": "int256",
          "name": "rate",
          "type": "int256"
        },
        {
          "internalType": "enum TicketMarketplace.TicketStatus",
          "name": "status",
          "type": "uint8"
        }
      ],
      "stateMutability": "view",
      "type": "function",
      "constant": true
    },
    {
      "inputs": [
        {
          "internalType": "string",
          "name": "senderEmail",
          "type": "string"
        },
        {
          "internalType": "string",
          "name": "title",
          "type": "string"
        },
        {
          "internalType": "string",
          "name": "tags",
          "type": "string"
        },
        {
          "internalType": "string",
          "name": "date",
          "type": "string"
        },
        {
          "internalType": "string",
          "name": "_description",
          "type": "string"
        },
        {
          "internalType": "string",
          "name": "target",
          "type": "string"
        }
      ],
      "name": "createTicket",
      "outputs": [
        {
          "internalType": "uint256",
          "name": "",
          "type": "uint256"
        }
      ],
      "stateMutability": "nonpayable",
      "type": "function"
    },
    {
      "inputs": [
        {
          "internalType": "string",
          "name": "cancelReason",
          "type": "string"
        },
        {
          "internalType": "uint256",
          "name": "ticketIndex",
          "type": "uint256"
        }
      ],
      "name": "cancelTicket",
      "outputs": [],
      "stateMutability": "nonpayable",
      "type": "function"
    },
    {
      "inputs": [
        {
          "internalType": "uint256",
          "name": "ticketIndex",
          "type": "uint256"
        }
      ],
      "name": "startTicket",
      "outputs": [],
      "stateMutability": "nonpayable",
      "type": "function"
    },
    {
      "inputs": [
        {
          "internalType": "uint256",
          "name": "ticketIndex",
          "type": "uint256"
        }
      ],
      "name": "expertFinishTicket",
      "outputs": [],
      "stateMutability": "nonpayable",
      "type": "function"
    },
    {
      "inputs": [
        {
          "internalType": "uint256",
          "name": "ticketIndex",
          "type": "uint256"
        },
        {
          "internalType": "int256",
          "name": "rate",
          "type": "int256"
        }
      ],
      "name": "customerDoneTicket",
      "outputs": [],
      "stateMutability": "nonpayable",
      "type": "function"
    },
    {
      "inputs": [
        {
          "internalType": "string",
          "name": "addressString",
          "type": "string"
        }
      ],
      "name": "getTicketsByAddress",
      "outputs": [
        {
          "components": [
            {
              "internalType": "uint256",
              "name": "id",
              "type": "uint256"
            },
            {
              "internalType": "address",
              "name": "customer",
              "type": "address"
            },
            {
              "internalType": "string",
              "name": "worker",
              "type": "string"
            },
            {
              "internalType": "string",
              "name": "title",
              "type": "string"
            },
            {
              "internalType": "string",
              "name": "description",
              "type": "string"
            },
            {
              "internalType": "string",
              "name": "tag",
              "type": "string"
            },
            {
              "internalType": "string",
              "name": "date",
              "type": "string"
            },
            {
              "internalType": "string",
              "name": "senderEmail",
              "type": "string"
            },
            {
              "internalType": "string",
              "name": "cancelReason",
              "type": "string"
            },
            {
              "internalType": "int256",
              "name": "rate",
              "type": "int256"
            },
            {
              "internalType": "enum TicketMarketplace.TicketStatus",
              "name": "status",
              "type": "uint8"
            }
          ],
          "internalType": "struct TicketMarketplace.Ticket[]",
          "name": "",
          "type": "tuple[]"
        }
      ],
      "stateMutability": "view",
      "type": "function",
      "constant": true
    },
    {
      "inputs": [],
      "name": "getYourRequestTicket",
      "outputs": [
        {
          "components": [
            {
              "internalType": "uint256",
              "name": "id",
              "type": "uint256"
            },
            {
              "internalType": "address",
              "name": "customer",
              "type": "address"
            },
            {
              "internalType": "string",
              "name": "worker",
              "type": "string"
            },
            {
              "internalType": "string",
              "name": "title",
              "type": "string"
            },
            {
              "internalType": "string",
              "name": "description",
              "type": "string"
            },
            {
              "internalType": "string",
              "name": "tag",
              "type": "string"
            },
            {
              "internalType": "string",
              "name": "date",
              "type": "string"
            },
            {
              "internalType": "string",
              "name": "senderEmail",
              "type": "string"
            },
            {
              "internalType": "string",
              "name": "cancelReason",
              "type": "string"
            },
            {
              "internalType": "int256",
              "name": "rate",
              "type": "int256"
            },
            {
              "internalType": "enum TicketMarketplace.TicketStatus",
              "name": "status",
              "type": "uint8"
            }
          ],
          "internalType": "struct TicketMarketplace.Ticket[]",
          "name": "",
          "type": "tuple[]"
        }
      ],
      "stateMutability": "view",
      "type": "function",
      "constant": true
    }
  ],
  "bytecode": "0x60806040526040518060400160405280601181526020017f5469636b65744d61726b6574706c616365000000000000000000000000000000815250600090816200004a919062000320565b506040518060400160405280601181526020017f5469636b65744d61726b6574706c6163650000000000000000000000000000008152506001908162000091919062000320565b503480156200009f57600080fd5b5062000407565b600081519050919050565b7f4e487b7100000000000000000000000000000000000000000000000000000000600052604160045260246000fd5b7f4e487b7100000000000000000000000000000000000000000000000000000000600052602260045260246000fd5b600060028204905060018216806200012857607f821691505b6020821081036200013e576200013d620000e0565b5b50919050565b60008190508160005260206000209050919050565b60006020601f8301049050919050565b600082821b905092915050565b600060088302620001a87fffffffffffffffffffffffffffffffffffffffffffffffffffffffffffffffff8262000169565b620001b4868362000169565b95508019841693508086168417925050509392505050565b6000819050919050565b6000819050919050565b600062000201620001fb620001f584620001cc565b620001d6565b620001cc565b9050919050565b6000819050919050565b6200021d83620001e0565b620002356200022c8262000208565b84845462000176565b825550505050565b600090565b6200024c6200023d565b6200025981848462000212565b505050565b5b8181101562000281576200027560008262000242565b6001810190506200025f565b5050565b601f821115620002d0576200029a8162000144565b620002a58462000159565b81016020851015620002b5578190505b620002cd620002c48562000159565b8301826200025e565b50505b505050565b600082821c905092915050565b6000620002f560001984600802620002d5565b1980831691505092915050565b6000620003108383620002e2565b9150826002028217905092915050565b6200032b82620000a6565b67ffffffffffffffff811115620003475762000346620000b1565b5b6200035382546200010f565b6200036082828562000285565b600060209050601f83116001811462000398576000841562000383578287015190505b6200038f858262000302565b865550620003ff565b601f198416620003a88662000144565b60005b82811015620003d257848901518255600182019150602085019450602081019050620003ab565b86831015620003f25784890151620003ee601f891682620002e2565b8355505b6001600288020188555050505b505050505050565b612e2280620004176000396000f3fe608060405234801561001057600080fd5b50600436106100885760003560e01c8063ae4619241161005b578063ae4619241461012f578063b5bcb1331461014b578063c1a42f2314610167578063d4d04d7d1461018557610088565b80634a404c131461008d57806350b44712146100a95780635a388611146100e357806394baafc0146100ff575b600080fd5b6100a760048036038101906100a29190611b22565b6101b5565b005b6100c360048036038101906100be9190611b22565b6102c1565b6040516100da9b9a99989796959493929190611cbf565b60405180910390f35b6100fd60048036038101906100f89190611b22565b610710565b005b61011960048036038101906101149190611e00565b61081c565b60405161012691906120ae565b60405180910390f35b610149600480360381019061014491906120fc565b610e87565b005b6101656004803603810190610160919061226c565b61102f565b005b61016f61118e565b60405161017c91906120ae565b60405180910390f35b61019f600480360381019061019a91906122c8565b611838565b6040516101ac91906123fd565b60405180910390f35b6000600282815481106101cb576101ca612418565b5b90600052602060002090600b02019050600160048111156101ef576101ee611c48565b5b81600a0160009054906101000a900460ff16600481111561021357610212611c48565b5b14610253576040517f08c379a000000000000000000000000000000000000000000000000000000000815260040161024a90612493565b60405180910390fd5b600381600a0160006101000a81548160ff0219169083600481111561027b5761027a611c48565b5b02179055507fbc3f77ce3a281e615c85054a5814e59703e2ee0cf33782f46911e0888d4c394c60006001336040516102b5939291906125f8565b60405180910390a15050565b600281815481106102d157600080fd5b90600052602060002090600b02016000915090508060000154908060010160009054906101000a900473ffffffffffffffffffffffffffffffffffffffff1690806002018054610320906124e2565b80601f016020809104026020016040519081016040528092919081815260200182805461034c906124e2565b80156103995780601f1061036e57610100808354040283529160200191610399565b820191906000526020600020905b81548152906001019060200180831161037c57829003601f168201915b5050505050908060030180546103ae906124e2565b80601f01602080910402602001604051908101604052809291908181526020018280546103da906124e2565b80156104275780601f106103fc57610100808354040283529160200191610427565b820191906000526020600020905b81548152906001019060200180831161040a57829003601f168201915b50505050509080600401805461043c906124e2565b80601f0160208091040260200160405190810160405280929190818152602001828054610468906124e2565b80156104b55780601f1061048a576101008083540402835291602001916104b5565b820191906000526020600020905b81548152906001019060200180831161049857829003601f168201915b5050505050908060050180546104ca906124e2565b80601f01602080910402602001604051908101604052809291908181526020018280546104f6906124e2565b80156105435780601f1061051857610100808354040283529160200191610543565b820191906000526020600020905b81548152906001019060200180831161052657829003601f168201915b505050505090806006018054610558906124e2565b80601f0160208091040260200160405190810160405280929190818152602001828054610584906124e2565b80156105d15780601f106105a6576101008083540402835291602001916105d1565b820191906000526020600020905b8154815290600101906020018083116105b457829003601f168201915b5050505050908060070180546105e6906124e2565b80601f0160208091040260200160405190810160405280929190818152602001828054610612906124e2565b801561065f5780601f106106345761010080835404028352916020019161065f565b820191906000526020600020905b81548152906001019060200180831161064257829003601f168201915b505050505090806008018054610674906124e2565b80601f01602080910402602001604051908101604052809291908181526020018280546106a0906124e2565b80156106ed5780601f106106c2576101008083540402835291602001916106ed565b820191906000526020600020905b8154815290600101906020018083116106d057829003601f168201915b50505050509080600901549080600a0160009054906101000a900460ff1690508b565b60006002828154811061072657610725612418565b5b90600052602060002090600b020190506000600481111561074a57610749611c48565b5b81600a0160009054906101000a900460ff16600481111561076e5761076d611c48565b5b146107ae576040517f08c379a00000000000000000000000000000000000000000000000000000000081526004016107a5906126c2565b60405180910390fd5b600181600a0160006101000a81548160ff021916908360048111156107d6576107d5611c48565b5b02179055507fbc3f77ce3a281e615c85054a5814e59703e2ee0cf33782f46911e0888d4c394c60006001336040516108109392919061272e565b60405180910390a15050565b60606000805b6002805490508110156108a857848460405161083f9291906127b6565b60405180910390206002828154811061085b5761085a612418565b5b90600052602060002090600b02016002016040516108799190612867565b604051809103902003610895578180610891906128ad565b9250505b80806108a0906128ad565b915050610822565b5060008167ffffffffffffffff8111156108c5576108c4612141565b5b6040519080825280602002602001820160405280156108fe57816020015b6108eb611a56565b8152602001906001900390816108e35790505b5090506000805b600280549050811015610e7a5786866040516109229291906127b6565b60405180910390206002828154811061093e5761093d612418565b5b90600052602060002090600b020160020160405161095c9190612867565b604051809103902003610e67576002818154811061097d5761097c612418565b5b90600052602060002090600b020160405180610160016040529081600082015481526020016001820160009054906101000a900473ffffffffffffffffffffffffffffffffffffffff1673ffffffffffffffffffffffffffffffffffffffff1673ffffffffffffffffffffffffffffffffffffffff168152602001600282018054610a07906124e2565b80601f0160208091040260200160405190810160405280929190818152602001828054610a33906124e2565b8015610a805780601f10610a5557610100808354040283529160200191610a80565b820191906000526020600020905b815481529060010190602001808311610a6357829003601f168201915b50505050508152602001600382018054610a99906124e2565b80601f0160208091040260200160405190810160405280929190818152602001828054610ac5906124e2565b8015610b125780601f10610ae757610100808354040283529160200191610b12565b820191906000526020600020905b815481529060010190602001808311610af557829003601f168201915b50505050508152602001600482018054610b2b906124e2565b80601f0160208091040260200160405190810160405280929190818152602001828054610b57906124e2565b8015610ba45780601f10610b7957610100808354040283529160200191610ba4565b820191906000526020600020905b815481529060010190602001808311610b8757829003601f168201915b50505050508152602001600582018054610bbd906124e2565b80601f0160208091040260200160405190810160405280929190818152602001828054610be9906124e2565b8015610c365780601f10610c0b57610100808354040283529160200191610c36565b820191906000526020600020905b815481529060010190602001808311610c1957829003601f168201915b50505050508152602001600682018054610c4f906124e2565b80601f0160208091040260200160405190810160405280929190818152602001828054610c7b906124e2565b8015610cc85780601f10610c9d57610100808354040283529160200191610cc8565b820191906000526020600020905b815481529060010190602001808311610cab57829003601f168201915b50505050508152602001600782018054610ce1906124e2565b80601f0160208091040260200160405190810160405280929190818152602001828054610d0d906124e2565b8015610d5a5780601f10610d2f57610100808354040283529160200191610d5a565b820191906000526020600020905b815481529060010190602001808311610d3d57829003601f168201915b50505050508152602001600882018054610d73906124e2565b80601f0160208091040260200160405190810160405280929190818152602001828054610d9f906124e2565b8015610dec5780601f10610dc157610100808354040283529160200191610dec565b820191906000526020600020905b815481529060010190602001808311610dcf57829003601f168201915b5050505050815260200160098201548152602001600a820160009054906101000a900460ff166004811115610e2457610e23611c48565b5b6004811115610e3657610e35611c48565b5b81525050838381518110610e4d57610e4c612418565b5b60200260200101819052508180610e63906128ad565b9250505b8080610e72906128ad565b915050610905565b5081935050505092915050565b600060028381548110610e9d57610e9c612418565b5b90600052602060002090600b020190508060010160009054906101000a900473ffffffffffffffffffffffffffffffffffffffff1673ffffffffffffffffffffffffffffffffffffffff163373ffffffffffffffffffffffffffffffffffffffff1614610f3f576040517f08c379a0000000000000000000000000000000000000000000000000000000008152600401610f3690612967565b60405180910390fd5b60036004811115610f5357610f52611c48565b5b81600a0160009054906101000a900460ff166004811115610f7757610f76611c48565b5b14610fb7576040517f08c379a0000000000000000000000000000000000000000000000000000000008152600401610fae906129f9565b60405180910390fd5b600481600a0160006101000a81548160ff02191690836004811115610fdf57610fde611c48565b5b02179055508181600901819055507fbc3f77ce3a281e615c85054a5814e59703e2ee0cf33782f46911e0888d4c394c6000600133604051611022939291906125f8565b60405180910390a1505050565b60006002828154811061104557611044612418565b5b90600052602060002090600b020190506000600481111561106957611068611c48565b5b81600a0160009054906101000a900460ff16600481111561108d5761108c611c48565b5b14806110ce5750600360048111156110a8576110a7611c48565b5b81600a0160009054906101000a900460ff1660048111156110cc576110cb611c48565b5b145b61110d576040517f08c379a000000000000000000000000000000000000000000000000000000000815260040161110490612a8b565b60405180910390fd5b600281600a0160006101000a81548160ff0219169083600481111561113557611134611c48565b5b02179055508281600801908161114b9190612c42565b507fbc3f77ce3a281e615c85054a5814e59703e2ee0cf33782f46911e0888d4c394c600060013360405161118193929190612d60565b60405180910390a1505050565b60606000805b60028054905081101561123b573373ffffffffffffffffffffffffffffffffffffffff16600282815481106111cc576111cb612418565b5b90600052602060002090600b020160010160009054906101000a900473ffffffffffffffffffffffffffffffffffffffff1673ffffffffffffffffffffffffffffffffffffffff1603611228578180611224906128ad565b9250505b8080611233906128ad565b915050611194565b5060008167ffffffffffffffff81111561125857611257612141565b5b60405190808252806020026020018201604052801561129157816020015b61127e611a56565b8152602001906001900390816112765790505b5090506000805b60028054905081101561182e573373ffffffffffffffffffffffffffffffffffffffff16600282815481106112d0576112cf612418565b5b90600052602060002090600b020160010160009054906101000a900473ffffffffffffffffffffffffffffffffffffffff1673ffffffffffffffffffffffffffffffffffffffff160361181b576002818154811061133157611330612418565b5b90600052602060002090600b020160405180610160016040529081600082015481526020016001820160009054906101000a900473ffffffffffffffffffffffffffffffffffffffff1673ffffffffffffffffffffffffffffffffffffffff1673ffffffffffffffffffffffffffffffffffffffff1681526020016002820180546113bb906124e2565b80601f01602080910402602001604051908101604052809291908181526020018280546113e7906124e2565b80156114345780601f1061140957610100808354040283529160200191611434565b820191906000526020600020905b81548152906001019060200180831161141757829003601f168201915b5050505050815260200160038201805461144d906124e2565b80601f0160208091040260200160405190810160405280929190818152602001828054611479906124e2565b80156114c65780601f1061149b576101008083540402835291602001916114c6565b820191906000526020600020905b8154815290600101906020018083116114a957829003601f168201915b505050505081526020016004820180546114df906124e2565b80601f016020809104026020016040519081016040528092919081815260200182805461150b906124e2565b80156115585780601f1061152d57610100808354040283529160200191611558565b820191906000526020600020905b81548152906001019060200180831161153b57829003601f168201915b50505050508152602001600582018054611571906124e2565b80601f016020809104026020016040519081016040528092919081815260200182805461159d906124e2565b80156115ea5780601f106115bf576101008083540402835291602001916115ea565b820191906000526020600020905b8154815290600101906020018083116115cd57829003601f168201915b50505050508152602001600682018054611603906124e2565b80601f016020809104026020016040519081016040528092919081815260200182805461162f906124e2565b801561167c5780601f106116515761010080835404028352916020019161167c565b820191906000526020600020905b81548152906001019060200180831161165f57829003601f168201915b50505050508152602001600782018054611695906124e2565b80601f01602080910402602001604051908101604052809291908181526020018280546116c1906124e2565b801561170e5780601f106116e35761010080835404028352916020019161170e565b820191906000526020600020905b8154815290600101906020018083116116f157829003601f168201915b50505050508152602001600882018054611727906124e2565b80601f0160208091040260200160405190810160405280929190818152602001828054611753906124e2565b80156117a05780601f10611775576101008083540402835291602001916117a0565b820191906000526020600020905b81548152906001019060200180831161178357829003601f168201915b5050505050815260200160098201548152602001600a820160009054906101000a900460ff1660048111156117d8576117d7611c48565b5b60048111156117ea576117e9611c48565b5b8152505083838151811061180157611800612418565b5b60200260200101819052508180611817906128ad565b9250505b8080611826906128ad565b915050611298565b5081935050505090565b6000600260405180610160016040528060028054905081526020013373ffffffffffffffffffffffffffffffffffffffff1681526020018481526020018881526020018581526020018781526020018681526020018981526020016040518060200160405280600081525081526020017fffffffffffffffffffffffffffffffffffffffffffffffffffffffffffffffff8152602001600060048111156118e2576118e1611c48565b5b81525090806001815401808255809150506001900390600052602060002090600b02016000909190919091506000820151816000015560208201518160010160006101000a81548173ffffffffffffffffffffffffffffffffffffffff021916908373ffffffffffffffffffffffffffffffffffffffff16021790555060408201518160020190816119749190612c42565b50606082015181600301908161198a9190612c42565b5060808201518160040190816119a09190612c42565b5060a08201518160050190816119b69190612c42565b5060c08201518160060190816119cc9190612c42565b5060e08201518160070190816119e29190612c42565b506101008201518160080190816119f99190612c42565b50610120820151816009015561014082015181600a0160006101000a81548160ff02191690836004811115611a3157611a30611c48565b5b021790555050506001600280549050611a4a9190612db8565b90509695505050505050565b60405180610160016040528060008152602001600073ffffffffffffffffffffffffffffffffffffffff168152602001606081526020016060815260200160608152602001606081526020016060815260200160608152602001606081526020016000815260200160006004811115611ad257611ad1611c48565b5b81525090565b6000604051905090565b600080fd5b600080fd5b6000819050919050565b611aff81611aec565b8114611b0a57600080fd5b50565b600081359050611b1c81611af6565b92915050565b600060208284031215611b3857611b37611ae2565b5b6000611b4684828501611b0d565b91505092915050565b611b5881611aec565b82525050565b600073ffffffffffffffffffffffffffffffffffffffff82169050919050565b6000611b8982611b5e565b9050919050565b611b9981611b7e565b82525050565b600081519050919050565b600082825260208201905092915050565b60005b83811015611bd9578082015181840152602081019050611bbe565b60008484015250505050565b6000601f19601f8301169050919050565b6000611c0182611b9f565b611c0b8185611baa565b9350611c1b818560208601611bbb565b611c2481611be5565b840191505092915050565b6000819050919050565b611c4281611c2f565b82525050565b7f4e487b7100000000000000000000000000000000000000000000000000000000600052602160045260246000fd5b60058110611c8857611c87611c48565b5b50565b6000819050611c9982611c77565b919050565b6000611ca982611c8b565b9050919050565b611cb981611c9e565b82525050565b600061016082019050611cd5600083018e611b4f565b611ce2602083018d611b90565b8181036040830152611cf4818c611bf6565b90508181036060830152611d08818b611bf6565b90508181036080830152611d1c818a611bf6565b905081810360a0830152611d308189611bf6565b905081810360c0830152611d448188611bf6565b905081810360e0830152611d588187611bf6565b9050818103610100830152611d6d8186611bf6565b9050611d7d610120830185611c39565b611d8b610140830184611cb0565b9c9b505050505050505050505050565b600080fd5b600080fd5b600080fd5b60008083601f840112611dc057611dbf611d9b565b5b8235905067ffffffffffffffff811115611ddd57611ddc611da0565b5b602083019150836001820283011115611df957611df8611da5565b5b9250929050565b60008060208385031215611e1757611e16611ae2565b5b600083013567ffffffffffffffff811115611e3557611e34611ae7565b5b611e4185828601611daa565b92509250509250929050565b600081519050919050565b600082825260208201905092915050565b6000819050602082019050919050565b611e8281611aec565b82525050565b611e9181611b7e565b82525050565b600082825260208201905092915050565b6000611eb382611b9f565b611ebd8185611e97565b9350611ecd818560208601611bbb565b611ed681611be5565b840191505092915050565b611eea81611c2f565b82525050565b611ef981611c9e565b82525050565b600061016083016000830151611f186000860182611e79565b506020830151611f2b6020860182611e88565b5060408301518482036040860152611f438282611ea8565b91505060608301518482036060860152611f5d8282611ea8565b91505060808301518482036080860152611f778282611ea8565b91505060a083015184820360a0860152611f918282611ea8565b91505060c083015184820360c0860152611fab8282611ea8565b91505060e083015184820360e0860152611fc58282611ea8565b915050610100830151848203610100860152611fe18282611ea8565b915050610120830151611ff8610120860182611ee1565b5061014083015161200d610140860182611ef0565b508091505092915050565b60006120248383611eff565b905092915050565b6000602082019050919050565b600061204482611e4d565b61204e8185611e58565b93508360208202850161206085611e69565b8060005b8581101561209c578484038952815161207d8582612018565b94506120888361202c565b925060208a01995050600181019050612064565b50829750879550505050505092915050565b600060208201905081810360008301526120c88184612039565b905092915050565b6120d981611c2f565b81146120e457600080fd5b50565b6000813590506120f6816120d0565b92915050565b6000806040838503121561211357612112611ae2565b5b600061212185828601611b0d565b9250506020612132858286016120e7565b9150509250929050565b600080fd5b7f4e487b7100000000000000000000000000000000000000000000000000000000600052604160045260246000fd5b61217982611be5565b810181811067ffffffffffffffff8211171561219857612197612141565b5b80604052505050565b60006121ab611ad8565b90506121b78282612170565b919050565b600067ffffffffffffffff8211156121d7576121d6612141565b5b6121e082611be5565b9050602081019050919050565b82818337600083830152505050565b600061220f61220a846121bc565b6121a1565b90508281526020810184848401111561222b5761222a61213c565b5b6122368482856121ed565b509392505050565b600082601f83011261225357612252611d9b565b5b81356122638482602086016121fc565b91505092915050565b6000806040838503121561228357612282611ae2565b5b600083013567ffffffffffffffff8111156122a1576122a0611ae7565b5b6122ad8582860161223e565b92505060206122be85828601611b0d565b9150509250929050565b60008060008060008060c087890312156122e5576122e4611ae2565b5b600087013567ffffffffffffffff81111561230357612302611ae7565b5b61230f89828a0161223e565b965050602087013567ffffffffffffffff8111156123305761232f611ae7565b5b61233c89828a0161223e565b955050604087013567ffffffffffffffff81111561235d5761235c611ae7565b5b61236989828a0161223e565b945050606087013567ffffffffffffffff81111561238a57612389611ae7565b5b61239689828a0161223e565b935050608087013567ffffffffffffffff8111156123b7576123b6611ae7565b5b6123c389828a0161223e565b92505060a087013567ffffffffffffffff8111156123e4576123e3611ae7565b5b6123f089828a0161223e565b9150509295509295509295565b60006020820190506124126000830184611b4f565b92915050565b7f4e487b7100000000000000000000000000000000000000000000000000000000600052603260045260246000fd5b7f5469636b6574206d75737420626520696e20446f696e67207374617475730000600082015250565b600061247d601e83611baa565b915061248882612447565b602082019050919050565b600060208201905081810360008301526124ac81612470565b9050919050565b7f4e487b7100000000000000000000000000000000000000000000000000000000600052602260045260246000fd5b600060028204905060018216806124fa57607f821691505b60208210810361250d5761250c6124b3565b5b50919050565b60008190508160005260206000209050919050565b60008154612535816124e2565b61253f8186611baa565b9450600182166000811461255a5760018114612570576125a3565b60ff1983168652811515602002860193506125a3565b61257985612513565b60005b8381101561259b5781548189015260018201915060208101905061257c565b808801955050505b50505092915050565b7f5469636b657446696e6973686564000000000000000000000000000000000000600082015250565b60006125e2600e83611baa565b91506125ed826125ac565b602082019050919050565b600060808201905081810360008301526126128186612528565b905081810360208301526126268185612528565b90508181036040830152612639816125d5565b90506126486060830184611b90565b949350505050565b7f5469636b6574206d75737420626520696e2050726f706f73616c20737461747560008201527f7300000000000000000000000000000000000000000000000000000000000000602082015250565b60006126ac602183611baa565b91506126b782612650565b604082019050919050565b600060208201905081810360008301526126db8161269f565b9050919050565b7f5469636b65745374617274656400000000000000000000000000000000000000600082015250565b6000612718600d83611baa565b9150612723826126e2565b602082019050919050565b600060808201905081810360008301526127488186612528565b9050818103602083015261275c8185612528565b9050818103604083015261276f8161270b565b905061277e6060830184611b90565b949350505050565b600081905092915050565b600061279d8385612786565b93506127aa8385846121ed565b82840190509392505050565b60006127c3828486612791565b91508190509392505050565b60008190508160005260206000209050919050565b600081546127f1816124e2565b6127fb8186612786565b94506001821660008114612816576001811461282b5761285e565b60ff198316865281151582028601935061285e565b612834856127cf565b60005b8381101561285657815481890152600182019150602081019050612837565b838801955050505b50505092915050565b600061287382846127e4565b915081905092915050565b7f4e487b7100000000000000000000000000000000000000000000000000000000600052601160045260246000fd5b60006128b882611aec565b91507fffffffffffffffffffffffffffffffffffffffffffffffffffffffffffffffff82036128ea576128e961287e565b5b600182019050919050565b7f5469636b6574206d7573742062652066696e69736820627920637573746f6d6560008201527f7200000000000000000000000000000000000000000000000000000000000000602082015250565b6000612951602183611baa565b915061295c826128f5565b604082019050919050565b6000602082019050818103600083015261298081612944565b9050919050565b7f5469636b6574206d75737420626520696e20646f6e652062792074686520657860008201527f7065727400000000000000000000000000000000000000000000000000000000602082015250565b60006129e3602483611baa565b91506129ee82612987565b604082019050919050565b60006020820190508181036000830152612a12816129d6565b9050919050565b7f596f752063616e27742063616e63656c20746865207469636b6574206966207360008201527f7461727465640000000000000000000000000000000000000000000000000000602082015250565b6000612a75602683611baa565b9150612a8082612a19565b604082019050919050565b60006020820190508181036000830152612aa481612a68565b9050919050565b60006020601f8301049050919050565b600082821b905092915050565b600060088302612af87fffffffffffffffffffffffffffffffffffffffffffffffffffffffffffffffff82612abb565b612b028683612abb565b95508019841693508086168417925050509392505050565b6000819050919050565b6000612b3f612b3a612b3584611aec565b612b1a565b611aec565b9050919050565b6000819050919050565b612b5983612b24565b612b6d612b6582612b46565b848454612ac8565b825550505050565b600090565b612b82612b75565b612b8d818484612b50565b505050565b5b81811015612bb157612ba6600082612b7a565b600181019050612b93565b5050565b601f821115612bf657612bc781612513565b612bd084612aab565b81016020851015612bdf578190505b612bf3612beb85612aab565b830182612b92565b50505b505050565b600082821c905092915050565b6000612c1960001984600802612bfb565b1980831691505092915050565b6000612c328383612c08565b9150826002028217905092915050565b612c4b82611b9f565b67ffffffffffffffff811115612c6457612c63612141565b5b612c6e82546124e2565b612c79828285612bb5565b600060209050601f831160018114612cac5760008415612c9a578287015190505b612ca48582612c26565b865550612d0c565b601f198416612cba86612513565b60005b82811015612ce257848901518255600182019150602085019450602081019050612cbd565b86831015612cff5784890151612cfb601f891682612c08565b8355505b6001600288020188555050505b505050505050565b7f5469636b65744163636570746564000000000000000000000000000000000000600082015250565b6000612d4a600e83611baa565b9150612d5582612d14565b602082019050919050565b60006080820190508181036000830152612d7a8186612528565b90508181036020830152612d8e8185612528565b90508181036040830152612da181612d3d565b9050612db06060830184611b90565b949350505050565b6000612dc382611aec565b9150612dce83611aec565b9250828203905081811115612de657612de561287e565b5b9291505056fea2646970667358221220e2bc2b88875e6a51e80baea3c24f4f2020192425017ee36e0bac65ea61c9816564736f6c63430008130033",
  "immutableReferences": {},
  "source": "// SPDX-License-Identifier: MIT\r\npragma solidity 0.8.19;\r\n\r\ncontract TicketMarketplace {\r\n    enum TicketStatus {\r\n        Proposal,\r\n        Doing,\r\n        Cancel,\r\n        ExpertDone,\r\n        CustDone\r\n    }\r\n\r\n    struct Ticket {\r\n        uint256 id;\r\n        address customer;\r\n        string worker;\r\n        string title;\r\n        string description;\r\n        string tag;\r\n        string date;\r\n        string senderEmail;\r\n        string cancelReason;\r\n        int rate;\r\n        TicketStatus status;\r\n    }\r\n\r\n    string internal ApplicationName = \"TicketMarketplace\";\r\n    string internal WorkflowName = \"TicketMarketplace\";\r\n\r\n    event ContractCreated(\r\n        string applicationName,\r\n        string workflowName,\r\n        address originatingAddress\r\n    );\r\n    event ContractUpdated(\r\n        string applicationName,\r\n        string workflowName,\r\n        string action,\r\n        address originatingAddress\r\n    );\r\n\r\n    Ticket[] public tickets;\r\n\r\n    function createTicket(\r\n        string memory senderEmail,\r\n        string memory title,\r\n        string memory tags,\r\n        string memory date,\r\n        string memory _description,\r\n        string memory target\r\n    ) public returns (uint256) {\r\n        tickets.push(\r\n            Ticket({\r\n                id: tickets.length,\r\n                customer: msg.sender,\r\n                senderEmail: senderEmail,\r\n                cancelReason: \"\",\r\n                title: title,\r\n                worker: target,\r\n                date: date,\r\n                description: _description,\r\n                status: TicketStatus.Proposal,\r\n                rate: -1,\r\n                tag: tags\r\n            })\r\n        );\r\n        return tickets.length - 1;\r\n    }\r\n\r\n    function cancelTicket(\r\n        string memory cancelReason,\r\n        uint256 ticketIndex\r\n    ) public {\r\n        Ticket storage ticket = tickets[ticketIndex];\r\n        require(\r\n            ticket.status == TicketStatus.Proposal || ticket.status == TicketStatus.ExpertDone,\r\n            \"You can't cancel the ticket if started\"\r\n        );\r\n        ticket.status = TicketStatus.Cancel;\r\n        ticket.cancelReason = cancelReason;\r\n        emit ContractUpdated(\r\n            ApplicationName,\r\n            WorkflowName,\r\n            \"TicketAccepted\",\r\n            msg.sender\r\n        );\r\n    }\r\n\r\n    function startTicket(\r\n        uint256 ticketIndex\r\n    ) public {\r\n        Ticket storage ticket = tickets[ticketIndex];\r\n        // require(\r\n        //     abi.encodePacked(msg.sender) == keccak256(bytes(ticket.worker)),\r\n        //     \"Sender can't start they own ticket\"\r\n        // );\r\n        require(\r\n            ticket.status == TicketStatus.Proposal,\r\n            \"Ticket must be in Proposal status\"\r\n        );\r\n        ticket.status = TicketStatus.Doing;\r\n        emit ContractUpdated(\r\n            ApplicationName,\r\n            WorkflowName,\r\n            \"TicketStarted\",\r\n            msg.sender\r\n        );\r\n    }\r\n\r\n    function expertFinishTicket(uint256 ticketIndex) public {\r\n        Ticket storage ticket = tickets[ticketIndex];\r\n        // require(\r\n        //     msg.sender == keccak256(ticket.worker),\r\n        //     \"Only the assigned worker can complete the ticket\"\r\n        // );\r\n        require(\r\n            ticket.status == TicketStatus.Doing,\r\n            \"Ticket must be in Doing status\"\r\n        );\r\n        ticket.status = TicketStatus.ExpertDone;\r\n        emit ContractUpdated(\r\n            ApplicationName,\r\n            WorkflowName,\r\n            \"TicketFinished\",\r\n            msg.sender\r\n        );\r\n    }\r\n\r\n\r\n    function customerDoneTicket(uint256 ticketIndex, int256 rate) public {\r\n        Ticket storage ticket = tickets[ticketIndex];\r\n        require(\r\n            msg.sender == ticket.customer,\r\n            \"Ticket must be finish by customer\"\r\n        );\r\n        require(\r\n            ticket.status == TicketStatus.ExpertDone,\r\n            \"Ticket must be in done by the expert\"\r\n        );\r\n        ticket.status = TicketStatus.CustDone;\r\n        ticket.rate = rate;\r\n        emit ContractUpdated(\r\n            ApplicationName,\r\n            WorkflowName,\r\n            \"TicketFinished\",\r\n            msg.sender\r\n        );\r\n    }\r\n\r\n    function getTicketsByAddress(\r\n        string calldata addressString\r\n    ) public view returns (Ticket[] memory) {\r\n\r\n    \r\n        uint256 count = 0;\r\n        for (uint256 i = 0; i < tickets.length; i++) {\r\n            if (keccak256(bytes(tickets[i].worker)) == keccak256(bytes(addressString))) {\r\n                count++;\r\n            }\r\n        }\r\n\r\n        Ticket[] memory filteredItems = new Ticket[](count);\r\n        uint256 index = 0;\r\n        for (uint256 i = 0; i < tickets.length; i++) {\r\n            if (keccak256(bytes(tickets[i].worker)) == keccak256(bytes(addressString))) {\r\n                filteredItems[index] = tickets[i];\r\n                index++;\r\n            }\r\n        }\r\n\r\n        return filteredItems;\r\n    }\r\n\r\n\r\n    function getYourRequestTicket() public view returns (Ticket[] memory) {\r\n\r\n        uint256 count = 0;\r\n        for (uint256 i = 0; i < tickets.length; i++) {\r\n            if (tickets[i].customer == msg.sender) {\r\n                count++;\r\n            }\r\n        }\r\n\r\n        Ticket[] memory filteredItems = new Ticket[](count);\r\n        uint256 index = 0;\r\n        for (uint256 i = 0; i < tickets.length; i++) {\r\n            if (tickets[i].customer == msg.sender) {\r\n                filteredItems[index] = tickets[i];\r\n                index++;\r\n            }\r\n        }\r\n\r\n        return filteredItems;\r\n    }\r\n}\r\n",
  "sourcePath": "D:\\DuancuaThien\\blc-fe\\contracts\\TicketMarketplace.sol",
  "compiler": {
    "name": "solc",
    "version": "0.8.19+commit.7dd6d404.Emscripten.clang"
  },
  "schemaVersion": "3.4.14",
  "updatedAt": "2023-06-22T04:37:25.848Z",
  "networkType": "ethereum",
  "devdoc": {
    "kind": "dev",
    "methods": {},
    "version": 1
  },
  "userdoc": {
    "kind": "user",
    "methods": {},
    "version": 1
  }
}