{
  "contractName": "TicketMarketplace",
  "abi": [
    {
      "anonymous": false,
      "inputs": [
        {
          "indexed": false,
          "internalType": "string",
          "name": "applicationName",
          "type": "string"
        },
        {
          "indexed": false,
          "internalType": "string",
          "name": "workflowName",
          "type": "string"
        },
        {
          "indexed": false,
          "internalType": "address",
          "name": "originatingAddress",
          "type": "address"
        }
      ],
      "name": "ContractCreated",
      "type": "event"
    },
    {
      "anonymous": false,
      "inputs": [
        {
          "indexed": false,
          "internalType": "string",
          "name": "applicationName",
          "type": "string"
        },
        {
          "indexed": false,
          "internalType": "string",
          "name": "workflowName",
          "type": "string"
        },
        {
          "indexed": false,
          "internalType": "string",
          "name": "action",
          "type": "string"
        },
        {
          "indexed": false,
          "internalType": "address",
          "name": "originatingAddress",
          "type": "address"
        }
      ],
      "name": "ContractUpdated",
      "type": "event"
    },
    {
      "inputs": [
        {
          "internalType": "uint256",
          "name": "",
          "type": "uint256"
        }
      ],
      "name": "tickets",
      "outputs": [
        {
          "internalType": "address",
          "name": "customer",
          "type": "address"
        },
        {
          "internalType": "string",
          "name": "worker",
          "type": "string"
        },
        {
          "internalType": "string",
          "name": "description",
          "type": "string"
        },
        {
          "internalType": "string",
          "name": "tag",
          "type": "string"
        },
        {
          "internalType": "int256",
          "name": "rate",
          "type": "int256"
        },
        {
          "internalType": "enum TicketMarketplace.TicketStatus",
          "name": "status",
          "type": "uint8"
        }
      ],
      "stateMutability": "view",
      "type": "function"
    },
    {
      "inputs": [
        {
          "internalType": "string",
          "name": "tags",
          "type": "string"
        },
        {
          "internalType": "string",
          "name": "_description",
          "type": "string"
        },
        {
          "internalType": "string",
          "name": "target",
          "type": "string"
        }
      ],
      "name": "createTicket",
      "outputs": [
        {
          "internalType": "uint256",
          "name": "",
          "type": "uint256"
        }
      ],
      "stateMutability": "nonpayable",
      "type": "function"
    },
    {
      "inputs": [
        {
          "internalType": "uint256",
          "name": "ticketIndex",
          "type": "uint256"
        }
      ],
      "name": "cancelTicket",
      "outputs": [],
      "stateMutability": "nonpayable",
      "type": "function"
    },
    {
      "inputs": [
        {
          "internalType": "uint256",
          "name": "ticketIndex",
          "type": "uint256"
        }
      ],
      "name": "startTicket",
      "outputs": [],
      "stateMutability": "nonpayable",
      "type": "function"
    },
    {
      "inputs": [
        {
          "internalType": "uint256",
          "name": "ticketIndex",
          "type": "uint256"
        }
      ],
      "name": "expertFinishTicket",
      "outputs": [],
      "stateMutability": "nonpayable",
      "type": "function"
    },
    {
      "inputs": [
        {
          "internalType": "uint256",
          "name": "ticketIndex",
          "type": "uint256"
        }
      ],
      "name": "customerDoneTicket",
      "outputs": [],
      "stateMutability": "nonpayable",
      "type": "function"
    },
    {
      "inputs": [
        {
          "internalType": "string",
          "name": "addressString",
          "type": "string"
        }
      ],
      "name": "getTicketsByAddress",
      "outputs": [
        {
          "components": [
            {
              "internalType": "address",
              "name": "customer",
              "type": "address"
            },
            {
              "internalType": "string",
              "name": "worker",
              "type": "string"
            },
            {
              "internalType": "string",
              "name": "description",
              "type": "string"
            },
            {
              "internalType": "string",
              "name": "tag",
              "type": "string"
            },
            {
              "internalType": "int256",
              "name": "rate",
              "type": "int256"
            },
            {
              "internalType": "enum TicketMarketplace.TicketStatus",
              "name": "status",
              "type": "uint8"
            }
          ],
          "internalType": "struct TicketMarketplace.Ticket[]",
          "name": "",
          "type": "tuple[]"
        }
      ],
      "stateMutability": "view",
      "type": "function"
    }
  ],
  "bytecode": "0x60806040526040518060400160405280601181526020017f5469636b65744d61726b6574706c616365000000000000000000000000000000815250600090816200004a919062000320565b506040518060400160405280601181526020017f5469636b65744d61726b6574706c6163650000000000000000000000000000008152506001908162000091919062000320565b503480156200009f57600080fd5b5062000407565b600081519050919050565b7f4e487b7100000000000000000000000000000000000000000000000000000000600052604160045260246000fd5b7f4e487b7100000000000000000000000000000000000000000000000000000000600052602260045260246000fd5b600060028204905060018216806200012857607f821691505b6020821081036200013e576200013d620000e0565b5b50919050565b60008190508160005260206000209050919050565b60006020601f8301049050919050565b600082821b905092915050565b600060088302620001a87fffffffffffffffffffffffffffffffffffffffffffffffffffffffffffffffff8262000169565b620001b4868362000169565b95508019841693508086168417925050509392505050565b6000819050919050565b6000819050919050565b600062000201620001fb620001f584620001cc565b620001d6565b620001cc565b9050919050565b6000819050919050565b6200021d83620001e0565b620002356200022c8262000208565b84845462000176565b825550505050565b600090565b6200024c6200023d565b6200025981848462000212565b505050565b5b8181101562000281576200027560008262000242565b6001810190506200025f565b5050565b601f821115620002d0576200029a8162000144565b620002a58462000159565b81016020851015620002b5578190505b620002cd620002c48562000159565b8301826200025e565b50505b505050565b600082821c905092915050565b6000620002f560001984600802620002d5565b1980831691505092915050565b6000620003108383620002e2565b9150826002028217905092915050565b6200032b82620000a6565b67ffffffffffffffff811115620003475762000346620000b1565b5b6200035382546200010f565b6200036082828562000285565b600060209050601f83116001811462000398576000841562000383578287015190505b6200038f858262000302565b865550620003ff565b601f198416620003a88662000144565b60005b82811015620003d257848901518255600182019150602085019450602081019050620003ab565b86831015620003f25784890151620003ee601f891682620002e2565b8355505b6001600288020188555050505b505050505050565b611f5080620004176000396000f3fe608060405234801561001057600080fd5b506004361061007d5760003560e01c80635a3886111161005b5780635a3886111461010357806394baafc01461011f578063a1af53c61461014f578063ee355b1f1461016b5761007d565b80633dc261f9146100825780634a404c13146100b257806350b44712146100ce575b600080fd5b61009c60048036038101906100979190610fad565b610187565b6040516100a9919061106d565b60405180910390f35b6100cc60048036038101906100c791906110b4565b61030a565b005b6100e860048036038101906100e391906110b4565b610416565b6040516100fa96959493929190611231565b60405180910390f35b61011d600480360381019061011891906110b4565b610627565b005b61013960048036038101906101349190611307565b610733565b6040516101469190611524565b60405180910390f35b610169600480360381019061016491906110b4565b610b4b565b005b610185600480360381019061018091906110b4565b610ce9565b005b600060026040518060c001604052803373ffffffffffffffffffffffffffffffffffffffff1681526020018481526020018581526020018681526020017fffffffffffffffffffffffffffffffffffffffffffffffffffffffffffffffff8152602001600060048111156101fe576101fd6111ba565b5b815250908060018154018082558091505060019003906000526020600020906006020160009091909190915060008201518160000160006101000a81548173ffffffffffffffffffffffffffffffffffffffff021916908373ffffffffffffffffffffffffffffffffffffffff16021790555060208201518160010190816102869190611752565b50604082015181600201908161029c9190611752565b5060608201518160030190816102b29190611752565b506080820151816004015560a08201518160050160006101000a81548160ff021916908360048111156102e8576102e76111ba565b5b0217905550505060016002805490506103019190611853565b90509392505050565b6000600282815481106103205761031f611887565b5b9060005260206000209060060201905060016004811115610344576103436111ba565b5b8160050160009054906101000a900460ff166004811115610368576103676111ba565b5b146103a8576040517f08c379a000000000000000000000000000000000000000000000000000000000815260040161039f90611902565b60405180910390fd5b60038160050160006101000a81548160ff021916908360048111156103d0576103cf6111ba565b5b02179055507fbc3f77ce3a281e615c85054a5814e59703e2ee0cf33782f46911e0888d4c394c600060013360405161040a939291906119f2565b60405180910390a15050565b6002818154811061042657600080fd5b90600052602060002090600602016000915090508060000160009054906101000a900473ffffffffffffffffffffffffffffffffffffffff169080600101805461046f90611575565b80601f016020809104026020016040519081016040528092919081815260200182805461049b90611575565b80156104e85780601f106104bd576101008083540402835291602001916104e8565b820191906000526020600020905b8154815290600101906020018083116104cb57829003601f168201915b5050505050908060020180546104fd90611575565b80601f016020809104026020016040519081016040528092919081815260200182805461052990611575565b80156105765780601f1061054b57610100808354040283529160200191610576565b820191906000526020600020905b81548152906001019060200180831161055957829003601f168201915b50505050509080600301805461058b90611575565b80601f01602080910402602001604051908101604052809291908181526020018280546105b790611575565b80156106045780601f106105d957610100808354040283529160200191610604565b820191906000526020600020905b8154815290600101906020018083116105e757829003601f168201915b5050505050908060040154908060050160009054906101000a900460ff16905086565b60006002828154811061063d5761063c611887565b5b9060005260206000209060060201905060006004811115610661576106606111ba565b5b8160050160009054906101000a900460ff166004811115610685576106846111ba565b5b146106c5576040517f08c379a00000000000000000000000000000000000000000000000000000000081526004016106bc90611abc565b60405180910390fd5b60018160050160006101000a81548160ff021916908360048111156106ed576106ec6111ba565b5b02179055507fbc3f77ce3a281e615c85054a5814e59703e2ee0cf33782f46911e0888d4c394c600060013360405161072793929190611b28565b60405180910390a15050565b60606000805b6002805490508110156107bf578484604051610756929190611bb0565b60405180910390206002828154811061077257610771611887565b5b90600052602060002090600602016001016040516107909190611c61565b6040518091039020036107ac5781806107a890611c78565b9250505b80806107b790611c78565b915050610739565b5060008167ffffffffffffffff8111156107dc576107db610e82565b5b60405190808252806020026020018201604052801561081557816020015b610802610df5565b8152602001906001900390816107fa5790505b5090506000805b600280549050811015610b3e578686604051610839929190611bb0565b60405180910390206002828154811061085557610854611887565b5b90600052602060002090600602016001016040516108739190611c61565b604051809103902003610b2b576002818154811061089457610893611887565b5b90600052602060002090600602016040518060c00160405290816000820160009054906101000a900473ffffffffffffffffffffffffffffffffffffffff1673ffffffffffffffffffffffffffffffffffffffff1673ffffffffffffffffffffffffffffffffffffffff16815260200160018201805461091390611575565b80601f016020809104026020016040519081016040528092919081815260200182805461093f90611575565b801561098c5780601f106109615761010080835404028352916020019161098c565b820191906000526020600020905b81548152906001019060200180831161096f57829003601f168201915b505050505081526020016002820180546109a590611575565b80601f01602080910402602001604051908101604052809291908181526020018280546109d190611575565b8015610a1e5780601f106109f357610100808354040283529160200191610a1e565b820191906000526020600020905b815481529060010190602001808311610a0157829003601f168201915b50505050508152602001600382018054610a3790611575565b80601f0160208091040260200160405190810160405280929190818152602001828054610a6390611575565b8015610ab05780601f10610a8557610100808354040283529160200191610ab0565b820191906000526020600020905b815481529060010190602001808311610a9357829003601f168201915b50505050508152602001600482015481526020016005820160009054906101000a900460ff166004811115610ae857610ae76111ba565b5b6004811115610afa57610af96111ba565b5b81525050838381518110610b1157610b10611887565b5b60200260200101819052508180610b2790611c78565b9250505b8080610b3690611c78565b91505061081c565b5081935050505092915050565b600060028281548110610b6157610b60611887565b5b906000526020600020906006020190508060000160009054906101000a900473ffffffffffffffffffffffffffffffffffffffff1673ffffffffffffffffffffffffffffffffffffffff163373ffffffffffffffffffffffffffffffffffffffff1614610c03576040517f08c379a0000000000000000000000000000000000000000000000000000000008152600401610bfa90611d32565b60405180910390fd5b60036004811115610c1757610c166111ba565b5b8160050160009054906101000a900460ff166004811115610c3b57610c3a6111ba565b5b14610c7b576040517f08c379a0000000000000000000000000000000000000000000000000000000008152600401610c7290611dc4565b60405180910390fd5b60048160050160006101000a81548160ff02191690836004811115610ca357610ca26111ba565b5b02179055507fbc3f77ce3a281e615c85054a5814e59703e2ee0cf33782f46911e0888d4c394c6000600133604051610cdd939291906119f2565b60405180910390a15050565b600060028281548110610cff57610cfe611887565b5b9060005260206000209060060201905060006004811115610d2357610d226111ba565b5b8160050160009054906101000a900460ff166004811115610d4757610d466111ba565b5b14610d87576040517f08c379a0000000000000000000000000000000000000000000000000000000008152600401610d7e90611e56565b60405180910390fd5b60028160050160006101000a81548160ff02191690836004811115610daf57610dae6111ba565b5b02179055507fbc3f77ce3a281e615c85054a5814e59703e2ee0cf33782f46911e0888d4c394c6000600133604051610de993929190611ec2565b60405180910390a15050565b6040518060c00160405280600073ffffffffffffffffffffffffffffffffffffffff1681526020016060815260200160608152602001606081526020016000815260200160006004811115610e4d57610e4c6111ba565b5b81525090565b6000604051905090565b600080fd5b600080fd5b600080fd5b600080fd5b6000601f19601f8301169050919050565b7f4e487b7100000000000000000000000000000000000000000000000000000000600052604160045260246000fd5b610eba82610e71565b810181811067ffffffffffffffff82111715610ed957610ed8610e82565b5b80604052505050565b6000610eec610e53565b9050610ef88282610eb1565b919050565b600067ffffffffffffffff821115610f1857610f17610e82565b5b610f2182610e71565b9050602081019050919050565b82818337600083830152505050565b6000610f50610f4b84610efd565b610ee2565b905082815260208101848484011115610f6c57610f6b610e6c565b5b610f77848285610f2e565b509392505050565b600082601f830112610f9457610f93610e67565b5b8135610fa4848260208601610f3d565b91505092915050565b600080600060608486031215610fc657610fc5610e5d565b5b600084013567ffffffffffffffff811115610fe457610fe3610e62565b5b610ff086828701610f7f565b935050602084013567ffffffffffffffff81111561101157611010610e62565b5b61101d86828701610f7f565b925050604084013567ffffffffffffffff81111561103e5761103d610e62565b5b61104a86828701610f7f565b9150509250925092565b6000819050919050565b61106781611054565b82525050565b6000602082019050611082600083018461105e565b92915050565b61109181611054565b811461109c57600080fd5b50565b6000813590506110ae81611088565b92915050565b6000602082840312156110ca576110c9610e5d565b5b60006110d88482850161109f565b91505092915050565b600073ffffffffffffffffffffffffffffffffffffffff82169050919050565b600061110c826110e1565b9050919050565b61111c81611101565b82525050565b600081519050919050565b600082825260208201905092915050565b60005b8381101561115c578082015181840152602081019050611141565b60008484015250505050565b600061117382611122565b61117d818561112d565b935061118d81856020860161113e565b61119681610e71565b840191505092915050565b6000819050919050565b6111b4816111a1565b82525050565b7f4e487b7100000000000000000000000000000000000000000000000000000000600052602160045260246000fd5b600581106111fa576111f96111ba565b5b50565b600081905061120b826111e9565b919050565b600061121b826111fd565b9050919050565b61122b81611210565b82525050565b600060c0820190506112466000830189611113565b81810360208301526112588188611168565b9050818103604083015261126c8187611168565b905081810360608301526112808186611168565b905061128f60808301856111ab565b61129c60a0830184611222565b979650505050505050565b600080fd5b600080fd5b60008083601f8401126112c7576112c6610e67565b5b8235905067ffffffffffffffff8111156112e4576112e36112a7565b5b602083019150836001820283011115611300576112ff6112ac565b5b9250929050565b6000806020838503121561131e5761131d610e5d565b5b600083013567ffffffffffffffff81111561133c5761133b610e62565b5b611348858286016112b1565b92509250509250929050565b600081519050919050565b600082825260208201905092915050565b6000819050602082019050919050565b61138981611101565b82525050565b600082825260208201905092915050565b60006113ab82611122565b6113b5818561138f565b93506113c581856020860161113e565b6113ce81610e71565b840191505092915050565b6113e2816111a1565b82525050565b6113f181611210565b82525050565b600060c08301600083015161140f6000860182611380565b506020830151848203602086015261142782826113a0565b9150506040830151848203604086015261144182826113a0565b9150506060830151848203606086015261145b82826113a0565b915050608083015161147060808601826113d9565b5060a083015161148360a08601826113e8565b508091505092915050565b600061149a83836113f7565b905092915050565b6000602082019050919050565b60006114ba82611354565b6114c4818561135f565b9350836020820285016114d685611370565b8060005b8581101561151257848403895281516114f3858261148e565b94506114fe836114a2565b925060208a019950506001810190506114da565b50829750879550505050505092915050565b6000602082019050818103600083015261153e81846114af565b905092915050565b7f4e487b7100000000000000000000000000000000000000000000000000000000600052602260045260246000fd5b6000600282049050600182168061158d57607f821691505b6020821081036115a05761159f611546565b5b50919050565b60008190508160005260206000209050919050565b60006020601f8301049050919050565b600082821b905092915050565b6000600883026116087fffffffffffffffffffffffffffffffffffffffffffffffffffffffffffffffff826115cb565b61161286836115cb565b95508019841693508086168417925050509392505050565b6000819050919050565b600061164f61164a61164584611054565b61162a565b611054565b9050919050565b6000819050919050565b61166983611634565b61167d61167582611656565b8484546115d8565b825550505050565b600090565b611692611685565b61169d818484611660565b505050565b5b818110156116c1576116b660008261168a565b6001810190506116a3565b5050565b601f821115611706576116d7816115a6565b6116e0846115bb565b810160208510156116ef578190505b6117036116fb856115bb565b8301826116a2565b50505b505050565b600082821c905092915050565b60006117296000198460080261170b565b1980831691505092915050565b60006117428383611718565b9150826002028217905092915050565b61175b82611122565b67ffffffffffffffff81111561177457611773610e82565b5b61177e8254611575565b6117898282856116c5565b600060209050601f8311600181146117bc57600084156117aa578287015190505b6117b48582611736565b86555061181c565b601f1984166117ca866115a6565b60005b828110156117f2578489015182556001820191506020850194506020810190506117cd565b8683101561180f578489015161180b601f891682611718565b8355505b6001600288020188555050505b505050505050565b7f4e487b7100000000000000000000000000000000000000000000000000000000600052601160045260246000fd5b600061185e82611054565b915061186983611054565b925082820390508181111561188157611880611824565b5b92915050565b7f4e487b7100000000000000000000000000000000000000000000000000000000600052603260045260246000fd5b7f5469636b6574206d75737420626520696e20446f696e67207374617475730000600082015250565b60006118ec601e8361112d565b91506118f7826118b6565b602082019050919050565b6000602082019050818103600083015261191b816118df565b9050919050565b6000815461192f81611575565b611939818661112d565b94506001821660008114611954576001811461196a5761199d565b60ff19831686528115156020028601935061199d565b611973856115a6565b60005b8381101561199557815481890152600182019150602081019050611976565b808801955050505b50505092915050565b7f5469636b657446696e6973686564000000000000000000000000000000000000600082015250565b60006119dc600e8361112d565b91506119e7826119a6565b602082019050919050565b60006080820190508181036000830152611a0c8186611922565b90508181036020830152611a208185611922565b90508181036040830152611a33816119cf565b9050611a426060830184611113565b949350505050565b7f5469636b6574206d75737420626520696e2050726f706f73616c20737461747560008201527f7300000000000000000000000000000000000000000000000000000000000000602082015250565b6000611aa660218361112d565b9150611ab182611a4a565b604082019050919050565b60006020820190508181036000830152611ad581611a99565b9050919050565b7f5469636b65745374617274656400000000000000000000000000000000000000600082015250565b6000611b12600d8361112d565b9150611b1d82611adc565b602082019050919050565b60006080820190508181036000830152611b428186611922565b90508181036020830152611b568185611922565b90508181036040830152611b6981611b05565b9050611b786060830184611113565b949350505050565b600081905092915050565b6000611b978385611b80565b9350611ba4838584610f2e565b82840190509392505050565b6000611bbd828486611b8b565b91508190509392505050565b60008190508160005260206000209050919050565b60008154611beb81611575565b611bf58186611b80565b94506001821660008114611c105760018114611c2557611c58565b60ff1983168652811515820286019350611c58565b611c2e85611bc9565b60005b83811015611c5057815481890152600182019150602081019050611c31565b838801955050505b50505092915050565b6000611c6d8284611bde565b915081905092915050565b6000611c8382611054565b91507fffffffffffffffffffffffffffffffffffffffffffffffffffffffffffffffff8203611cb557611cb4611824565b5b600182019050919050565b7f5469636b6574206d7573742062652066696e69736820627920637573746f6d6560008201527f7200000000000000000000000000000000000000000000000000000000000000602082015250565b6000611d1c60218361112d565b9150611d2782611cc0565b604082019050919050565b60006020820190508181036000830152611d4b81611d0f565b9050919050565b7f5469636b6574206d75737420626520696e20646f6e652062792074686520657860008201527f7065727400000000000000000000000000000000000000000000000000000000602082015250565b6000611dae60248361112d565b9150611db982611d52565b604082019050919050565b60006020820190508181036000830152611ddd81611da1565b9050919050565b7f596f752063616e27742063616e63656c20746865207469636b6574206966207360008201527f7461727465640000000000000000000000000000000000000000000000000000602082015250565b6000611e4060268361112d565b9150611e4b82611de4565b604082019050919050565b60006020820190508181036000830152611e6f81611e33565b9050919050565b7f5469636b65744163636570746564000000000000000000000000000000000000600082015250565b6000611eac600e8361112d565b9150611eb782611e76565b602082019050919050565b60006080820190508181036000830152611edc8186611922565b90508181036020830152611ef08185611922565b90508181036040830152611f0381611e9f565b9050611f126060830184611113565b94935050505056fea264697066735822122077c1661d2b96a01f89cfff641df29b45bfb68210771c8ff90858594f6e4db3eb64736f6c63430008130033",
  "immutableReferences": {},
  "source": "// SPDX-License-Identifier: MIT\r\npragma solidity 0.8.19;\r\n\r\ncontract TicketMarketplace {\r\n    enum TicketStatus {\r\n        Proposal,\r\n        Doing,\r\n        Cancel,\r\n        ExpertDone,\r\n        CustDone\r\n    }\r\n\r\n    struct Ticket {\r\n        address customer;\r\n        string worker;\r\n        string description;\r\n        string tag;\r\n        int rate;\r\n        TicketStatus status;\r\n    }\r\n\r\n    string internal ApplicationName = \"TicketMarketplace\";\r\n    string internal WorkflowName = \"TicketMarketplace\";\r\n\r\n    event ContractCreated(\r\n        string applicationName,\r\n        string workflowName,\r\n        address originatingAddress\r\n    );\r\n    event ContractUpdated(\r\n        string applicationName,\r\n        string workflowName,\r\n        string action,\r\n        address originatingAddress\r\n    );\r\n\r\n    Ticket[] public tickets;\r\n\r\n    function createTicket(\r\n        string memory tags,\r\n        string memory _description,\r\n        string memory target\r\n    ) public returns (uint256) {\r\n        tickets.push(\r\n            Ticket({\r\n                customer: msg.sender,\r\n                worker: target,\r\n                description: _description,\r\n                status: TicketStatus.Proposal,\r\n                rate: -1,\r\n                tag: tags\r\n            })\r\n        );\r\n        return tickets.length - 1;\r\n    }\r\n\r\n    function cancelTicket(uint256 ticketIndex) public {\r\n        Ticket storage ticket = tickets[ticketIndex];\r\n        require(\r\n            ticket.status == TicketStatus.Proposal,\r\n            \"You can't cancel the ticket if started\"\r\n        );\r\n        ticket.status = TicketStatus.Cancel;\r\n        emit ContractUpdated(\r\n            ApplicationName,\r\n            WorkflowName,\r\n            \"TicketAccepted\",\r\n            msg.sender\r\n        );\r\n    }\r\n\r\n    function startTicket(uint256 ticketIndex) public {\r\n        Ticket storage ticket = tickets[ticketIndex];\r\n        // require(\r\n        //     abi.encodePacked(msg.sender) == keccak256(bytes(ticket.worker)),\r\n        //     \"Sender can't start they own ticket\"\r\n        // );\r\n        require(\r\n            ticket.status == TicketStatus.Proposal,\r\n            \"Ticket must be in Proposal status\"\r\n        );\r\n        ticket.status = TicketStatus.Doing;\r\n        emit ContractUpdated(\r\n            ApplicationName,\r\n            WorkflowName,\r\n            \"TicketStarted\",\r\n            msg.sender\r\n        );\r\n    }\r\n\r\n    function expertFinishTicket(uint256 ticketIndex) public {\r\n        Ticket storage ticket = tickets[ticketIndex];\r\n        // require(\r\n        //     msg.sender == keccak256(ticket.worker),\r\n        //     \"Only the assigned worker can complete the ticket\"\r\n        // );\r\n        require(\r\n            ticket.status == TicketStatus.Doing,\r\n            \"Ticket must be in Doing status\"\r\n        );\r\n        ticket.status = TicketStatus.ExpertDone;\r\n        emit ContractUpdated(\r\n            ApplicationName,\r\n            WorkflowName,\r\n            \"TicketFinished\",\r\n            msg.sender\r\n        );\r\n    }\r\n\r\n\r\n    function customerDoneTicket(uint256 ticketIndex) public {\r\n        Ticket storage ticket = tickets[ticketIndex];\r\n        require(\r\n            msg.sender == ticket.customer,\r\n            \"Ticket must be finish by customer\"\r\n        );\r\n        require(\r\n            ticket.status == TicketStatus.ExpertDone,\r\n            \"Ticket must be in done by the expert\"\r\n        );\r\n        ticket.status = TicketStatus.CustDone;\r\n        emit ContractUpdated(\r\n            ApplicationName,\r\n            WorkflowName,\r\n            \"TicketFinished\",\r\n            msg.sender\r\n        );\r\n    }\r\n\r\n    function getTicketsByAddress(\r\n        string calldata addressString\r\n    ) public view returns (Ticket[] memory) {\r\n\r\n    \r\n        uint256 count = 0;\r\n        for (uint256 i = 0; i < tickets.length; i++) {\r\n            if (keccak256(bytes(tickets[i].worker)) == keccak256(bytes(addressString))) {\r\n                count++;\r\n            }\r\n        }\r\n\r\n        Ticket[] memory filteredItems = new Ticket[](count);\r\n        uint256 index = 0;\r\n        for (uint256 i = 0; i < tickets.length; i++) {\r\n            if (keccak256(bytes(tickets[i].worker)) == keccak256(bytes(addressString))) {\r\n                filteredItems[index] = tickets[i];\r\n                index++;\r\n            }\r\n        }\r\n\r\n        return filteredItems;\r\n    }\r\n}\r\n",
  "sourcePath": "D:\\PERSONAL\\blc-fe\\contracts\\TicketMarketplace.sol",
  "compiler": {
    "name": "solc",
    "version": "0.8.19+commit.7dd6d404.Emscripten.clang"
  },
  "schemaVersion": "3.4.14",
  "updatedAt": "2023-06-19T17:12:32.681Z",
  "devdoc": {
    "kind": "dev",
    "methods": {},
    "version": 1
  },
  "userdoc": {
    "kind": "user",
    "methods": {},
    "version": 1
  }
}