{
  "contractName": "TicketMarketplace",
  "abi": [
    {
      "anonymous": false,
      "inputs": [
        {
          "indexed": false,
          "internalType": "string",
          "name": "applicationName",
          "type": "string"
        },
        {
          "indexed": false,
          "internalType": "string",
          "name": "workflowName",
          "type": "string"
        },
        {
          "indexed": false,
          "internalType": "address",
          "name": "originatingAddress",
          "type": "address"
        }
      ],
      "name": "ContractCreated",
      "type": "event"
    },
    {
      "anonymous": false,
      "inputs": [
        {
          "indexed": false,
          "internalType": "string",
          "name": "applicationName",
          "type": "string"
        },
        {
          "indexed": false,
          "internalType": "string",
          "name": "workflowName",
          "type": "string"
        },
        {
          "indexed": false,
          "internalType": "string",
          "name": "action",
          "type": "string"
        },
        {
          "indexed": false,
          "internalType": "address",
          "name": "originatingAddress",
          "type": "address"
        }
      ],
      "name": "ContractUpdated",
      "type": "event"
    },
    {
      "inputs": [
        {
          "internalType": "uint256",
          "name": "",
          "type": "uint256"
        }
      ],
      "name": "tickets",
      "outputs": [
        {
          "internalType": "address",
          "name": "customer",
          "type": "address"
        },
        {
          "internalType": "string",
          "name": "worker",
          "type": "string"
        },
        {
          "internalType": "string",
          "name": "title",
          "type": "string"
        },
        {
          "internalType": "string",
          "name": "description",
          "type": "string"
        },
        {
          "internalType": "string",
          "name": "tag",
          "type": "string"
        },
        {
          "internalType": "int256",
          "name": "rate",
          "type": "int256"
        },
        {
          "internalType": "enum TicketMarketplace.TicketStatus",
          "name": "status",
          "type": "uint8"
        }
      ],
      "stateMutability": "view",
      "type": "function",
      "constant": true
    },
    {
      "inputs": [
        {
          "internalType": "string",
          "name": "title",
          "type": "string"
        },
        {
          "internalType": "string",
          "name": "tags",
          "type": "string"
        },
        {
          "internalType": "string",
          "name": "_description",
          "type": "string"
        },
        {
          "internalType": "string",
          "name": "target",
          "type": "string"
        }
      ],
      "name": "createTicket",
      "outputs": [
        {
          "internalType": "uint256",
          "name": "",
          "type": "uint256"
        }
      ],
      "stateMutability": "nonpayable",
      "type": "function"
    },
    {
      "inputs": [
        {
          "internalType": "uint256",
          "name": "ticketIndex",
          "type": "uint256"
        }
      ],
      "name": "cancelTicket",
      "outputs": [],
      "stateMutability": "nonpayable",
      "type": "function"
    },
    {
      "inputs": [
        {
          "internalType": "uint256",
          "name": "ticketIndex",
          "type": "uint256"
        }
      ],
      "name": "startTicket",
      "outputs": [],
      "stateMutability": "nonpayable",
      "type": "function"
    },
    {
      "inputs": [
        {
          "internalType": "uint256",
          "name": "ticketIndex",
          "type": "uint256"
        }
      ],
      "name": "expertFinishTicket",
      "outputs": [],
      "stateMutability": "nonpayable",
      "type": "function"
    },
    {
      "inputs": [
        {
          "internalType": "uint256",
          "name": "ticketIndex",
          "type": "uint256"
        }
      ],
      "name": "customerDoneTicket",
      "outputs": [],
      "stateMutability": "nonpayable",
      "type": "function"
    },
    {
      "inputs": [
        {
          "internalType": "string",
          "name": "addressString",
          "type": "string"
        }
      ],
      "name": "getTicketsByAddress",
      "outputs": [
        {
          "components": [
            {
              "internalType": "address",
              "name": "customer",
              "type": "address"
            },
            {
              "internalType": "string",
              "name": "worker",
              "type": "string"
            },
            {
              "internalType": "string",
              "name": "title",
              "type": "string"
            },
            {
              "internalType": "string",
              "name": "description",
              "type": "string"
            },
            {
              "internalType": "string",
              "name": "tag",
              "type": "string"
            },
            {
              "internalType": "int256",
              "name": "rate",
              "type": "int256"
            },
            {
              "internalType": "enum TicketMarketplace.TicketStatus",
              "name": "status",
              "type": "uint8"
            }
          ],
          "internalType": "struct TicketMarketplace.Ticket[]",
          "name": "",
          "type": "tuple[]"
        }
      ],
      "stateMutability": "view",
      "type": "function",
      "constant": true
    }
  ],
  "bytecode": "0x60806040526040518060400160405280601181526020017f5469636b65744d61726b6574706c616365000000000000000000000000000000815250600090816200004a919062000320565b506040518060400160405280601181526020017f5469636b65744d61726b6574706c6163650000000000000000000000000000008152506001908162000091919062000320565b503480156200009f57600080fd5b5062000407565b600081519050919050565b7f4e487b7100000000000000000000000000000000000000000000000000000000600052604160045260246000fd5b7f4e487b7100000000000000000000000000000000000000000000000000000000600052602260045260246000fd5b600060028204905060018216806200012857607f821691505b6020821081036200013e576200013d620000e0565b5b50919050565b60008190508160005260206000209050919050565b60006020601f8301049050919050565b600082821b905092915050565b600060088302620001a87fffffffffffffffffffffffffffffffffffffffffffffffffffffffffffffffff8262000169565b620001b4868362000169565b95508019841693508086168417925050509392505050565b6000819050919050565b6000819050919050565b600062000201620001fb620001f584620001cc565b620001d6565b620001cc565b9050919050565b6000819050919050565b6200021d83620001e0565b620002356200022c8262000208565b84845462000176565b825550505050565b600090565b6200024c6200023d565b6200025981848462000212565b505050565b5b8181101562000281576200027560008262000242565b6001810190506200025f565b5050565b601f821115620002d0576200029a8162000144565b620002a58462000159565b81016020851015620002b5578190505b620002cd620002c48562000159565b8301826200025e565b50505b505050565b600082821c905092915050565b6000620002f560001984600802620002d5565b1980831691505092915050565b6000620003108383620002e2565b9150826002028217905092915050565b6200032b82620000a6565b67ffffffffffffffff811115620003475762000346620000b1565b5b6200035382546200010f565b6200036082828562000285565b600060209050601f83116001811462000398576000841562000383578287015190505b6200038f858262000302565b865550620003ff565b601f198416620003a88662000144565b60005b82811015620003d257848901518255600182019150602085019450602081019050620003ab565b86831015620003f25784890151620003ee601f891682620002e2565b8355505b6001600288020188555050505b505050505050565b6120f480620004176000396000f3fe608060405234801561001057600080fd5b506004361061007d5760003560e01c806394baafc01161005b57806394baafc0146100f0578063988879d414610120578063a1af53c614610150578063ee355b1f1461016c5761007d565b80634a404c131461008257806350b447121461009e5780635a388611146100d4575b600080fd5b61009c60048036038101906100979190610fe2565b610188565b005b6100b860048036038101906100b39190610fe2565b610294565b6040516100cb9796959493929190611170565b60405180910390f35b6100ee60048036038101906100e99190610fe2565b610533565b005b61010a60048036038101906101059190611260565b61063f565b6040516101179190611497565b60405180910390f35b61013a600480360381019061013591906115e9565b610ae9565b60405161014791906116cf565b60405180910390f35b61016a60048036038101906101659190610fe2565b610c89565b005b61018660048036038101906101819190610fe2565b610e27565b005b60006002828154811061019e5761019d6116ea565b5b90600052602060002090600702019050600160048111156101c2576101c16110f9565b5b8160060160009054906101000a900460ff1660048111156101e6576101e56110f9565b5b14610226576040517f08c379a000000000000000000000000000000000000000000000000000000000815260040161021d90611765565b60405180910390fd5b60038160060160006101000a81548160ff0219169083600481111561024e5761024d6110f9565b5b02179055507fbc3f77ce3a281e615c85054a5814e59703e2ee0cf33782f46911e0888d4c394c6000600133604051610288939291906118ca565b60405180910390a15050565b600281815481106102a457600080fd5b90600052602060002090600702016000915090508060000160009054906101000a900473ffffffffffffffffffffffffffffffffffffffff16908060010180546102ed906117b4565b80601f0160208091040260200160405190810160405280929190818152602001828054610319906117b4565b80156103665780601f1061033b57610100808354040283529160200191610366565b820191906000526020600020905b81548152906001019060200180831161034957829003601f168201915b50505050509080600201805461037b906117b4565b80601f01602080910402602001604051908101604052809291908181526020018280546103a7906117b4565b80156103f45780601f106103c9576101008083540402835291602001916103f4565b820191906000526020600020905b8154815290600101906020018083116103d757829003601f168201915b505050505090806003018054610409906117b4565b80601f0160208091040260200160405190810160405280929190818152602001828054610435906117b4565b80156104825780601f1061045757610100808354040283529160200191610482565b820191906000526020600020905b81548152906001019060200180831161046557829003601f168201915b505050505090806004018054610497906117b4565b80601f01602080910402602001604051908101604052809291908181526020018280546104c3906117b4565b80156105105780601f106104e557610100808354040283529160200191610510565b820191906000526020600020905b8154815290600101906020018083116104f357829003601f168201915b5050505050908060050154908060060160009054906101000a900460ff16905087565b600060028281548110610549576105486116ea565b5b906000526020600020906007020190506000600481111561056d5761056c6110f9565b5b8160060160009054906101000a900460ff166004811115610591576105906110f9565b5b146105d1576040517f08c379a00000000000000000000000000000000000000000000000000000000081526004016105c890611994565b60405180910390fd5b60018160060160006101000a81548160ff021916908360048111156105f9576105f86110f9565b5b02179055507fbc3f77ce3a281e615c85054a5814e59703e2ee0cf33782f46911e0888d4c394c600060013360405161063393929190611a00565b60405180910390a15050565b60606000805b6002805490508110156106cb578484604051610662929190611a88565b60405180910390206002828154811061067e5761067d6116ea565b5b906000526020600020906007020160010160405161069c9190611b39565b6040518091039020036106b85781806106b490611b7f565b9250505b80806106c390611b7f565b915050610645565b5060008167ffffffffffffffff8111156106e8576106e76114be565b5b60405190808252806020026020018201604052801561072157816020015b61070e610f33565b8152602001906001900390816107065790505b5090506000805b600280549050811015610adc578686604051610745929190611a88565b604051809103902060028281548110610761576107606116ea565b5b906000526020600020906007020160010160405161077f9190611b39565b604051809103902003610ac957600281815481106107a05761079f6116ea565b5b90600052602060002090600702016040518060e00160405290816000820160009054906101000a900473ffffffffffffffffffffffffffffffffffffffff1673ffffffffffffffffffffffffffffffffffffffff1673ffffffffffffffffffffffffffffffffffffffff16815260200160018201805461081f906117b4565b80601f016020809104026020016040519081016040528092919081815260200182805461084b906117b4565b80156108985780601f1061086d57610100808354040283529160200191610898565b820191906000526020600020905b81548152906001019060200180831161087b57829003601f168201915b505050505081526020016002820180546108b1906117b4565b80601f01602080910402602001604051908101604052809291908181526020018280546108dd906117b4565b801561092a5780601f106108ff5761010080835404028352916020019161092a565b820191906000526020600020905b81548152906001019060200180831161090d57829003601f168201915b50505050508152602001600382018054610943906117b4565b80601f016020809104026020016040519081016040528092919081815260200182805461096f906117b4565b80156109bc5780601f10610991576101008083540402835291602001916109bc565b820191906000526020600020905b81548152906001019060200180831161099f57829003601f168201915b505050505081526020016004820180546109d5906117b4565b80601f0160208091040260200160405190810160405280929190818152602001828054610a01906117b4565b8015610a4e5780601f10610a2357610100808354040283529160200191610a4e565b820191906000526020600020905b815481529060010190602001808311610a3157829003601f168201915b50505050508152602001600582015481526020016006820160009054906101000a900460ff166004811115610a8657610a856110f9565b5b6004811115610a9857610a976110f9565b5b81525050838381518110610aaf57610aae6116ea565b5b60200260200101819052508180610ac590611b7f565b9250505b8080610ad490611b7f565b915050610728565b5081935050505092915050565b600060026040518060e001604052803373ffffffffffffffffffffffffffffffffffffffff1681526020018481526020018781526020018581526020018681526020017fffffffffffffffffffffffffffffffffffffffffffffffffffffffffffffffff815260200160006004811115610b6657610b656110f9565b5b815250908060018154018082558091505060019003906000526020600020906007020160009091909190915060008201518160000160006101000a81548173ffffffffffffffffffffffffffffffffffffffff021916908373ffffffffffffffffffffffffffffffffffffffff1602179055506020820151816001019081610bee9190611d5e565b506040820151816002019081610c049190611d5e565b506060820151816003019081610c1a9190611d5e565b506080820151816004019081610c309190611d5e565b5060a0820151816005015560c08201518160060160006101000a81548160ff02191690836004811115610c6657610c656110f9565b5b021790555050506001600280549050610c7f9190611e30565b9050949350505050565b600060028281548110610c9f57610c9e6116ea565b5b906000526020600020906007020190508060000160009054906101000a900473ffffffffffffffffffffffffffffffffffffffff1673ffffffffffffffffffffffffffffffffffffffff163373ffffffffffffffffffffffffffffffffffffffff1614610d41576040517f08c379a0000000000000000000000000000000000000000000000000000000008152600401610d3890611ed6565b60405180910390fd5b60036004811115610d5557610d546110f9565b5b8160060160009054906101000a900460ff166004811115610d7957610d786110f9565b5b14610db9576040517f08c379a0000000000000000000000000000000000000000000000000000000008152600401610db090611f68565b60405180910390fd5b60048160060160006101000a81548160ff02191690836004811115610de157610de06110f9565b5b02179055507fbc3f77ce3a281e615c85054a5814e59703e2ee0cf33782f46911e0888d4c394c6000600133604051610e1b939291906118ca565b60405180910390a15050565b600060028281548110610e3d57610e3c6116ea565b5b9060005260206000209060070201905060006004811115610e6157610e606110f9565b5b8160060160009054906101000a900460ff166004811115610e8557610e846110f9565b5b14610ec5576040517f08c379a0000000000000000000000000000000000000000000000000000000008152600401610ebc90611ffa565b60405180910390fd5b60028160060160006101000a81548160ff02191690836004811115610eed57610eec6110f9565b5b02179055507fbc3f77ce3a281e615c85054a5814e59703e2ee0cf33782f46911e0888d4c394c6000600133604051610f2793929190612066565b60405180910390a15050565b6040518060e00160405280600073ffffffffffffffffffffffffffffffffffffffff168152602001606081526020016060815260200160608152602001606081526020016000815260200160006004811115610f9257610f916110f9565b5b81525090565b6000604051905090565b600080fd5b600080fd5b6000819050919050565b610fbf81610fac565b8114610fca57600080fd5b50565b600081359050610fdc81610fb6565b92915050565b600060208284031215610ff857610ff7610fa2565b5b600061100684828501610fcd565b91505092915050565b600073ffffffffffffffffffffffffffffffffffffffff82169050919050565b600061103a8261100f565b9050919050565b61104a8161102f565b82525050565b600081519050919050565b600082825260208201905092915050565b60005b8381101561108a57808201518184015260208101905061106f565b60008484015250505050565b6000601f19601f8301169050919050565b60006110b282611050565b6110bc818561105b565b93506110cc81856020860161106c565b6110d581611096565b840191505092915050565b6000819050919050565b6110f3816110e0565b82525050565b7f4e487b7100000000000000000000000000000000000000000000000000000000600052602160045260246000fd5b60058110611139576111386110f9565b5b50565b600081905061114a82611128565b919050565b600061115a8261113c565b9050919050565b61116a8161114f565b82525050565b600060e082019050611185600083018a611041565b818103602083015261119781896110a7565b905081810360408301526111ab81886110a7565b905081810360608301526111bf81876110a7565b905081810360808301526111d381866110a7565b90506111e260a08301856110ea565b6111ef60c0830184611161565b98975050505050505050565b600080fd5b600080fd5b600080fd5b60008083601f8401126112205761121f6111fb565b5b8235905067ffffffffffffffff81111561123d5761123c611200565b5b60208301915083600182028301111561125957611258611205565b5b9250929050565b6000806020838503121561127757611276610fa2565b5b600083013567ffffffffffffffff81111561129557611294610fa7565b5b6112a18582860161120a565b92509250509250929050565b600081519050919050565b600082825260208201905092915050565b6000819050602082019050919050565b6112e28161102f565b82525050565b600082825260208201905092915050565b600061130482611050565b61130e81856112e8565b935061131e81856020860161106c565b61132781611096565b840191505092915050565b61133b816110e0565b82525050565b61134a8161114f565b82525050565b600060e08301600083015161136860008601826112d9565b506020830151848203602086015261138082826112f9565b9150506040830151848203604086015261139a82826112f9565b915050606083015184820360608601526113b482826112f9565b915050608083015184820360808601526113ce82826112f9565b91505060a08301516113e360a0860182611332565b5060c08301516113f660c0860182611341565b508091505092915050565b600061140d8383611350565b905092915050565b6000602082019050919050565b600061142d826112ad565b61143781856112b8565b935083602082028501611449856112c9565b8060005b8581101561148557848403895281516114668582611401565b945061147183611415565b925060208a0199505060018101905061144d565b50829750879550505050505092915050565b600060208201905081810360008301526114b18184611422565b905092915050565b600080fd5b7f4e487b7100000000000000000000000000000000000000000000000000000000600052604160045260246000fd5b6114f682611096565b810181811067ffffffffffffffff82111715611515576115146114be565b5b80604052505050565b6000611528610f98565b905061153482826114ed565b919050565b600067ffffffffffffffff821115611554576115536114be565b5b61155d82611096565b9050602081019050919050565b82818337600083830152505050565b600061158c61158784611539565b61151e565b9050828152602081018484840111156115a8576115a76114b9565b5b6115b384828561156a565b509392505050565b600082601f8301126115d0576115cf6111fb565b5b81356115e0848260208601611579565b91505092915050565b6000806000806080858703121561160357611602610fa2565b5b600085013567ffffffffffffffff81111561162157611620610fa7565b5b61162d878288016115bb565b945050602085013567ffffffffffffffff81111561164e5761164d610fa7565b5b61165a878288016115bb565b935050604085013567ffffffffffffffff81111561167b5761167a610fa7565b5b611687878288016115bb565b925050606085013567ffffffffffffffff8111156116a8576116a7610fa7565b5b6116b4878288016115bb565b91505092959194509250565b6116c981610fac565b82525050565b60006020820190506116e460008301846116c0565b92915050565b7f4e487b7100000000000000000000000000000000000000000000000000000000600052603260045260246000fd5b7f5469636b6574206d75737420626520696e20446f696e67207374617475730000600082015250565b600061174f601e8361105b565b915061175a82611719565b602082019050919050565b6000602082019050818103600083015261177e81611742565b9050919050565b7f4e487b7100000000000000000000000000000000000000000000000000000000600052602260045260246000fd5b600060028204905060018216806117cc57607f821691505b6020821081036117df576117de611785565b5b50919050565b60008190508160005260206000209050919050565b60008154611807816117b4565b611811818661105b565b9450600182166000811461182c576001811461184257611875565b60ff198316865281151560200286019350611875565b61184b856117e5565b60005b8381101561186d5781548189015260018201915060208101905061184e565b808801955050505b50505092915050565b7f5469636b657446696e6973686564000000000000000000000000000000000000600082015250565b60006118b4600e8361105b565b91506118bf8261187e565b602082019050919050565b600060808201905081810360008301526118e481866117fa565b905081810360208301526118f881856117fa565b9050818103604083015261190b816118a7565b905061191a6060830184611041565b949350505050565b7f5469636b6574206d75737420626520696e2050726f706f73616c20737461747560008201527f7300000000000000000000000000000000000000000000000000000000000000602082015250565b600061197e60218361105b565b915061198982611922565b604082019050919050565b600060208201905081810360008301526119ad81611971565b9050919050565b7f5469636b65745374617274656400000000000000000000000000000000000000600082015250565b60006119ea600d8361105b565b91506119f5826119b4565b602082019050919050565b60006080820190508181036000830152611a1a81866117fa565b90508181036020830152611a2e81856117fa565b90508181036040830152611a41816119dd565b9050611a506060830184611041565b949350505050565b600081905092915050565b6000611a6f8385611a58565b9350611a7c83858461156a565b82840190509392505050565b6000611a95828486611a63565b91508190509392505050565b60008190508160005260206000209050919050565b60008154611ac3816117b4565b611acd8186611a58565b94506001821660008114611ae85760018114611afd57611b30565b60ff1983168652811515820286019350611b30565b611b0685611aa1565b60005b83811015611b2857815481890152600182019150602081019050611b09565b838801955050505b50505092915050565b6000611b458284611ab6565b915081905092915050565b7f4e487b7100000000000000000000000000000000000000000000000000000000600052601160045260246000fd5b6000611b8a82610fac565b91507fffffffffffffffffffffffffffffffffffffffffffffffffffffffffffffffff8203611bbc57611bbb611b50565b5b600182019050919050565b60006020601f8301049050919050565b600082821b905092915050565b600060088302611c147fffffffffffffffffffffffffffffffffffffffffffffffffffffffffffffffff82611bd7565b611c1e8683611bd7565b95508019841693508086168417925050509392505050565b6000819050919050565b6000611c5b611c56611c5184610fac565b611c36565b610fac565b9050919050565b6000819050919050565b611c7583611c40565b611c89611c8182611c62565b848454611be4565b825550505050565b600090565b611c9e611c91565b611ca9818484611c6c565b505050565b5b81811015611ccd57611cc2600082611c96565b600181019050611caf565b5050565b601f821115611d1257611ce3816117e5565b611cec84611bc7565b81016020851015611cfb578190505b611d0f611d0785611bc7565b830182611cae565b50505b505050565b600082821c905092915050565b6000611d3560001984600802611d17565b1980831691505092915050565b6000611d4e8383611d24565b9150826002028217905092915050565b611d6782611050565b67ffffffffffffffff811115611d8057611d7f6114be565b5b611d8a82546117b4565b611d95828285611cd1565b600060209050601f831160018114611dc85760008415611db6578287015190505b611dc08582611d42565b865550611e28565b601f198416611dd6866117e5565b60005b82811015611dfe57848901518255600182019150602085019450602081019050611dd9565b86831015611e1b5784890151611e17601f891682611d24565b8355505b6001600288020188555050505b505050505050565b6000611e3b82610fac565b9150611e4683610fac565b9250828203905081811115611e5e57611e5d611b50565b5b92915050565b7f5469636b6574206d7573742062652066696e69736820627920637573746f6d6560008201527f7200000000000000000000000000000000000000000000000000000000000000602082015250565b6000611ec060218361105b565b9150611ecb82611e64565b604082019050919050565b60006020820190508181036000830152611eef81611eb3565b9050919050565b7f5469636b6574206d75737420626520696e20646f6e652062792074686520657860008201527f7065727400000000000000000000000000000000000000000000000000000000602082015250565b6000611f5260248361105b565b9150611f5d82611ef6565b604082019050919050565b60006020820190508181036000830152611f8181611f45565b9050919050565b7f596f752063616e27742063616e63656c20746865207469636b6574206966207360008201527f7461727465640000000000000000000000000000000000000000000000000000602082015250565b6000611fe460268361105b565b9150611fef82611f88565b604082019050919050565b6000602082019050818103600083015261201381611fd7565b9050919050565b7f5469636b65744163636570746564000000000000000000000000000000000000600082015250565b6000612050600e8361105b565b915061205b8261201a565b602082019050919050565b6000608082019050818103600083015261208081866117fa565b9050818103602083015261209481856117fa565b905081810360408301526120a781612043565b90506120b66060830184611041565b94935050505056fea26469706673582212207b6a4c0039fdc0d67f1e990db025797d329ea99dd5ea911655aa3ed2d649064964736f6c63430008130033",
  "immutableReferences": {},
  "source": "// SPDX-License-Identifier: MIT\r\npragma solidity 0.8.19;\r\n\r\ncontract TicketMarketplace {\r\n    enum TicketStatus {\r\n        Proposal,\r\n        Doing,\r\n        Cancel,\r\n        ExpertDone,\r\n        CustDone\r\n    }\r\n\r\n    struct Ticket {\r\n        address customer;\r\n        string worker;\r\n        string title;\r\n        string description;\r\n        string tag;\r\n        int rate;\r\n        TicketStatus status;\r\n    }\r\n\r\n    string internal ApplicationName = \"TicketMarketplace\";\r\n    string internal WorkflowName = \"TicketMarketplace\";\r\n\r\n    event ContractCreated(\r\n        string applicationName,\r\n        string workflowName,\r\n        address originatingAddress\r\n    );\r\n    event ContractUpdated(\r\n        string applicationName,\r\n        string workflowName,\r\n        string action,\r\n        address originatingAddress\r\n    );\r\n\r\n    Ticket[] public tickets;\r\n\r\n    function createTicket(\r\n        string memory title,\r\n        string memory tags,\r\n        string memory _description,\r\n        string memory target\r\n    ) public returns (uint256) {\r\n        tickets.push(\r\n            Ticket({\r\n                customer: msg.sender,\r\n                title: title,\r\n                worker: target,\r\n                description: _description,\r\n                status: TicketStatus.Proposal,\r\n                rate: -1,\r\n                tag: tags\r\n            })\r\n        );\r\n        return tickets.length - 1;\r\n    }\r\n\r\n    function cancelTicket(\r\n        uint256 ticketIndex\r\n    ) public {\r\n        Ticket storage ticket = tickets[ticketIndex];\r\n        require(\r\n            ticket.status == TicketStatus.Proposal,\r\n            \"You can't cancel the ticket if started\"\r\n        );\r\n        ticket.status = TicketStatus.Cancel;\r\n        emit ContractUpdated(\r\n            ApplicationName,\r\n            WorkflowName,\r\n            \"TicketAccepted\",\r\n            msg.sender\r\n        );\r\n    }\r\n\r\n    function startTicket(\r\n        uint256 ticketIndex\r\n    ) public {\r\n        Ticket storage ticket = tickets[ticketIndex];\r\n        // require(\r\n        //     abi.encodePacked(msg.sender) == keccak256(bytes(ticket.worker)),\r\n        //     \"Sender can't start they own ticket\"\r\n        // );\r\n        require(\r\n            ticket.status == TicketStatus.Proposal,\r\n            \"Ticket must be in Proposal status\"\r\n        );\r\n        ticket.status = TicketStatus.Doing;\r\n        emit ContractUpdated(\r\n            ApplicationName,\r\n            WorkflowName,\r\n            \"TicketStarted\",\r\n            msg.sender\r\n        );\r\n    }\r\n\r\n    function expertFinishTicket(uint256 ticketIndex) public {\r\n        Ticket storage ticket = tickets[ticketIndex];\r\n        // require(\r\n        //     msg.sender == keccak256(ticket.worker),\r\n        //     \"Only the assigned worker can complete the ticket\"\r\n        // );\r\n        require(\r\n            ticket.status == TicketStatus.Doing,\r\n            \"Ticket must be in Doing status\"\r\n        );\r\n        ticket.status = TicketStatus.ExpertDone;\r\n        emit ContractUpdated(\r\n            ApplicationName,\r\n            WorkflowName,\r\n            \"TicketFinished\",\r\n            msg.sender\r\n        );\r\n    }\r\n\r\n\r\n    function customerDoneTicket(uint256 ticketIndex) public {\r\n        Ticket storage ticket = tickets[ticketIndex];\r\n        require(\r\n            msg.sender == ticket.customer,\r\n            \"Ticket must be finish by customer\"\r\n        );\r\n        require(\r\n            ticket.status == TicketStatus.ExpertDone,\r\n            \"Ticket must be in done by the expert\"\r\n        );\r\n        ticket.status = TicketStatus.CustDone;\r\n        emit ContractUpdated(\r\n            ApplicationName,\r\n            WorkflowName,\r\n            \"TicketFinished\",\r\n            msg.sender\r\n        );\r\n    }\r\n\r\n    function getTicketsByAddress(\r\n        string calldata addressString\r\n    ) public view returns (Ticket[] memory) {\r\n\r\n\r\n        uint256 count = 0;\r\n        for (uint256 i = 0; i < tickets.length; i++) {\r\n            if (keccak256(bytes(tickets[i].worker)) == keccak256(bytes(addressString))) {\r\n                count++;\r\n            }\r\n        }\r\n\r\n        Ticket[] memory filteredItems = new Ticket[](count);\r\n        uint256 index = 0;\r\n        for (uint256 i = 0; i < tickets.length; i++) {\r\n            if (keccak256(bytes(tickets[i].worker)) == keccak256(bytes(addressString))) {\r\n                filteredItems[index] = tickets[i];\r\n                index++;\r\n            }\r\n        }\r\n\r\n        return filteredItems;\r\n    }\r\n}\r\n",
  "sourcePath": "D:\\DuancuaThien\\blc-fe\\contracts\\TicketMarketplace.sol",
  "compiler": {
    "name": "solc",
    "version": "0.8.19+commit.7dd6d404.Emscripten.clang"
  },
  "schemaVersion": "3.4.14",
  "updatedAt": "2023-06-21T07:02:24.730Z",
  "networkType": "ethereum",
  "devdoc": {
    "kind": "dev",
    "methods": {},
    "version": 1
  },
  "userdoc": {
    "kind": "user",
    "methods": {},
    "version": 1
  }
}