{
  "contractName": "TicketMarketplace",
  "abi": [
    {
      "anonymous": false,
      "inputs": [
        {
          "indexed": false,
          "internalType": "string",
          "name": "applicationName",
          "type": "string"
        },
        {
          "indexed": false,
          "internalType": "string",
          "name": "workflowName",
          "type": "string"
        },
        {
          "indexed": false,
          "internalType": "address",
          "name": "originatingAddress",
          "type": "address"
        }
      ],
      "name": "ContractCreated",
      "type": "event"
    },
    {
      "anonymous": false,
      "inputs": [
        {
          "indexed": false,
          "internalType": "string",
          "name": "applicationName",
          "type": "string"
        },
        {
          "indexed": false,
          "internalType": "string",
          "name": "workflowName",
          "type": "string"
        },
        {
          "indexed": false,
          "internalType": "string",
          "name": "action",
          "type": "string"
        },
        {
          "indexed": false,
          "internalType": "address",
          "name": "originatingAddress",
          "type": "address"
        }
      ],
      "name": "ContractUpdated",
      "type": "event"
    },
    {
      "inputs": [
        {
          "internalType": "uint256",
          "name": "",
          "type": "uint256"
        }
      ],
      "name": "tickets",
      "outputs": [
        {
          "internalType": "uint256",
          "name": "id",
          "type": "uint256"
        },
        {
          "internalType": "address",
          "name": "customer",
          "type": "address"
        },
        {
          "internalType": "string",
          "name": "worker",
          "type": "string"
        },
        {
          "internalType": "string",
          "name": "title",
          "type": "string"
        },
        {
          "internalType": "string",
          "name": "description",
          "type": "string"
        },
        {
          "internalType": "string",
          "name": "tag",
          "type": "string"
        },
        {
          "internalType": "string",
          "name": "date",
          "type": "string"
        },
        {
          "internalType": "int256",
          "name": "rate",
          "type": "int256"
        },
        {
          "internalType": "enum TicketMarketplace.TicketStatus",
          "name": "status",
          "type": "uint8"
        }
      ],
      "stateMutability": "view",
      "type": "function",
      "constant": true
    },
    {
      "inputs": [
        {
          "internalType": "string",
          "name": "title",
          "type": "string"
        },
        {
          "internalType": "string",
          "name": "tags",
          "type": "string"
        },
        {
          "internalType": "string",
          "name": "date",
          "type": "string"
        },
        {
          "internalType": "string",
          "name": "_description",
          "type": "string"
        },
        {
          "internalType": "string",
          "name": "target",
          "type": "string"
        }
      ],
      "name": "createTicket",
      "outputs": [
        {
          "internalType": "uint256",
          "name": "",
          "type": "uint256"
        }
      ],
      "stateMutability": "nonpayable",
      "type": "function"
    },
    {
      "inputs": [
        {
          "internalType": "uint256",
          "name": "ticketIndex",
          "type": "uint256"
        }
      ],
      "name": "cancelTicket",
      "outputs": [],
      "stateMutability": "nonpayable",
      "type": "function"
    },
    {
      "inputs": [
        {
          "internalType": "uint256",
          "name": "ticketIndex",
          "type": "uint256"
        }
      ],
      "name": "startTicket",
      "outputs": [],
      "stateMutability": "nonpayable",
      "type": "function"
    },
    {
      "inputs": [
        {
          "internalType": "uint256",
          "name": "ticketIndex",
          "type": "uint256"
        }
      ],
      "name": "expertFinishTicket",
      "outputs": [],
      "stateMutability": "nonpayable",
      "type": "function"
    },
    {
      "inputs": [
        {
          "internalType": "uint256",
          "name": "ticketIndex",
          "type": "uint256"
        },
        {
          "internalType": "int256",
          "name": "rate",
          "type": "int256"
        }
      ],
      "name": "customerDoneTicket",
      "outputs": [],
      "stateMutability": "nonpayable",
      "type": "function"
    },
    {
      "inputs": [
        {
          "internalType": "string",
          "name": "addressString",
          "type": "string"
        }
      ],
      "name": "getTicketsByAddress",
      "outputs": [
        {
          "components": [
            {
              "internalType": "uint256",
              "name": "id",
              "type": "uint256"
            },
            {
              "internalType": "address",
              "name": "customer",
              "type": "address"
            },
            {
              "internalType": "string",
              "name": "worker",
              "type": "string"
            },
            {
              "internalType": "string",
              "name": "title",
              "type": "string"
            },
            {
              "internalType": "string",
              "name": "description",
              "type": "string"
            },
            {
              "internalType": "string",
              "name": "tag",
              "type": "string"
            },
            {
              "internalType": "string",
              "name": "date",
              "type": "string"
            },
            {
              "internalType": "int256",
              "name": "rate",
              "type": "int256"
            },
            {
              "internalType": "enum TicketMarketplace.TicketStatus",
              "name": "status",
              "type": "uint8"
            }
          ],
          "internalType": "struct TicketMarketplace.Ticket[]",
          "name": "",
          "type": "tuple[]"
        }
      ],
      "stateMutability": "view",
      "type": "function",
      "constant": true
    },
    {
      "inputs": [],
      "name": "getYourRequestTicket",
      "outputs": [
        {
          "components": [
            {
              "internalType": "uint256",
              "name": "id",
              "type": "uint256"
            },
            {
              "internalType": "address",
              "name": "customer",
              "type": "address"
            },
            {
              "internalType": "string",
              "name": "worker",
              "type": "string"
            },
            {
              "internalType": "string",
              "name": "title",
              "type": "string"
            },
            {
              "internalType": "string",
              "name": "description",
              "type": "string"
            },
            {
              "internalType": "string",
              "name": "tag",
              "type": "string"
            },
            {
              "internalType": "string",
              "name": "date",
              "type": "string"
            },
            {
              "internalType": "int256",
              "name": "rate",
              "type": "int256"
            },
            {
              "internalType": "enum TicketMarketplace.TicketStatus",
              "name": "status",
              "type": "uint8"
            }
          ],
          "internalType": "struct TicketMarketplace.Ticket[]",
          "name": "",
          "type": "tuple[]"
        }
      ],
      "stateMutability": "view",
      "type": "function",
      "constant": true
    }
  ],
  "bytecode": "0x60806040526040518060400160405280601181526020017f5469636b65744d61726b6574706c616365000000000000000000000000000000815250600090816200004a919062000320565b506040518060400160405280601181526020017f5469636b65744d61726b6574706c6163650000000000000000000000000000008152506001908162000091919062000320565b503480156200009f57600080fd5b5062000407565b600081519050919050565b7f4e487b7100000000000000000000000000000000000000000000000000000000600052604160045260246000fd5b7f4e487b7100000000000000000000000000000000000000000000000000000000600052602260045260246000fd5b600060028204905060018216806200012857607f821691505b6020821081036200013e576200013d620000e0565b5b50919050565b60008190508160005260206000209050919050565b60006020601f8301049050919050565b600082821b905092915050565b600060088302620001a87fffffffffffffffffffffffffffffffffffffffffffffffffffffffffffffffff8262000169565b620001b4868362000169565b95508019841693508086168417925050509392505050565b6000819050919050565b6000819050919050565b600062000201620001fb620001f584620001cc565b620001d6565b620001cc565b9050919050565b6000819050919050565b6200021d83620001e0565b620002356200022c8262000208565b84845462000176565b825550505050565b600090565b6200024c6200023d565b6200025981848462000212565b505050565b5b8181101562000281576200027560008262000242565b6001810190506200025f565b5050565b601f821115620002d0576200029a8162000144565b620002a58462000159565b81016020851015620002b5578190505b620002cd620002c48562000159565b8301826200025e565b50505b505050565b600082821c905092915050565b6000620002f560001984600802620002d5565b1980831691505092915050565b6000620003108383620002e2565b9150826002028217905092915050565b6200032b82620000a6565b67ffffffffffffffff811115620003475762000346620000b1565b5b6200035382546200010f565b6200036082828562000285565b600060209050601f83116001811462000398576000841562000383578287015190505b6200038f858262000302565b865550620003ff565b601f198416620003a88662000144565b60005b82811015620003d257848901518255600182019150602085019450602081019050620003ab565b86831015620003f25784890151620003ee601f891682620002e2565b8355505b6001600288020188555050505b505050505050565b61292380620004176000396000f3fe608060405234801561001057600080fd5b50600436106100885760003560e01c806394baafc01161005b57806394baafc01461012d578063ae4619241461015d578063c1a42f2314610179578063ee355b1f1461019757610088565b80630d8b3e9b1461008d5780634a404c13146100bd57806350b44712146100d95780635a38861114610111575b600080fd5b6100a760048036038101906100a29190611821565b6101b3565b6040516100b49190611941565b60405180910390f35b6100d760048036038101906100d29190611988565b610387565b005b6100f360048036038101906100ee9190611988565b610493565b60405161010899989796959493929190611b05565b60405180910390f35b61012b60048036038101906101269190611988565b6107c6565b005b61014760048036038101906101429190611c15565b6108d2565b6040516101549190611e8b565b60405180910390f35b61017760048036038101906101729190611ed9565b610e19565b005b610181610fc1565b60405161018e9190611e8b565b60405180910390f35b6101b160048036038101906101ac9190611988565b611547565b005b6000600260405180610120016040528060028054905081526020013373ffffffffffffffffffffffffffffffffffffffff1681526020018481526020018881526020018581526020018781526020018681526020017fffffffffffffffffffffffffffffffffffffffffffffffffffffffffffffffff81526020016000600481111561024257610241611a8e565b5b81525090806001815401808255809150506001900390600052602060002090600902016000909190919091506000820151816000015560208201518160010160006101000a81548173ffffffffffffffffffffffffffffffffffffffff021916908373ffffffffffffffffffffffffffffffffffffffff16021790555060408201518160020190816102d49190612125565b5060608201518160030190816102ea9190612125565b5060808201518160040190816103009190612125565b5060a08201518160050190816103169190612125565b5060c082015181600601908161032c9190612125565b5060e082015181600701556101008201518160080160006101000a81548160ff0219169083600481111561036357610362611a8e565b5b02179055505050600160028054905061037c9190612226565b905095945050505050565b60006002828154811061039d5761039c61225a565b5b90600052602060002090600902019050600160048111156103c1576103c0611a8e565b5b8160080160009054906101000a900460ff1660048111156103e5576103e4611a8e565b5b14610425576040517f08c379a000000000000000000000000000000000000000000000000000000000815260040161041c906122d5565b60405180910390fd5b60038160080160006101000a81548160ff0219169083600481111561044d5761044c611a8e565b5b02179055507fbc3f77ce3a281e615c85054a5814e59703e2ee0cf33782f46911e0888d4c394c6000600133604051610487939291906123c5565b60405180910390a15050565b600281815481106104a357600080fd5b90600052602060002090600902016000915090508060000154908060010160009054906101000a900473ffffffffffffffffffffffffffffffffffffffff16908060020180546104f290611f48565b80601f016020809104026020016040519081016040528092919081815260200182805461051e90611f48565b801561056b5780601f106105405761010080835404028352916020019161056b565b820191906000526020600020905b81548152906001019060200180831161054e57829003601f168201915b50505050509080600301805461058090611f48565b80601f01602080910402602001604051908101604052809291908181526020018280546105ac90611f48565b80156105f95780601f106105ce576101008083540402835291602001916105f9565b820191906000526020600020905b8154815290600101906020018083116105dc57829003601f168201915b50505050509080600401805461060e90611f48565b80601f016020809104026020016040519081016040528092919081815260200182805461063a90611f48565b80156106875780601f1061065c57610100808354040283529160200191610687565b820191906000526020600020905b81548152906001019060200180831161066a57829003601f168201915b50505050509080600501805461069c90611f48565b80601f01602080910402602001604051908101604052809291908181526020018280546106c890611f48565b80156107155780601f106106ea57610100808354040283529160200191610715565b820191906000526020600020905b8154815290600101906020018083116106f857829003601f168201915b50505050509080600601805461072a90611f48565b80601f016020809104026020016040519081016040528092919081815260200182805461075690611f48565b80156107a35780601f10610778576101008083540402835291602001916107a3565b820191906000526020600020905b81548152906001019060200180831161078657829003601f168201915b5050505050908060070154908060080160009054906101000a900460ff16905089565b6000600282815481106107dc576107db61225a565b5b9060005260206000209060090201905060006004811115610800576107ff611a8e565b5b8160080160009054906101000a900460ff16600481111561082457610823611a8e565b5b14610864576040517f08c379a000000000000000000000000000000000000000000000000000000000815260040161085b9061248f565b60405180910390fd5b60018160080160006101000a81548160ff0219169083600481111561088c5761088b611a8e565b5b02179055507fbc3f77ce3a281e615c85054a5814e59703e2ee0cf33782f46911e0888d4c394c60006001336040516108c6939291906124fb565b60405180910390a15050565b60606000805b60028054905081101561095e5784846040516108f5929190612583565b6040518091039020600282815481106109115761091061225a565b5b906000526020600020906009020160020160405161092f9190612634565b60405180910390200361094b5781806109479061264b565b9250505b80806109569061264b565b9150506108d8565b5060008167ffffffffffffffff81111561097b5761097a6116f6565b5b6040519080825280602002602001820160405280156109b457816020015b6109a1611653565b8152602001906001900390816109995790505b5090506000805b600280549050811015610e0c5786866040516109d8929190612583565b6040518091039020600282815481106109f4576109f361225a565b5b9060005260206000209060090201600201604051610a129190612634565b604051809103902003610df95760028181548110610a3357610a3261225a565b5b906000526020600020906009020160405180610120016040529081600082015481526020016001820160009054906101000a900473ffffffffffffffffffffffffffffffffffffffff1673ffffffffffffffffffffffffffffffffffffffff1673ffffffffffffffffffffffffffffffffffffffff168152602001600282018054610abd90611f48565b80601f0160208091040260200160405190810160405280929190818152602001828054610ae990611f48565b8015610b365780601f10610b0b57610100808354040283529160200191610b36565b820191906000526020600020905b815481529060010190602001808311610b1957829003601f168201915b50505050508152602001600382018054610b4f90611f48565b80601f0160208091040260200160405190810160405280929190818152602001828054610b7b90611f48565b8015610bc85780601f10610b9d57610100808354040283529160200191610bc8565b820191906000526020600020905b815481529060010190602001808311610bab57829003601f168201915b50505050508152602001600482018054610be190611f48565b80601f0160208091040260200160405190810160405280929190818152602001828054610c0d90611f48565b8015610c5a5780601f10610c2f57610100808354040283529160200191610c5a565b820191906000526020600020905b815481529060010190602001808311610c3d57829003601f168201915b50505050508152602001600582018054610c7390611f48565b80601f0160208091040260200160405190810160405280929190818152602001828054610c9f90611f48565b8015610cec5780601f10610cc157610100808354040283529160200191610cec565b820191906000526020600020905b815481529060010190602001808311610ccf57829003601f168201915b50505050508152602001600682018054610d0590611f48565b80601f0160208091040260200160405190810160405280929190818152602001828054610d3190611f48565b8015610d7e5780601f10610d5357610100808354040283529160200191610d7e565b820191906000526020600020905b815481529060010190602001808311610d6157829003601f168201915b50505050508152602001600782015481526020016008820160009054906101000a900460ff166004811115610db657610db5611a8e565b5b6004811115610dc857610dc7611a8e565b5b81525050838381518110610ddf57610dde61225a565b5b60200260200101819052508180610df59061264b565b9250505b8080610e049061264b565b9150506109bb565b5081935050505092915050565b600060028381548110610e2f57610e2e61225a565b5b906000526020600020906009020190508060010160009054906101000a900473ffffffffffffffffffffffffffffffffffffffff1673ffffffffffffffffffffffffffffffffffffffff163373ffffffffffffffffffffffffffffffffffffffff1614610ed1576040517f08c379a0000000000000000000000000000000000000000000000000000000008152600401610ec890612705565b60405180910390fd5b60036004811115610ee557610ee4611a8e565b5b8160080160009054906101000a900460ff166004811115610f0957610f08611a8e565b5b14610f49576040517f08c379a0000000000000000000000000000000000000000000000000000000008152600401610f4090612797565b60405180910390fd5b60048160080160006101000a81548160ff02191690836004811115610f7157610f70611a8e565b5b02179055508181600701819055507fbc3f77ce3a281e615c85054a5814e59703e2ee0cf33782f46911e0888d4c394c6000600133604051610fb4939291906123c5565b60405180910390a1505050565b60606000805b60028054905081101561106e573373ffffffffffffffffffffffffffffffffffffffff1660028281548110610fff57610ffe61225a565b5b906000526020600020906009020160010160009054906101000a900473ffffffffffffffffffffffffffffffffffffffff1673ffffffffffffffffffffffffffffffffffffffff160361105b5781806110579061264b565b9250505b80806110669061264b565b915050610fc7565b5060008167ffffffffffffffff81111561108b5761108a6116f6565b5b6040519080825280602002602001820160405280156110c457816020015b6110b1611653565b8152602001906001900390816110a95790505b5090506000805b60028054905081101561153d573373ffffffffffffffffffffffffffffffffffffffff16600282815481106111035761110261225a565b5b906000526020600020906009020160010160009054906101000a900473ffffffffffffffffffffffffffffffffffffffff1673ffffffffffffffffffffffffffffffffffffffff160361152a57600281815481106111645761116361225a565b5b906000526020600020906009020160405180610120016040529081600082015481526020016001820160009054906101000a900473ffffffffffffffffffffffffffffffffffffffff1673ffffffffffffffffffffffffffffffffffffffff1673ffffffffffffffffffffffffffffffffffffffff1681526020016002820180546111ee90611f48565b80601f016020809104026020016040519081016040528092919081815260200182805461121a90611f48565b80156112675780601f1061123c57610100808354040283529160200191611267565b820191906000526020600020905b81548152906001019060200180831161124a57829003601f168201915b5050505050815260200160038201805461128090611f48565b80601f01602080910402602001604051908101604052809291908181526020018280546112ac90611f48565b80156112f95780601f106112ce576101008083540402835291602001916112f9565b820191906000526020600020905b8154815290600101906020018083116112dc57829003601f168201915b5050505050815260200160048201805461131290611f48565b80601f016020809104026020016040519081016040528092919081815260200182805461133e90611f48565b801561138b5780601f106113605761010080835404028352916020019161138b565b820191906000526020600020905b81548152906001019060200180831161136e57829003601f168201915b505050505081526020016005820180546113a490611f48565b80601f01602080910402602001604051908101604052809291908181526020018280546113d090611f48565b801561141d5780601f106113f25761010080835404028352916020019161141d565b820191906000526020600020905b81548152906001019060200180831161140057829003601f168201915b5050505050815260200160068201805461143690611f48565b80601f016020809104026020016040519081016040528092919081815260200182805461146290611f48565b80156114af5780601f10611484576101008083540402835291602001916114af565b820191906000526020600020905b81548152906001019060200180831161149257829003601f168201915b50505050508152602001600782015481526020016008820160009054906101000a900460ff1660048111156114e7576114e6611a8e565b5b60048111156114f9576114f8611a8e565b5b815250508383815181106115105761150f61225a565b5b602002602001018190525081806115269061264b565b9250505b80806115359061264b565b9150506110cb565b5081935050505090565b60006002828154811061155d5761155c61225a565b5b906000526020600020906009020190506000600481111561158157611580611a8e565b5b8160080160009054906101000a900460ff1660048111156115a5576115a4611a8e565b5b146115e5576040517f08c379a00000000000000000000000000000000000000000000000000000000081526004016115dc90612829565b60405180910390fd5b60028160080160006101000a81548160ff0219169083600481111561160d5761160c611a8e565b5b02179055507fbc3f77ce3a281e615c85054a5814e59703e2ee0cf33782f46911e0888d4c394c600060013360405161164793929190612895565b60405180910390a15050565b60405180610120016040528060008152602001600073ffffffffffffffffffffffffffffffffffffffff168152602001606081526020016060815260200160608152602001606081526020016060815260200160008152602001600060048111156116c1576116c0611a8e565b5b81525090565b6000604051905090565b600080fd5b600080fd5b600080fd5b600080fd5b6000601f19601f8301169050919050565b7f4e487b7100000000000000000000000000000000000000000000000000000000600052604160045260246000fd5b61172e826116e5565b810181811067ffffffffffffffff8211171561174d5761174c6116f6565b5b80604052505050565b60006117606116c7565b905061176c8282611725565b919050565b600067ffffffffffffffff82111561178c5761178b6116f6565b5b611795826116e5565b9050602081019050919050565b82818337600083830152505050565b60006117c46117bf84611771565b611756565b9050828152602081018484840111156117e0576117df6116e0565b5b6117eb8482856117a2565b509392505050565b600082601f830112611808576118076116db565b5b81356118188482602086016117b1565b91505092915050565b600080600080600060a0868803121561183d5761183c6116d1565b5b600086013567ffffffffffffffff81111561185b5761185a6116d6565b5b611867888289016117f3565b955050602086013567ffffffffffffffff811115611888576118876116d6565b5b611894888289016117f3565b945050604086013567ffffffffffffffff8111156118b5576118b46116d6565b5b6118c1888289016117f3565b935050606086013567ffffffffffffffff8111156118e2576118e16116d6565b5b6118ee888289016117f3565b925050608086013567ffffffffffffffff81111561190f5761190e6116d6565b5b61191b888289016117f3565b9150509295509295909350565b6000819050919050565b61193b81611928565b82525050565b60006020820190506119566000830184611932565b92915050565b61196581611928565b811461197057600080fd5b50565b6000813590506119828161195c565b92915050565b60006020828403121561199e5761199d6116d1565b5b60006119ac84828501611973565b91505092915050565b600073ffffffffffffffffffffffffffffffffffffffff82169050919050565b60006119e0826119b5565b9050919050565b6119f0816119d5565b82525050565b600081519050919050565b600082825260208201905092915050565b60005b83811015611a30578082015181840152602081019050611a15565b60008484015250505050565b6000611a47826119f6565b611a518185611a01565b9350611a61818560208601611a12565b611a6a816116e5565b840191505092915050565b6000819050919050565b611a8881611a75565b82525050565b7f4e487b7100000000000000000000000000000000000000000000000000000000600052602160045260246000fd5b60058110611ace57611acd611a8e565b5b50565b6000819050611adf82611abd565b919050565b6000611aef82611ad1565b9050919050565b611aff81611ae4565b82525050565b600061012082019050611b1b600083018c611932565b611b28602083018b6119e7565b8181036040830152611b3a818a611a3c565b90508181036060830152611b4e8189611a3c565b90508181036080830152611b628188611a3c565b905081810360a0830152611b768187611a3c565b905081810360c0830152611b8a8186611a3c565b9050611b9960e0830185611a7f565b611ba7610100830184611af6565b9a9950505050505050505050565b600080fd5b600080fd5b60008083601f840112611bd557611bd46116db565b5b8235905067ffffffffffffffff811115611bf257611bf1611bb5565b5b602083019150836001820283011115611c0e57611c0d611bba565b5b9250929050565b60008060208385031215611c2c57611c2b6116d1565b5b600083013567ffffffffffffffff811115611c4a57611c496116d6565b5b611c5685828601611bbf565b92509250509250929050565b600081519050919050565b600082825260208201905092915050565b6000819050602082019050919050565b611c9781611928565b82525050565b611ca6816119d5565b82525050565b600082825260208201905092915050565b6000611cc8826119f6565b611cd28185611cac565b9350611ce2818560208601611a12565b611ceb816116e5565b840191505092915050565b611cff81611a75565b82525050565b611d0e81611ae4565b82525050565b600061012083016000830151611d2d6000860182611c8e565b506020830151611d406020860182611c9d565b5060408301518482036040860152611d588282611cbd565b91505060608301518482036060860152611d728282611cbd565b91505060808301518482036080860152611d8c8282611cbd565b91505060a083015184820360a0860152611da68282611cbd565b91505060c083015184820360c0860152611dc08282611cbd565b91505060e0830151611dd560e0860182611cf6565b50610100830151611dea610100860182611d05565b508091505092915050565b6000611e018383611d14565b905092915050565b6000602082019050919050565b6000611e2182611c62565b611e2b8185611c6d565b935083602082028501611e3d85611c7e565b8060005b85811015611e795784840389528151611e5a8582611df5565b9450611e6583611e09565b925060208a01995050600181019050611e41565b50829750879550505050505092915050565b60006020820190508181036000830152611ea58184611e16565b905092915050565b611eb681611a75565b8114611ec157600080fd5b50565b600081359050611ed381611ead565b92915050565b60008060408385031215611ef057611eef6116d1565b5b6000611efe85828601611973565b9250506020611f0f85828601611ec4565b9150509250929050565b7f4e487b7100000000000000000000000000000000000000000000000000000000600052602260045260246000fd5b60006002820490506001821680611f6057607f821691505b602082108103611f7357611f72611f19565b5b50919050565b60008190508160005260206000209050919050565b60006020601f8301049050919050565b600082821b905092915050565b600060088302611fdb7fffffffffffffffffffffffffffffffffffffffffffffffffffffffffffffffff82611f9e565b611fe58683611f9e565b95508019841693508086168417925050509392505050565b6000819050919050565b600061202261201d61201884611928565b611ffd565b611928565b9050919050565b6000819050919050565b61203c83612007565b61205061204882612029565b848454611fab565b825550505050565b600090565b612065612058565b612070818484612033565b505050565b5b818110156120945761208960008261205d565b600181019050612076565b5050565b601f8211156120d9576120aa81611f79565b6120b384611f8e565b810160208510156120c2578190505b6120d66120ce85611f8e565b830182612075565b50505b505050565b600082821c905092915050565b60006120fc600019846008026120de565b1980831691505092915050565b600061211583836120eb565b9150826002028217905092915050565b61212e826119f6565b67ffffffffffffffff811115612147576121466116f6565b5b6121518254611f48565b61215c828285612098565b600060209050601f83116001811461218f576000841561217d578287015190505b6121878582612109565b8655506121ef565b601f19841661219d86611f79565b60005b828110156121c5578489015182556001820191506020850194506020810190506121a0565b868310156121e257848901516121de601f8916826120eb565b8355505b6001600288020188555050505b505050505050565b7f4e487b7100000000000000000000000000000000000000000000000000000000600052601160045260246000fd5b600061223182611928565b915061223c83611928565b9250828203905081811115612254576122536121f7565b5b92915050565b7f4e487b7100000000000000000000000000000000000000000000000000000000600052603260045260246000fd5b7f5469636b6574206d75737420626520696e20446f696e67207374617475730000600082015250565b60006122bf601e83611a01565b91506122ca82612289565b602082019050919050565b600060208201905081810360008301526122ee816122b2565b9050919050565b6000815461230281611f48565b61230c8186611a01565b94506001821660008114612327576001811461233d57612370565b60ff198316865281151560200286019350612370565b61234685611f79565b60005b8381101561236857815481890152600182019150602081019050612349565b808801955050505b50505092915050565b7f5469636b657446696e6973686564000000000000000000000000000000000000600082015250565b60006123af600e83611a01565b91506123ba82612379565b602082019050919050565b600060808201905081810360008301526123df81866122f5565b905081810360208301526123f381856122f5565b90508181036040830152612406816123a2565b905061241560608301846119e7565b949350505050565b7f5469636b6574206d75737420626520696e2050726f706f73616c20737461747560008201527f7300000000000000000000000000000000000000000000000000000000000000602082015250565b6000612479602183611a01565b91506124848261241d565b604082019050919050565b600060208201905081810360008301526124a88161246c565b9050919050565b7f5469636b65745374617274656400000000000000000000000000000000000000600082015250565b60006124e5600d83611a01565b91506124f0826124af565b602082019050919050565b6000608082019050818103600083015261251581866122f5565b9050818103602083015261252981856122f5565b9050818103604083015261253c816124d8565b905061254b60608301846119e7565b949350505050565b600081905092915050565b600061256a8385612553565b93506125778385846117a2565b82840190509392505050565b600061259082848661255e565b91508190509392505050565b60008190508160005260206000209050919050565b600081546125be81611f48565b6125c88186612553565b945060018216600081146125e357600181146125f85761262b565b60ff198316865281151582028601935061262b565b6126018561259c565b60005b8381101561262357815481890152600182019150602081019050612604565b838801955050505b50505092915050565b600061264082846125b1565b915081905092915050565b600061265682611928565b91507fffffffffffffffffffffffffffffffffffffffffffffffffffffffffffffffff8203612688576126876121f7565b5b600182019050919050565b7f5469636b6574206d7573742062652066696e69736820627920637573746f6d6560008201527f7200000000000000000000000000000000000000000000000000000000000000602082015250565b60006126ef602183611a01565b91506126fa82612693565b604082019050919050565b6000602082019050818103600083015261271e816126e2565b9050919050565b7f5469636b6574206d75737420626520696e20646f6e652062792074686520657860008201527f7065727400000000000000000000000000000000000000000000000000000000602082015250565b6000612781602483611a01565b915061278c82612725565b604082019050919050565b600060208201905081810360008301526127b081612774565b9050919050565b7f596f752063616e27742063616e63656c20746865207469636b6574206966207360008201527f7461727465640000000000000000000000000000000000000000000000000000602082015250565b6000612813602683611a01565b915061281e826127b7565b604082019050919050565b6000602082019050818103600083015261284281612806565b9050919050565b7f5469636b65744163636570746564000000000000000000000000000000000000600082015250565b600061287f600e83611a01565b915061288a82612849565b602082019050919050565b600060808201905081810360008301526128af81866122f5565b905081810360208301526128c381856122f5565b905081810360408301526128d681612872565b90506128e560608301846119e7565b94935050505056fea2646970667358221220959e4698d15d34dd36173e4de3d4b484dd73ef89f5160a7b72ebf640439c83af64736f6c63430008130033",
  "immutableReferences": {},
  "source": "// SPDX-License-Identifier: MIT\r\npragma solidity 0.8.19;\r\n\r\ncontract TicketMarketplace {\r\n    enum TicketStatus {\r\n        Proposal,\r\n        Doing,\r\n        Cancel,\r\n        ExpertDone,\r\n        CustDone\r\n    }\r\n\r\n    struct Ticket {\r\n        uint256 id;\r\n        address customer;\r\n        string worker;\r\n        string title;\r\n        string description;\r\n        string tag;\r\n        string date;\r\n        int rate;\r\n        TicketStatus status;\r\n    }\r\n\r\n    string internal ApplicationName = \"TicketMarketplace\";\r\n    string internal WorkflowName = \"TicketMarketplace\";\r\n\r\n    event ContractCreated(\r\n        string applicationName,\r\n        string workflowName,\r\n        address originatingAddress\r\n    );\r\n    event ContractUpdated(\r\n        string applicationName,\r\n        string workflowName,\r\n        string action,\r\n        address originatingAddress\r\n    );\r\n\r\n    Ticket[] public tickets;\r\n\r\n    function createTicket(\r\n        string memory title,\r\n        string memory tags,\r\n        string memory date,\r\n        string memory _description,\r\n        string memory target\r\n    ) public returns (uint256) {\r\n        tickets.push(\r\n            Ticket({\r\n                id: tickets.length,\r\n                customer: msg.sender,\r\n                title: title,\r\n                worker: target,\r\n                date: date,\r\n                description: _description,\r\n                status: TicketStatus.Proposal,\r\n                rate: -1,\r\n                tag: tags\r\n            })\r\n        );\r\n        return tickets.length - 1;\r\n    }\r\n\r\n    function cancelTicket(\r\n        uint256 ticketIndex\r\n    ) public {\r\n        Ticket storage ticket = tickets[ticketIndex];\r\n        require(\r\n            ticket.status == TicketStatus.Proposal,\r\n            \"You can't cancel the ticket if started\"\r\n        );\r\n        ticket.status = TicketStatus.Cancel;\r\n        emit ContractUpdated(\r\n            ApplicationName,\r\n            WorkflowName,\r\n            \"TicketAccepted\",\r\n            msg.sender\r\n        );\r\n    }\r\n\r\n    function startTicket(\r\n        uint256 ticketIndex\r\n    ) public {\r\n        Ticket storage ticket = tickets[ticketIndex];\r\n        // require(\r\n        //     abi.encodePacked(msg.sender) == keccak256(bytes(ticket.worker)),\r\n        //     \"Sender can't start they own ticket\"\r\n        // );\r\n        require(\r\n            ticket.status == TicketStatus.Proposal,\r\n            \"Ticket must be in Proposal status\"\r\n        );\r\n        ticket.status = TicketStatus.Doing;\r\n        emit ContractUpdated(\r\n            ApplicationName,\r\n            WorkflowName,\r\n            \"TicketStarted\",\r\n            msg.sender\r\n        );\r\n    }\r\n\r\n    function expertFinishTicket(uint256 ticketIndex) public {\r\n        Ticket storage ticket = tickets[ticketIndex];\r\n        // require(\r\n        //     msg.sender == keccak256(ticket.worker),\r\n        //     \"Only the assigned worker can complete the ticket\"\r\n        // );\r\n        require(\r\n            ticket.status == TicketStatus.Doing,\r\n            \"Ticket must be in Doing status\"\r\n        );\r\n        ticket.status = TicketStatus.ExpertDone;\r\n        emit ContractUpdated(\r\n            ApplicationName,\r\n            WorkflowName,\r\n            \"TicketFinished\",\r\n            msg.sender\r\n        );\r\n    }\r\n\r\n\r\n    function customerDoneTicket(uint256 ticketIndex, int256 rate) public {\r\n        Ticket storage ticket = tickets[ticketIndex];\r\n        require(\r\n            msg.sender == ticket.customer,\r\n            \"Ticket must be finish by customer\"\r\n        );\r\n        require(\r\n            ticket.status == TicketStatus.ExpertDone,\r\n            \"Ticket must be in done by the expert\"\r\n        );\r\n        ticket.status = TicketStatus.CustDone;\r\n        ticket.rate = rate;\r\n        emit ContractUpdated(\r\n            ApplicationName,\r\n            WorkflowName,\r\n            \"TicketFinished\",\r\n            msg.sender\r\n        );\r\n    }\r\n\r\n    function getTicketsByAddress(\r\n        string calldata addressString\r\n    ) public view returns (Ticket[] memory) {\r\n\r\n    \r\n        uint256 count = 0;\r\n        for (uint256 i = 0; i < tickets.length; i++) {\r\n            if (keccak256(bytes(tickets[i].worker)) == keccak256(bytes(addressString))) {\r\n                count++;\r\n            }\r\n        }\r\n\r\n        Ticket[] memory filteredItems = new Ticket[](count);\r\n        uint256 index = 0;\r\n        for (uint256 i = 0; i < tickets.length; i++) {\r\n            if (keccak256(bytes(tickets[i].worker)) == keccak256(bytes(addressString))) {\r\n                filteredItems[index] = tickets[i];\r\n                index++;\r\n            }\r\n        }\r\n\r\n        return filteredItems;\r\n    }\r\n\r\n\r\n    function getYourRequestTicket() public view returns (Ticket[] memory) {\r\n\r\n        uint256 count = 0;\r\n        for (uint256 i = 0; i < tickets.length; i++) {\r\n            if (tickets[i].customer == msg.sender) {\r\n                count++;\r\n            }\r\n        }\r\n\r\n        Ticket[] memory filteredItems = new Ticket[](count);\r\n        uint256 index = 0;\r\n        for (uint256 i = 0; i < tickets.length; i++) {\r\n            if (tickets[i].customer == msg.sender) {\r\n                filteredItems[index] = tickets[i];\r\n                index++;\r\n            }\r\n        }\r\n\r\n        return filteredItems;\r\n    }\r\n}\r\n",
  "sourcePath": "D:\\DuancuaThien\\blc-fe\\contracts\\TicketMarketplace.sol",
  "compiler": {
    "name": "solc",
    "version": "0.8.19+commit.7dd6d404.Emscripten.clang"
  },
  "schemaVersion": "3.4.14",
  "updatedAt": "2023-06-21T17:40:23.229Z",
  "networkType": "ethereum",
  "devdoc": {
    "kind": "dev",
    "methods": {},
    "version": 1
  },
  "userdoc": {
    "kind": "user",
    "methods": {},
    "version": 1
  }
}