{
  "contractName": "TicketMarketplace",
  "abi": [
    {
      "anonymous": false,
      "inputs": [
        {
          "indexed": false,
          "internalType": "string",
          "name": "applicationName",
          "type": "string"
        },
        {
          "indexed": false,
          "internalType": "string",
          "name": "workflowName",
          "type": "string"
        },
        {
          "indexed": false,
          "internalType": "address",
          "name": "originatingAddress",
          "type": "address"
        }
      ],
      "name": "ContractCreated",
      "type": "event"
    },
    {
      "anonymous": false,
      "inputs": [
        {
          "indexed": false,
          "internalType": "string",
          "name": "applicationName",
          "type": "string"
        },
        {
          "indexed": false,
          "internalType": "string",
          "name": "workflowName",
          "type": "string"
        },
        {
          "indexed": false,
          "internalType": "string",
          "name": "action",
          "type": "string"
        },
        {
          "indexed": false,
          "internalType": "address",
          "name": "originatingAddress",
          "type": "address"
        }
      ],
      "name": "ContractUpdated",
      "type": "event"
    },
    {
      "inputs": [
        {
          "internalType": "uint256",
          "name": "",
          "type": "uint256"
        }
      ],
      "name": "tickets",
      "outputs": [
        {
          "internalType": "address",
          "name": "customer",
          "type": "address"
        },
        {
          "internalType": "address",
          "name": "worker",
          "type": "address"
        },
        {
          "internalType": "string",
          "name": "description",
          "type": "string"
        },
        {
          "internalType": "enum TicketMarketplace.TicketStatus",
          "name": "status",
          "type": "uint8"
        }
      ],
      "stateMutability": "view",
      "type": "function"
    },
    {
      "inputs": [
        {
          "internalType": "string",
          "name": "_description",
          "type": "string"
        }
      ],
      "name": "createTicket",
      "outputs": [
        {
          "internalType": "uint256",
          "name": "",
          "type": "uint256"
        }
      ],
      "stateMutability": "nonpayable",
      "type": "function"
    },
    {
      "inputs": [
        {
          "internalType": "uint256",
          "name": "ticketIndex",
          "type": "uint256"
        }
      ],
      "name": "assignWorker",
      "outputs": [],
      "stateMutability": "nonpayable",
      "type": "function"
    },
    {
      "inputs": [
        {
          "internalType": "uint256",
          "name": "ticketIndex",
          "type": "uint256"
        }
      ],
      "name": "startTicket",
      "outputs": [],
      "stateMutability": "nonpayable",
      "type": "function"
    },
    {
      "inputs": [
        {
          "internalType": "uint256",
          "name": "ticketIndex",
          "type": "uint256"
        }
      ],
      "name": "finishTicket",
      "outputs": [],
      "stateMutability": "nonpayable",
      "type": "function"
    },
    {
      "inputs": [],
      "name": "getTickets",
      "outputs": [
        {
          "components": [
            {
              "internalType": "address",
              "name": "customer",
              "type": "address"
            },
            {
              "internalType": "address",
              "name": "worker",
              "type": "address"
            },
            {
              "internalType": "string",
              "name": "description",
              "type": "string"
            },
            {
              "internalType": "enum TicketMarketplace.TicketStatus",
              "name": "status",
              "type": "uint8"
            }
          ],
          "internalType": "struct TicketMarketplace.Ticket[]",
          "name": "",
          "type": "tuple[]"
        }
      ],
      "stateMutability": "view",
      "type": "function"
    }
  ],
  "bytecode": "0x60806040526040518060400160405280601181526020017f5469636b65744d61726b6574706c616365000000000000000000000000000000815250600090816200004a919062000320565b506040518060400160405280601181526020017f5469636b65744d61726b6574706c6163650000000000000000000000000000008152506001908162000091919062000320565b503480156200009f57600080fd5b5062000407565b600081519050919050565b7f4e487b7100000000000000000000000000000000000000000000000000000000600052604160045260246000fd5b7f4e487b7100000000000000000000000000000000000000000000000000000000600052602260045260246000fd5b600060028204905060018216806200012857607f821691505b6020821081036200013e576200013d620000e0565b5b50919050565b60008190508160005260206000209050919050565b60006020601f8301049050919050565b600082821b905092915050565b600060088302620001a87fffffffffffffffffffffffffffffffffffffffffffffffffffffffffffffffff8262000169565b620001b4868362000169565b95508019841693508086168417925050509392505050565b6000819050919050565b6000819050919050565b600062000201620001fb620001f584620001cc565b620001d6565b620001cc565b9050919050565b6000819050919050565b6200021d83620001e0565b620002356200022c8262000208565b84845462000176565b825550505050565b600090565b6200024c6200023d565b6200025981848462000212565b505050565b5b8181101562000281576200027560008262000242565b6001810190506200025f565b5050565b601f821115620002d0576200029a8162000144565b620002a58462000159565b81016020851015620002b5578190505b620002cd620002c48562000159565b8301826200025e565b50505b505050565b600082821c905092915050565b6000620002f560001984600802620002d5565b1980831691505092915050565b6000620003108383620002e2565b9150826002028217905092915050565b6200032b82620000a6565b67ffffffffffffffff811115620003475762000346620000b1565b5b6200035382546200010f565b6200036082828562000285565b600060209050601f83116001811462000398576000841562000383578287015190505b6200038f858262000302565b865550620003ff565b601f198416620003a88662000144565b60005b82811015620003d257848901518255600182019150602085019450602081019050620003ab565b86831015620003f25784890151620003ee601f891682620002e2565b8355505b6001600288020188555050505b505050505050565b61195b80620004176000396000f3fe608060405234801561001057600080fd5b50600436106100625760003560e01c80632d873835146100675780634ed026221461008357806350b44712146100a15780635a388611146100d45780636897082f146100f0578063fa0f1c4e14610120575b600080fd5b610081600480360381019061007c9190610b0d565b61013c565b005b61008b61031d565b6040516100989190610da7565b60405180910390f35b6100bb60048036038101906100b69190610b0d565b6104f5565b6040516100cb9493929190610e31565b60405180910390f35b6100ee60048036038101906100e99190610b0d565b61060a565b005b61010a60048036038101906101059190610fb2565b6107a8565b604051610117919061100a565b60405180910390f35b61013a60048036038101906101359190610b0d565b610925565b005b60006002828154811061015257610151611025565b5b906000526020600020906004020190508060000160009054906101000a900473ffffffffffffffffffffffffffffffffffffffff1673ffffffffffffffffffffffffffffffffffffffff163373ffffffffffffffffffffffffffffffffffffffff16146101f4576040517f08c379a00000000000000000000000000000000000000000000000000000000081526004016101eb906110c6565b60405180910390fd5b6000600381111561020857610207610c37565b5b8160030160009054906101000a900460ff16600381111561022c5761022b610c37565b5b1461026c576040517f08c379a000000000000000000000000000000000000000000000000000000000815260040161026390611158565b60405180910390fd5b338160010160006101000a81548173ffffffffffffffffffffffffffffffffffffffff021916908373ffffffffffffffffffffffffffffffffffffffff16021790555060018160030160006101000a81548160ff021916908360038111156102d7576102d6610c37565b5b02179055507fbc3f77ce3a281e615c85054a5814e59703e2ee0cf33782f46911e0888d4c394c6000600133604051610311939291906112bd565b60405180910390a15050565b60606002805480602002602001604051908101604052809291908181526020016000905b828210156104ec57838290600052602060002090600402016040518060800160405290816000820160009054906101000a900473ffffffffffffffffffffffffffffffffffffffff1673ffffffffffffffffffffffffffffffffffffffff1673ffffffffffffffffffffffffffffffffffffffff1681526020016001820160009054906101000a900473ffffffffffffffffffffffffffffffffffffffff1673ffffffffffffffffffffffffffffffffffffffff1673ffffffffffffffffffffffffffffffffffffffff168152602001600282018054610420906111a7565b80601f016020809104026020016040519081016040528092919081815260200182805461044c906111a7565b80156104995780601f1061046e57610100808354040283529160200191610499565b820191906000526020600020905b81548152906001019060200180831161047c57829003601f168201915b505050505081526020016003820160009054906101000a900460ff1660038111156104c7576104c6610c37565b5b60038111156104d9576104d8610c37565b5b8152505081526020019060010190610341565b50505050905090565b6002818154811061050557600080fd5b90600052602060002090600402016000915090508060000160009054906101000a900473ffffffffffffffffffffffffffffffffffffffff16908060010160009054906101000a900473ffffffffffffffffffffffffffffffffffffffff1690806002018054610574906111a7565b80601f01602080910402602001604051908101604052809291908181526020018280546105a0906111a7565b80156105ed5780601f106105c2576101008083540402835291602001916105ed565b820191906000526020600020905b8154815290600101906020018083116105d057829003601f168201915b5050505050908060030160009054906101000a900460ff16905084565b6000600282815481106106205761061f611025565b5b906000526020600020906004020190508060010160009054906101000a900473ffffffffffffffffffffffffffffffffffffffff1673ffffffffffffffffffffffffffffffffffffffff163373ffffffffffffffffffffffffffffffffffffffff16146106c2576040517f08c379a00000000000000000000000000000000000000000000000000000000081526004016106b990611387565b60405180910390fd5b600160038111156106d6576106d5610c37565b5b8160030160009054906101000a900460ff1660038111156106fa576106f9610c37565b5b1461073a576040517f08c379a0000000000000000000000000000000000000000000000000000000008152600401610731906113f3565b60405180910390fd5b60028160030160006101000a81548160ff0219169083600381111561076257610761610c37565b5b02179055507fbc3f77ce3a281e615c85054a5814e59703e2ee0cf33782f46911e0888d4c394c600060013360405161079c9392919061145f565b60405180910390a15050565b6000600260405180608001604052803373ffffffffffffffffffffffffffffffffffffffff168152602001600073ffffffffffffffffffffffffffffffffffffffff1681526020018481526020016000600381111561080a57610809610c37565b5b815250908060018154018082558091505060019003906000526020600020906004020160009091909190915060008201518160000160006101000a81548173ffffffffffffffffffffffffffffffffffffffff021916908373ffffffffffffffffffffffffffffffffffffffff16021790555060208201518160010160006101000a81548173ffffffffffffffffffffffffffffffffffffffff021916908373ffffffffffffffffffffffffffffffffffffffff16021790555060408201518160020190816108d9919061164e565b5060608201518160030160006101000a81548160ff0219169083600381111561090557610904610c37565b5b02179055505050600160028054905061091e919061174f565b9050919050565b60006002828154811061093b5761093a611025565b5b906000526020600020906004020190508060010160009054906101000a900473ffffffffffffffffffffffffffffffffffffffff1673ffffffffffffffffffffffffffffffffffffffff163373ffffffffffffffffffffffffffffffffffffffff16146109dd576040517f08c379a00000000000000000000000000000000000000000000000000000000081526004016109d4906117f5565b60405180910390fd5b600260038111156109f1576109f0610c37565b5b8160030160009054906101000a900460ff166003811115610a1557610a14610c37565b5b14610a55576040517f08c379a0000000000000000000000000000000000000000000000000000000008152600401610a4c90611861565b60405180910390fd5b60038160030160006101000a81548160ff02191690836003811115610a7d57610a7c610c37565b5b02179055507fbc3f77ce3a281e615c85054a5814e59703e2ee0cf33782f46911e0888d4c394c6000600133604051610ab7939291906118cd565b60405180910390a15050565b6000604051905090565b600080fd5b600080fd5b6000819050919050565b610aea81610ad7565b8114610af557600080fd5b50565b600081359050610b0781610ae1565b92915050565b600060208284031215610b2357610b22610acd565b5b6000610b3184828501610af8565b91505092915050565b600081519050919050565b600082825260208201905092915050565b6000819050602082019050919050565b600073ffffffffffffffffffffffffffffffffffffffff82169050919050565b6000610b9182610b66565b9050919050565b610ba181610b86565b82525050565b600081519050919050565b600082825260208201905092915050565b60005b83811015610be1578082015181840152602081019050610bc6565b60008484015250505050565b6000601f19601f8301169050919050565b6000610c0982610ba7565b610c138185610bb2565b9350610c23818560208601610bc3565b610c2c81610bed565b840191505092915050565b7f4e487b7100000000000000000000000000000000000000000000000000000000600052602160045260246000fd5b60048110610c7757610c76610c37565b5b50565b6000819050610c8882610c66565b919050565b6000610c9882610c7a565b9050919050565b610ca881610c8d565b82525050565b6000608083016000830151610cc66000860182610b98565b506020830151610cd96020860182610b98565b5060408301518482036040860152610cf18282610bfe565b9150506060830151610d066060860182610c9f565b508091505092915050565b6000610d1d8383610cae565b905092915050565b6000602082019050919050565b6000610d3d82610b3a565b610d478185610b45565b935083602082028501610d5985610b56565b8060005b85811015610d955784840389528151610d768582610d11565b9450610d8183610d25565b925060208a01995050600181019050610d5d565b50829750879550505050505092915050565b60006020820190508181036000830152610dc18184610d32565b905092915050565b610dd281610b86565b82525050565b600082825260208201905092915050565b6000610df482610ba7565b610dfe8185610dd8565b9350610e0e818560208601610bc3565b610e1781610bed565b840191505092915050565b610e2b81610c8d565b82525050565b6000608082019050610e466000830187610dc9565b610e536020830186610dc9565b8181036040830152610e658185610de9565b9050610e746060830184610e22565b95945050505050565b600080fd5b600080fd5b7f4e487b7100000000000000000000000000000000000000000000000000000000600052604160045260246000fd5b610ebf82610bed565b810181811067ffffffffffffffff82111715610ede57610edd610e87565b5b80604052505050565b6000610ef1610ac3565b9050610efd8282610eb6565b919050565b600067ffffffffffffffff821115610f1d57610f1c610e87565b5b610f2682610bed565b9050602081019050919050565b82818337600083830152505050565b6000610f55610f5084610f02565b610ee7565b905082815260208101848484011115610f7157610f70610e82565b5b610f7c848285610f33565b509392505050565b600082601f830112610f9957610f98610e7d565b5b8135610fa9848260208601610f42565b91505092915050565b600060208284031215610fc857610fc7610acd565b5b600082013567ffffffffffffffff811115610fe657610fe5610ad2565b5b610ff284828501610f84565b91505092915050565b61100481610ad7565b82525050565b600060208201905061101f6000830184610ffb565b92915050565b7f4e487b7100000000000000000000000000000000000000000000000000000000600052603260045260246000fd5b7f4f6e6c792074686520637573746f6d65722063616e2061737369676e2061207760008201527f6f726b6572000000000000000000000000000000000000000000000000000000602082015250565b60006110b0602583610dd8565b91506110bb82611054565b604082019050919050565b600060208201905081810360008301526110df816110a3565b9050919050565b7f5469636b6574206d75737420626520696e2050726f706f73616c20737461747560008201527f7300000000000000000000000000000000000000000000000000000000000000602082015250565b6000611142602183610dd8565b915061114d826110e6565b604082019050919050565b6000602082019050818103600083015261117181611135565b9050919050565b7f4e487b7100000000000000000000000000000000000000000000000000000000600052602260045260246000fd5b600060028204905060018216806111bf57607f821691505b6020821081036111d2576111d1611178565b5b50919050565b60008190508160005260206000209050919050565b600081546111fa816111a7565b6112048186610dd8565b9450600182166000811461121f576001811461123557611268565b60ff198316865281151560200286019350611268565b61123e856111d8565b60005b8381101561126057815481890152600182019150602081019050611241565b808801955050505b50505092915050565b7f5469636b65744163636570746564000000000000000000000000000000000000600082015250565b60006112a7600e83610dd8565b91506112b282611271565b602082019050919050565b600060808201905081810360008301526112d781866111ed565b905081810360208301526112eb81856111ed565b905081810360408301526112fe8161129a565b905061130d6060830184610dc9565b949350505050565b7f4f6e6c79207468652061737369676e656420776f726b65722063616e2073746160008201527f727420746865207469636b657400000000000000000000000000000000000000602082015250565b6000611371602d83610dd8565b915061137c82611315565b604082019050919050565b600060208201905081810360008301526113a081611364565b9050919050565b7f5469636b6574206d75737420626520696e204163636570742073746174757300600082015250565b60006113dd601f83610dd8565b91506113e8826113a7565b602082019050919050565b6000602082019050818103600083015261140c816113d0565b9050919050565b7f5469636b65745374617274656400000000000000000000000000000000000000600082015250565b6000611449600d83610dd8565b915061145482611413565b602082019050919050565b6000608082019050818103600083015261147981866111ed565b9050818103602083015261148d81856111ed565b905081810360408301526114a08161143c565b90506114af6060830184610dc9565b949350505050565b60006020601f8301049050919050565b600082821b905092915050565b6000600883026115047fffffffffffffffffffffffffffffffffffffffffffffffffffffffffffffffff826114c7565b61150e86836114c7565b95508019841693508086168417925050509392505050565b6000819050919050565b600061154b61154661154184610ad7565b611526565b610ad7565b9050919050565b6000819050919050565b61156583611530565b61157961157182611552565b8484546114d4565b825550505050565b600090565b61158e611581565b61159981848461155c565b505050565b5b818110156115bd576115b2600082611586565b60018101905061159f565b5050565b601f821115611602576115d3816111d8565b6115dc846114b7565b810160208510156115eb578190505b6115ff6115f7856114b7565b83018261159e565b50505b505050565b600082821c905092915050565b600061162560001984600802611607565b1980831691505092915050565b600061163e8383611614565b9150826002028217905092915050565b61165782610ba7565b67ffffffffffffffff8111156116705761166f610e87565b5b61167a82546111a7565b6116858282856115c1565b600060209050601f8311600181146116b857600084156116a6578287015190505b6116b08582611632565b865550611718565b601f1984166116c6866111d8565b60005b828110156116ee578489015182556001820191506020850194506020810190506116c9565b8683101561170b5784890151611707601f891682611614565b8355505b6001600288020188555050505b505050505050565b7f4e487b7100000000000000000000000000000000000000000000000000000000600052601160045260246000fd5b600061175a82610ad7565b915061176583610ad7565b925082820390508181111561177d5761177c611720565b5b92915050565b7f4f6e6c79207468652061737369676e656420776f726b65722063616e2066696e60008201527f69736820746865207469636b6574000000000000000000000000000000000000602082015250565b60006117df602e83610dd8565b91506117ea82611783565b604082019050919050565b6000602082019050818103600083015261180e816117d2565b9050919050565b7f5469636b6574206d75737420626520696e20446f696e67207374617475730000600082015250565b600061184b601e83610dd8565b915061185682611815565b602082019050919050565b6000602082019050818103600083015261187a8161183e565b9050919050565b7f5469636b657446696e6973686564000000000000000000000000000000000000600082015250565b60006118b7600e83610dd8565b91506118c282611881565b602082019050919050565b600060808201905081810360008301526118e781866111ed565b905081810360208301526118fb81856111ed565b9050818103604083015261190e816118aa565b905061191d6060830184610dc9565b94935050505056fea2646970667358221220b68b062eaed4762d69b8c073c481b6dde342fce36867cf4ebbdbeaa8f2f0c2d264736f6c63430008130033",
  "immutableReferences": {},
  "source": "// SPDX-License-Identifier: MIT\r\npragma solidity >=0.8.2 <0.9.0;\r\n\r\ncontract TicketMarketplace {\r\n    enum TicketStatus {\r\n        Proposal,\r\n        Accept,\r\n        Doing,\r\n        Done\r\n    }\r\n\r\n    struct Ticket {\r\n        address customer;\r\n        address worker;\r\n        string description;\r\n        TicketStatus status;\r\n    }\r\n\r\n    string internal ApplicationName = \"TicketMarketplace\";\r\n    string internal WorkflowName = \"TicketMarketplace\";\r\n\r\n    event ContractCreated(\r\n        string applicationName,\r\n        string workflowName,\r\n        address originatingAddress\r\n    );\r\n    event ContractUpdated(\r\n        string applicationName,\r\n        string workflowName,\r\n        string action,\r\n        address originatingAddress\r\n    );\r\n\r\n    Ticket[] public tickets;\r\n\r\n    function createTicket(\r\n        string memory _description\r\n    ) public returns (uint256) {\r\n        tickets.push(\r\n            Ticket({\r\n                customer: msg.sender,\r\n                worker: address(0),\r\n                description: _description,\r\n                status: TicketStatus.Proposal\r\n            })\r\n        );\r\n        return tickets.length - 1;\r\n    }\r\n\r\n    function assignWorker(uint256 ticketIndex) public {\r\n        Ticket storage ticket = tickets[ticketIndex];\r\n        require(\r\n            msg.sender == ticket.customer,\r\n            \"Only the customer can assign a worker\"\r\n        );\r\n        require(\r\n            ticket.status == TicketStatus.Proposal,\r\n            \"Ticket must be in Proposal status\"\r\n        );\r\n        ticket.worker = msg.sender;\r\n        ticket.status = TicketStatus.Accept;\r\n        emit ContractUpdated(\r\n            ApplicationName,\r\n            WorkflowName,\r\n            \"TicketAccepted\",\r\n            msg.sender\r\n        );\r\n    }\r\n\r\n    function startTicket(uint256 ticketIndex) public {\r\n        Ticket storage ticket = tickets[ticketIndex];\r\n        require(\r\n            msg.sender == ticket.worker,\r\n            \"Only the assigned worker can start the ticket\"\r\n        );\r\n        require(\r\n            ticket.status == TicketStatus.Accept,\r\n            \"Ticket must be in Accept status\"\r\n        );\r\n        ticket.status = TicketStatus.Doing;\r\n        emit ContractUpdated(\r\n            ApplicationName,\r\n            WorkflowName,\r\n            \"TicketStarted\",\r\n            msg.sender\r\n        );\r\n    }\r\n\r\n    function finishTicket(uint256 ticketIndex) public {\r\n        Ticket storage ticket = tickets[ticketIndex];\r\n        require(\r\n            msg.sender == ticket.worker,\r\n            \"Only the assigned worker can finish the ticket\"\r\n        );\r\n        require(\r\n            ticket.status == TicketStatus.Doing,\r\n            \"Ticket must be in Doing status\"\r\n        );\r\n        ticket.status = TicketStatus.Done;\r\n        emit ContractUpdated(\r\n            ApplicationName,\r\n            WorkflowName,\r\n            \"TicketFinished\",\r\n            msg.sender\r\n        );\r\n    }\r\n\r\n    function getTickets() public view returns (Ticket[] memory) {\r\n        return tickets;\r\n    }\r\n}\r\n",
  "sourcePath": "D:\\PERSONAL\\expert-manager-fe\\contracts\\TicketMarketplace.sol",
  "compiler": {
    "name": "solc",
    "version": "0.8.19+commit.7dd6d404.Emscripten.clang"
  },
  "schemaVersion": "3.4.13",
  "updatedAt": "2023-06-04T14:36:44.020Z",
  "devdoc": {
    "kind": "dev",
    "methods": {},
    "version": 1
  },
  "userdoc": {
    "kind": "user",
    "methods": {},
    "version": 1
  }
}