{
  "contractName": "TicketMarketplace",
  "abi": [
    {
      "anonymous": false,
      "inputs": [
        {
          "indexed": false,
          "internalType": "string",
          "name": "applicationName",
          "type": "string"
        },
        {
          "indexed": false,
          "internalType": "string",
          "name": "workflowName",
          "type": "string"
        },
        {
          "indexed": false,
          "internalType": "address",
          "name": "originatingAddress",
          "type": "address"
        }
      ],
      "name": "ContractCreated",
      "type": "event"
    },
    {
      "anonymous": false,
      "inputs": [
        {
          "indexed": false,
          "internalType": "string",
          "name": "applicationName",
          "type": "string"
        },
        {
          "indexed": false,
          "internalType": "string",
          "name": "workflowName",
          "type": "string"
        },
        {
          "indexed": false,
          "internalType": "string",
          "name": "action",
          "type": "string"
        },
        {
          "indexed": false,
          "internalType": "address",
          "name": "originatingAddress",
          "type": "address"
        }
      ],
      "name": "ContractUpdated",
      "type": "event"
    },
    {
      "inputs": [
        {
          "internalType": "uint256",
          "name": "",
          "type": "uint256"
        }
      ],
      "name": "tickets",
      "outputs": [
        {
          "internalType": "uint256",
          "name": "id",
          "type": "uint256"
        },
        {
          "internalType": "address",
          "name": "customer",
          "type": "address"
        },
        {
          "internalType": "string",
          "name": "worker",
          "type": "string"
        },
        {
          "internalType": "string",
          "name": "title",
          "type": "string"
        },
        {
          "internalType": "string",
          "name": "description",
          "type": "string"
        },
        {
          "internalType": "string",
          "name": "tag",
          "type": "string"
        },
        {
          "internalType": "string",
          "name": "date",
          "type": "string"
        },
        {
          "internalType": "string",
          "name": "senderEmail",
          "type": "string"
        },
        {
          "internalType": "string",
          "name": "cancelReason",
          "type": "string"
        },
        {
          "internalType": "int256",
          "name": "rate",
          "type": "int256"
        },
        {
          "internalType": "enum TicketMarketplace.TicketStatus",
          "name": "status",
          "type": "uint8"
        }
      ],
      "stateMutability": "view",
      "type": "function",
      "constant": true
    },
    {
      "inputs": [
        {
          "internalType": "string",
          "name": "senderEmail",
          "type": "string"
        },
        {
          "internalType": "string",
          "name": "title",
          "type": "string"
        },
        {
          "internalType": "string",
          "name": "tags",
          "type": "string"
        },
        {
          "internalType": "string",
          "name": "date",
          "type": "string"
        },
        {
          "internalType": "string",
          "name": "_description",
          "type": "string"
        },
        {
          "internalType": "string",
          "name": "target",
          "type": "string"
        }
      ],
      "name": "createTicket",
      "outputs": [
        {
          "internalType": "uint256",
          "name": "",
          "type": "uint256"
        }
      ],
      "stateMutability": "nonpayable",
      "type": "function"
    },
    {
      "inputs": [
        {
          "internalType": "string",
          "name": "cancelReason",
          "type": "string"
        },
        {
          "internalType": "uint256",
          "name": "ticketIndex",
          "type": "uint256"
        }
      ],
      "name": "cancelTicket",
      "outputs": [],
      "stateMutability": "nonpayable",
      "type": "function"
    },
    {
      "inputs": [
        {
          "internalType": "uint256",
          "name": "ticketIndex",
          "type": "uint256"
        }
      ],
      "name": "startTicket",
      "outputs": [],
      "stateMutability": "nonpayable",
      "type": "function"
    },
    {
      "inputs": [
        {
          "internalType": "uint256",
          "name": "ticketIndex",
          "type": "uint256"
        }
      ],
      "name": "expertFinishTicket",
      "outputs": [],
      "stateMutability": "nonpayable",
      "type": "function"
    },
    {
      "inputs": [
        {
          "internalType": "uint256",
          "name": "ticketIndex",
          "type": "uint256"
        },
        {
          "internalType": "int256",
          "name": "rate",
          "type": "int256"
        }
      ],
      "name": "customerDoneTicket",
      "outputs": [],
      "stateMutability": "nonpayable",
      "type": "function"
    },
    {
      "inputs": [
        {
          "internalType": "string",
          "name": "addressString",
          "type": "string"
        }
      ],
      "name": "getTicketsByAddress",
      "outputs": [
        {
          "components": [
            {
              "internalType": "uint256",
              "name": "id",
              "type": "uint256"
            },
            {
              "internalType": "address",
              "name": "customer",
              "type": "address"
            },
            {
              "internalType": "string",
              "name": "worker",
              "type": "string"
            },
            {
              "internalType": "string",
              "name": "title",
              "type": "string"
            },
            {
              "internalType": "string",
              "name": "description",
              "type": "string"
            },
            {
              "internalType": "string",
              "name": "tag",
              "type": "string"
            },
            {
              "internalType": "string",
              "name": "date",
              "type": "string"
            },
            {
              "internalType": "string",
              "name": "senderEmail",
              "type": "string"
            },
            {
              "internalType": "string",
              "name": "cancelReason",
              "type": "string"
            },
            {
              "internalType": "int256",
              "name": "rate",
              "type": "int256"
            },
            {
              "internalType": "enum TicketMarketplace.TicketStatus",
              "name": "status",
              "type": "uint8"
            }
          ],
          "internalType": "struct TicketMarketplace.Ticket[]",
          "name": "",
          "type": "tuple[]"
        }
      ],
      "stateMutability": "view",
      "type": "function",
      "constant": true
    },
    {
      "inputs": [
        {
          "internalType": "address",
          "name": "senderAddress",
          "type": "address"
        }
      ],
      "name": "getYourRequestTicket",
      "outputs": [
        {
          "components": [
            {
              "internalType": "uint256",
              "name": "id",
              "type": "uint256"
            },
            {
              "internalType": "address",
              "name": "customer",
              "type": "address"
            },
            {
              "internalType": "string",
              "name": "worker",
              "type": "string"
            },
            {
              "internalType": "string",
              "name": "title",
              "type": "string"
            },
            {
              "internalType": "string",
              "name": "description",
              "type": "string"
            },
            {
              "internalType": "string",
              "name": "tag",
              "type": "string"
            },
            {
              "internalType": "string",
              "name": "date",
              "type": "string"
            },
            {
              "internalType": "string",
              "name": "senderEmail",
              "type": "string"
            },
            {
              "internalType": "string",
              "name": "cancelReason",
              "type": "string"
            },
            {
              "internalType": "int256",
              "name": "rate",
              "type": "int256"
            },
            {
              "internalType": "enum TicketMarketplace.TicketStatus",
              "name": "status",
              "type": "uint8"
            }
          ],
          "internalType": "struct TicketMarketplace.Ticket[]",
          "name": "",
          "type": "tuple[]"
        }
      ],
      "stateMutability": "view",
      "type": "function",
      "constant": true
    }
  ],
  "bytecode": "0x60806040526040518060400160405280601181526020017f5469636b65744d61726b6574706c616365000000000000000000000000000000815250600090816200004a919062000320565b506040518060400160405280601181526020017f5469636b65744d61726b6574706c6163650000000000000000000000000000008152506001908162000091919062000320565b503480156200009f57600080fd5b5062000407565b600081519050919050565b7f4e487b7100000000000000000000000000000000000000000000000000000000600052604160045260246000fd5b7f4e487b7100000000000000000000000000000000000000000000000000000000600052602260045260246000fd5b600060028204905060018216806200012857607f821691505b6020821081036200013e576200013d620000e0565b5b50919050565b60008190508160005260206000209050919050565b60006020601f8301049050919050565b600082821b905092915050565b600060088302620001a87fffffffffffffffffffffffffffffffffffffffffffffffffffffffffffffffff8262000169565b620001b4868362000169565b95508019841693508086168417925050509392505050565b6000819050919050565b6000819050919050565b600062000201620001fb620001f584620001cc565b620001d6565b620001cc565b9050919050565b6000819050919050565b6200021d83620001e0565b620002356200022c8262000208565b84845462000176565b825550505050565b600090565b6200024c6200023d565b6200025981848462000212565b505050565b5b8181101562000281576200027560008262000242565b6001810190506200025f565b5050565b601f821115620002d0576200029a8162000144565b620002a58462000159565b81016020851015620002b5578190505b620002cd620002c48562000159565b8301826200025e565b50505b505050565b600082821c905092915050565b6000620002f560001984600802620002d5565b1980831691505092915050565b6000620003108383620002e2565b9150826002028217905092915050565b6200032b82620000a6565b67ffffffffffffffff811115620003475762000346620000b1565b5b6200035382546200010f565b6200036082828562000285565b600060209050601f83116001811462000398576000841562000383578287015190505b6200038f858262000302565b865550620003ff565b601f198416620003a88662000144565b60005b82811015620003d257848901518255600182019150602085019450602081019050620003ab565b86831015620003f25784890151620003ee601f891682620002e2565b8355505b6001600288020188555050505b505050505050565b612e8f80620004176000396000f3fe608060405234801561001057600080fd5b50600436106100885760003560e01c806394baafc01161005b57806394baafc01461012f578063ae4619241461015f578063b5bcb1331461017b578063d4d04d7d1461019757610088565b80630926d2371461008d5780634a404c13146100bd57806350b44712146100d95780635a38861114610113575b600080fd5b6100a760048036038101906100a29190611b5e565b6101c7565b6040516100b49190611eae565b60405180910390f35b6100d760048036038101906100d29190611efc565b610873565b005b6100f360048036038101906100ee9190611efc565b61097f565b60405161010a9b9a99989796959493929190611faf565b60405180910390f35b61012d60048036038101906101289190611efc565b610dce565b005b610149600480360381019061014491906120f0565b610eda565b6040516101569190611eae565b60405180910390f35b61017960048036038101906101749190612169565b611545565b005b610195600480360381019061019091906122d9565b6116ed565b005b6101b160048036038101906101ac9190612335565b61184c565b6040516101be919061246a565b60405180910390f35b60606000805b600280549050811015610274578373ffffffffffffffffffffffffffffffffffffffff166002828154811061020557610204612485565b5b90600052602060002090600b020160010160009054906101000a900473ffffffffffffffffffffffffffffffffffffffff1673ffffffffffffffffffffffffffffffffffffffff160361026157818061025d906124e3565b9250505b808061026c906124e3565b9150506101cd565b5060008167ffffffffffffffff811115610291576102906121ae565b5b6040519080825280602002602001820160405280156102ca57816020015b6102b7611a6a565b8152602001906001900390816102af5790505b5090506000805b600280549050811015610867578573ffffffffffffffffffffffffffffffffffffffff166002828154811061030957610308612485565b5b90600052602060002090600b020160010160009054906101000a900473ffffffffffffffffffffffffffffffffffffffff1673ffffffffffffffffffffffffffffffffffffffff1603610854576002818154811061036a57610369612485565b5b90600052602060002090600b020160405180610160016040529081600082015481526020016001820160009054906101000a900473ffffffffffffffffffffffffffffffffffffffff1673ffffffffffffffffffffffffffffffffffffffff1673ffffffffffffffffffffffffffffffffffffffff1681526020016002820180546103f49061255a565b80601f01602080910402602001604051908101604052809291908181526020018280546104209061255a565b801561046d5780601f106104425761010080835404028352916020019161046d565b820191906000526020600020905b81548152906001019060200180831161045057829003601f168201915b505050505081526020016003820180546104869061255a565b80601f01602080910402602001604051908101604052809291908181526020018280546104b29061255a565b80156104ff5780601f106104d4576101008083540402835291602001916104ff565b820191906000526020600020905b8154815290600101906020018083116104e257829003601f168201915b505050505081526020016004820180546105189061255a565b80601f01602080910402602001604051908101604052809291908181526020018280546105449061255a565b80156105915780601f1061056657610100808354040283529160200191610591565b820191906000526020600020905b81548152906001019060200180831161057457829003601f168201915b505050505081526020016005820180546105aa9061255a565b80601f01602080910402602001604051908101604052809291908181526020018280546105d69061255a565b80156106235780601f106105f857610100808354040283529160200191610623565b820191906000526020600020905b81548152906001019060200180831161060657829003601f168201915b5050505050815260200160068201805461063c9061255a565b80601f01602080910402602001604051908101604052809291908181526020018280546106689061255a565b80156106b55780601f1061068a576101008083540402835291602001916106b5565b820191906000526020600020905b81548152906001019060200180831161069857829003601f168201915b505050505081526020016007820180546106ce9061255a565b80601f01602080910402602001604051908101604052809291908181526020018280546106fa9061255a565b80156107475780601f1061071c57610100808354040283529160200191610747565b820191906000526020600020905b81548152906001019060200180831161072a57829003601f168201915b505050505081526020016008820180546107609061255a565b80601f016020809104026020016040519081016040528092919081815260200182805461078c9061255a565b80156107d95780601f106107ae576101008083540402835291602001916107d9565b820191906000526020600020905b8154815290600101906020018083116107bc57829003601f168201915b5050505050815260200160098201548152602001600a820160009054906101000a900460ff16600481111561081157610810611c88565b5b600481111561082357610822611c88565b5b8152505083838151811061083a57610839612485565b5b60200260200101819052508180610850906124e3565b9250505b808061085f906124e3565b9150506102d1565b50819350505050919050565b60006002828154811061088957610888612485565b5b90600052602060002090600b02019050600160048111156108ad576108ac611c88565b5b81600a0160009054906101000a900460ff1660048111156108d1576108d0611c88565b5b14610911576040517f08c379a0000000000000000000000000000000000000000000000000000000008152600401610908906125d7565b60405180910390fd5b600381600a0160006101000a81548160ff0219169083600481111561093957610938611c88565b5b02179055507fbc3f77ce3a281e615c85054a5814e59703e2ee0cf33782f46911e0888d4c394c6000600133604051610973939291906126dc565b60405180910390a15050565b6002818154811061098f57600080fd5b90600052602060002090600b02016000915090508060000154908060010160009054906101000a900473ffffffffffffffffffffffffffffffffffffffff16908060020180546109de9061255a565b80601f0160208091040260200160405190810160405280929190818152602001828054610a0a9061255a565b8015610a575780601f10610a2c57610100808354040283529160200191610a57565b820191906000526020600020905b815481529060010190602001808311610a3a57829003601f168201915b505050505090806003018054610a6c9061255a565b80601f0160208091040260200160405190810160405280929190818152602001828054610a989061255a565b8015610ae55780601f10610aba57610100808354040283529160200191610ae5565b820191906000526020600020905b815481529060010190602001808311610ac857829003601f168201915b505050505090806004018054610afa9061255a565b80601f0160208091040260200160405190810160405280929190818152602001828054610b269061255a565b8015610b735780601f10610b4857610100808354040283529160200191610b73565b820191906000526020600020905b815481529060010190602001808311610b5657829003601f168201915b505050505090806005018054610b889061255a565b80601f0160208091040260200160405190810160405280929190818152602001828054610bb49061255a565b8015610c015780601f10610bd657610100808354040283529160200191610c01565b820191906000526020600020905b815481529060010190602001808311610be457829003601f168201915b505050505090806006018054610c169061255a565b80601f0160208091040260200160405190810160405280929190818152602001828054610c429061255a565b8015610c8f5780601f10610c6457610100808354040283529160200191610c8f565b820191906000526020600020905b815481529060010190602001808311610c7257829003601f168201915b505050505090806007018054610ca49061255a565b80601f0160208091040260200160405190810160405280929190818152602001828054610cd09061255a565b8015610d1d5780601f10610cf257610100808354040283529160200191610d1d565b820191906000526020600020905b815481529060010190602001808311610d0057829003601f168201915b505050505090806008018054610d329061255a565b80601f0160208091040260200160405190810160405280929190818152602001828054610d5e9061255a565b8015610dab5780601f10610d8057610100808354040283529160200191610dab565b820191906000526020600020905b815481529060010190602001808311610d8e57829003601f168201915b50505050509080600901549080600a0160009054906101000a900460ff1690508b565b600060028281548110610de457610de3612485565b5b90600052602060002090600b0201905060006004811115610e0857610e07611c88565b5b81600a0160009054906101000a900460ff166004811115610e2c57610e2b611c88565b5b14610e6c576040517f08c379a0000000000000000000000000000000000000000000000000000000008152600401610e63906127a6565b60405180910390fd5b600181600a0160006101000a81548160ff02191690836004811115610e9457610e93611c88565b5b02179055507fbc3f77ce3a281e615c85054a5814e59703e2ee0cf33782f46911e0888d4c394c6000600133604051610ece93929190612812565b60405180910390a15050565b60606000805b600280549050811015610f66578484604051610efd92919061289a565b604051809103902060028281548110610f1957610f18612485565b5b90600052602060002090600b0201600201604051610f37919061294b565b604051809103902003610f53578180610f4f906124e3565b9250505b8080610f5e906124e3565b915050610ee0565b5060008167ffffffffffffffff811115610f8357610f826121ae565b5b604051908082528060200260200182016040528015610fbc57816020015b610fa9611a6a565b815260200190600190039081610fa15790505b5090506000805b600280549050811015611538578686604051610fe092919061289a565b604051809103902060028281548110610ffc57610ffb612485565b5b90600052602060002090600b020160020160405161101a919061294b565b604051809103902003611525576002818154811061103b5761103a612485565b5b90600052602060002090600b020160405180610160016040529081600082015481526020016001820160009054906101000a900473ffffffffffffffffffffffffffffffffffffffff1673ffffffffffffffffffffffffffffffffffffffff1673ffffffffffffffffffffffffffffffffffffffff1681526020016002820180546110c59061255a565b80601f01602080910402602001604051908101604052809291908181526020018280546110f19061255a565b801561113e5780601f106111135761010080835404028352916020019161113e565b820191906000526020600020905b81548152906001019060200180831161112157829003601f168201915b505050505081526020016003820180546111579061255a565b80601f01602080910402602001604051908101604052809291908181526020018280546111839061255a565b80156111d05780601f106111a5576101008083540402835291602001916111d0565b820191906000526020600020905b8154815290600101906020018083116111b357829003601f168201915b505050505081526020016004820180546111e99061255a565b80601f01602080910402602001604051908101604052809291908181526020018280546112159061255a565b80156112625780601f1061123757610100808354040283529160200191611262565b820191906000526020600020905b81548152906001019060200180831161124557829003601f168201915b5050505050815260200160058201805461127b9061255a565b80601f01602080910402602001604051908101604052809291908181526020018280546112a79061255a565b80156112f45780601f106112c9576101008083540402835291602001916112f4565b820191906000526020600020905b8154815290600101906020018083116112d757829003601f168201915b5050505050815260200160068201805461130d9061255a565b80601f01602080910402602001604051908101604052809291908181526020018280546113399061255a565b80156113865780601f1061135b57610100808354040283529160200191611386565b820191906000526020600020905b81548152906001019060200180831161136957829003601f168201915b5050505050815260200160078201805461139f9061255a565b80601f01602080910402602001604051908101604052809291908181526020018280546113cb9061255a565b80156114185780601f106113ed57610100808354040283529160200191611418565b820191906000526020600020905b8154815290600101906020018083116113fb57829003601f168201915b505050505081526020016008820180546114319061255a565b80601f016020809104026020016040519081016040528092919081815260200182805461145d9061255a565b80156114aa5780601f1061147f576101008083540402835291602001916114aa565b820191906000526020600020905b81548152906001019060200180831161148d57829003601f168201915b5050505050815260200160098201548152602001600a820160009054906101000a900460ff1660048111156114e2576114e1611c88565b5b60048111156114f4576114f3611c88565b5b8152505083838151811061150b5761150a612485565b5b60200260200101819052508180611521906124e3565b9250505b8080611530906124e3565b915050610fc3565b5081935050505092915050565b60006002838154811061155b5761155a612485565b5b90600052602060002090600b020190508060010160009054906101000a900473ffffffffffffffffffffffffffffffffffffffff1673ffffffffffffffffffffffffffffffffffffffff163373ffffffffffffffffffffffffffffffffffffffff16146115fd576040517f08c379a00000000000000000000000000000000000000000000000000000000081526004016115f4906129d4565b60405180910390fd5b6003600481111561161157611610611c88565b5b81600a0160009054906101000a900460ff16600481111561163557611634611c88565b5b14611675576040517f08c379a000000000000000000000000000000000000000000000000000000000815260040161166c90612a66565b60405180910390fd5b600481600a0160006101000a81548160ff0219169083600481111561169d5761169c611c88565b5b02179055508181600901819055507fbc3f77ce3a281e615c85054a5814e59703e2ee0cf33782f46911e0888d4c394c60006001336040516116e0939291906126dc565b60405180910390a1505050565b60006002828154811061170357611702612485565b5b90600052602060002090600b020190506000600481111561172757611726611c88565b5b81600a0160009054906101000a900460ff16600481111561174b5761174a611c88565b5b148061178c57506003600481111561176657611765611c88565b5b81600a0160009054906101000a900460ff16600481111561178a57611789611c88565b5b145b6117cb576040517f08c379a00000000000000000000000000000000000000000000000000000000081526004016117c290612af8565b60405180910390fd5b600281600a0160006101000a81548160ff021916908360048111156117f3576117f2611c88565b5b0217905550828160080190816118099190612caf565b507fbc3f77ce3a281e615c85054a5814e59703e2ee0cf33782f46911e0888d4c394c600060013360405161183f93929190612dcd565b60405180910390a1505050565b6000600260405180610160016040528060028054905081526020013373ffffffffffffffffffffffffffffffffffffffff1681526020018481526020018881526020018581526020018781526020018681526020018981526020016040518060200160405280600081525081526020017fffffffffffffffffffffffffffffffffffffffffffffffffffffffffffffffff8152602001600060048111156118f6576118f5611c88565b5b81525090806001815401808255809150506001900390600052602060002090600b02016000909190919091506000820151816000015560208201518160010160006101000a81548173ffffffffffffffffffffffffffffffffffffffff021916908373ffffffffffffffffffffffffffffffffffffffff16021790555060408201518160020190816119889190612caf565b50606082015181600301908161199e9190612caf565b5060808201518160040190816119b49190612caf565b5060a08201518160050190816119ca9190612caf565b5060c08201518160060190816119e09190612caf565b5060e08201518160070190816119f69190612caf565b50610100820151816008019081611a0d9190612caf565b50610120820151816009015561014082015181600a0160006101000a81548160ff02191690836004811115611a4557611a44611c88565b5b021790555050506001600280549050611a5e9190612e25565b90509695505050505050565b60405180610160016040528060008152602001600073ffffffffffffffffffffffffffffffffffffffff168152602001606081526020016060815260200160608152602001606081526020016060815260200160608152602001606081526020016000815260200160006004811115611ae657611ae5611c88565b5b81525090565b6000604051905090565b600080fd5b600080fd5b600073ffffffffffffffffffffffffffffffffffffffff82169050919050565b6000611b2b82611b00565b9050919050565b611b3b81611b20565b8114611b4657600080fd5b50565b600081359050611b5881611b32565b92915050565b600060208284031215611b7457611b73611af6565b5b6000611b8284828501611b49565b91505092915050565b600081519050919050565b600082825260208201905092915050565b6000819050602082019050919050565b6000819050919050565b611bca81611bb7565b82525050565b611bd981611b20565b82525050565b600081519050919050565b600082825260208201905092915050565b60005b83811015611c19578082015181840152602081019050611bfe565b60008484015250505050565b6000601f19601f8301169050919050565b6000611c4182611bdf565b611c4b8185611bea565b9350611c5b818560208601611bfb565b611c6481611c25565b840191505092915050565b6000819050919050565b611c8281611c6f565b82525050565b7f4e487b7100000000000000000000000000000000000000000000000000000000600052602160045260246000fd5b60058110611cc857611cc7611c88565b5b50565b6000819050611cd982611cb7565b919050565b6000611ce982611ccb565b9050919050565b611cf981611cde565b82525050565b600061016083016000830151611d186000860182611bc1565b506020830151611d2b6020860182611bd0565b5060408301518482036040860152611d438282611c36565b91505060608301518482036060860152611d5d8282611c36565b91505060808301518482036080860152611d778282611c36565b91505060a083015184820360a0860152611d918282611c36565b91505060c083015184820360c0860152611dab8282611c36565b91505060e083015184820360e0860152611dc58282611c36565b915050610100830151848203610100860152611de18282611c36565b915050610120830151611df8610120860182611c79565b50610140830151611e0d610140860182611cf0565b508091505092915050565b6000611e248383611cff565b905092915050565b6000602082019050919050565b6000611e4482611b8b565b611e4e8185611b96565b935083602082028501611e6085611ba7565b8060005b85811015611e9c5784840389528151611e7d8582611e18565b9450611e8883611e2c565b925060208a01995050600181019050611e64565b50829750879550505050505092915050565b60006020820190508181036000830152611ec88184611e39565b905092915050565b611ed981611bb7565b8114611ee457600080fd5b50565b600081359050611ef681611ed0565b92915050565b600060208284031215611f1257611f11611af6565b5b6000611f2084828501611ee7565b91505092915050565b611f3281611bb7565b82525050565b611f4181611b20565b82525050565b600082825260208201905092915050565b6000611f6382611bdf565b611f6d8185611f47565b9350611f7d818560208601611bfb565b611f8681611c25565b840191505092915050565b611f9a81611c6f565b82525050565b611fa981611cde565b82525050565b600061016082019050611fc5600083018e611f29565b611fd2602083018d611f38565b8181036040830152611fe4818c611f58565b90508181036060830152611ff8818b611f58565b9050818103608083015261200c818a611f58565b905081810360a08301526120208189611f58565b905081810360c08301526120348188611f58565b905081810360e08301526120488187611f58565b905081810361010083015261205d8186611f58565b905061206d610120830185611f91565b61207b610140830184611fa0565b9c9b505050505050505050505050565b600080fd5b600080fd5b600080fd5b60008083601f8401126120b0576120af61208b565b5b8235905067ffffffffffffffff8111156120cd576120cc612090565b5b6020830191508360018202830111156120e9576120e8612095565b5b9250929050565b6000806020838503121561210757612106611af6565b5b600083013567ffffffffffffffff81111561212557612124611afb565b5b6121318582860161209a565b92509250509250929050565b61214681611c6f565b811461215157600080fd5b50565b6000813590506121638161213d565b92915050565b600080604083850312156121805761217f611af6565b5b600061218e85828601611ee7565b925050602061219f85828601612154565b9150509250929050565b600080fd5b7f4e487b7100000000000000000000000000000000000000000000000000000000600052604160045260246000fd5b6121e682611c25565b810181811067ffffffffffffffff82111715612205576122046121ae565b5b80604052505050565b6000612218611aec565b905061222482826121dd565b919050565b600067ffffffffffffffff821115612244576122436121ae565b5b61224d82611c25565b9050602081019050919050565b82818337600083830152505050565b600061227c61227784612229565b61220e565b905082815260208101848484011115612298576122976121a9565b5b6122a384828561225a565b509392505050565b600082601f8301126122c0576122bf61208b565b5b81356122d0848260208601612269565b91505092915050565b600080604083850312156122f0576122ef611af6565b5b600083013567ffffffffffffffff81111561230e5761230d611afb565b5b61231a858286016122ab565b925050602061232b85828601611ee7565b9150509250929050565b60008060008060008060c0878903121561235257612351611af6565b5b600087013567ffffffffffffffff8111156123705761236f611afb565b5b61237c89828a016122ab565b965050602087013567ffffffffffffffff81111561239d5761239c611afb565b5b6123a989828a016122ab565b955050604087013567ffffffffffffffff8111156123ca576123c9611afb565b5b6123d689828a016122ab565b945050606087013567ffffffffffffffff8111156123f7576123f6611afb565b5b61240389828a016122ab565b935050608087013567ffffffffffffffff81111561242457612423611afb565b5b61243089828a016122ab565b92505060a087013567ffffffffffffffff81111561245157612450611afb565b5b61245d89828a016122ab565b9150509295509295509295565b600060208201905061247f6000830184611f29565b92915050565b7f4e487b7100000000000000000000000000000000000000000000000000000000600052603260045260246000fd5b7f4e487b7100000000000000000000000000000000000000000000000000000000600052601160045260246000fd5b60006124ee82611bb7565b91507fffffffffffffffffffffffffffffffffffffffffffffffffffffffffffffffff82036125205761251f6124b4565b5b600182019050919050565b7f4e487b7100000000000000000000000000000000000000000000000000000000600052602260045260246000fd5b6000600282049050600182168061257257607f821691505b6020821081036125855761258461252b565b5b50919050565b7f5469636b6574206d75737420626520696e20446f696e67207374617475730000600082015250565b60006125c1601e83611f47565b91506125cc8261258b565b602082019050919050565b600060208201905081810360008301526125f0816125b4565b9050919050565b60008190508160005260206000209050919050565b600081546126198161255a565b6126238186611f47565b9450600182166000811461263e576001811461265457612687565b60ff198316865281151560200286019350612687565b61265d856125f7565b60005b8381101561267f57815481890152600182019150602081019050612660565b808801955050505b50505092915050565b7f5469636b657446696e6973686564000000000000000000000000000000000000600082015250565b60006126c6600e83611f47565b91506126d182612690565b602082019050919050565b600060808201905081810360008301526126f6818661260c565b9050818103602083015261270a818561260c565b9050818103604083015261271d816126b9565b905061272c6060830184611f38565b949350505050565b7f5469636b6574206d75737420626520696e2050726f706f73616c20737461747560008201527f7300000000000000000000000000000000000000000000000000000000000000602082015250565b6000612790602183611f47565b915061279b82612734565b604082019050919050565b600060208201905081810360008301526127bf81612783565b9050919050565b7f5469636b65745374617274656400000000000000000000000000000000000000600082015250565b60006127fc600d83611f47565b9150612807826127c6565b602082019050919050565b6000608082019050818103600083015261282c818661260c565b90508181036020830152612840818561260c565b90508181036040830152612853816127ef565b90506128626060830184611f38565b949350505050565b600081905092915050565b6000612881838561286a565b935061288e83858461225a565b82840190509392505050565b60006128a7828486612875565b91508190509392505050565b60008190508160005260206000209050919050565b600081546128d58161255a565b6128df818661286a565b945060018216600081146128fa576001811461290f57612942565b60ff1983168652811515820286019350612942565b612918856128b3565b60005b8381101561293a5781548189015260018201915060208101905061291b565b838801955050505b50505092915050565b600061295782846128c8565b915081905092915050565b7f5469636b6574206d7573742062652066696e69736820627920637573746f6d6560008201527f7200000000000000000000000000000000000000000000000000000000000000602082015250565b60006129be602183611f47565b91506129c982612962565b604082019050919050565b600060208201905081810360008301526129ed816129b1565b9050919050565b7f5469636b6574206d75737420626520696e20646f6e652062792074686520657860008201527f7065727400000000000000000000000000000000000000000000000000000000602082015250565b6000612a50602483611f47565b9150612a5b826129f4565b604082019050919050565b60006020820190508181036000830152612a7f81612a43565b9050919050565b7f596f752063616e27742063616e63656c20746865207469636b6574206966207360008201527f7461727465640000000000000000000000000000000000000000000000000000602082015250565b6000612ae2602683611f47565b9150612aed82612a86565b604082019050919050565b60006020820190508181036000830152612b1181612ad5565b9050919050565b60006020601f8301049050919050565b600082821b905092915050565b600060088302612b657fffffffffffffffffffffffffffffffffffffffffffffffffffffffffffffffff82612b28565b612b6f8683612b28565b95508019841693508086168417925050509392505050565b6000819050919050565b6000612bac612ba7612ba284611bb7565b612b87565b611bb7565b9050919050565b6000819050919050565b612bc683612b91565b612bda612bd282612bb3565b848454612b35565b825550505050565b600090565b612bef612be2565b612bfa818484612bbd565b505050565b5b81811015612c1e57612c13600082612be7565b600181019050612c00565b5050565b601f821115612c6357612c34816125f7565b612c3d84612b18565b81016020851015612c4c578190505b612c60612c5885612b18565b830182612bff565b50505b505050565b600082821c905092915050565b6000612c8660001984600802612c68565b1980831691505092915050565b6000612c9f8383612c75565b9150826002028217905092915050565b612cb882611bdf565b67ffffffffffffffff811115612cd157612cd06121ae565b5b612cdb825461255a565b612ce6828285612c22565b600060209050601f831160018114612d195760008415612d07578287015190505b612d118582612c93565b865550612d79565b601f198416612d27866125f7565b60005b82811015612d4f57848901518255600182019150602085019450602081019050612d2a565b86831015612d6c5784890151612d68601f891682612c75565b8355505b6001600288020188555050505b505050505050565b7f5469636b65744163636570746564000000000000000000000000000000000000600082015250565b6000612db7600e83611f47565b9150612dc282612d81565b602082019050919050565b60006080820190508181036000830152612de7818661260c565b90508181036020830152612dfb818561260c565b90508181036040830152612e0e81612daa565b9050612e1d6060830184611f38565b949350505050565b6000612e3082611bb7565b9150612e3b83611bb7565b9250828203905081811115612e5357612e526124b4565b5b9291505056fea26469706673582212203272f6a7684e4f4a7b57290204c61f08f319b6e6e349e85bfa87c24735a905cb64736f6c63430008130033",
  "immutableReferences": {},
  "source": "// SPDX-License-Identifier: MIT\r\npragma solidity 0.8.19;\r\n\r\ncontract TicketMarketplace {\r\n    enum TicketStatus {\r\n        Proposal,\r\n        Doing,\r\n        Cancel,\r\n        ExpertDone,\r\n        CustDone\r\n    }\r\n\r\n    struct Ticket {\r\n        uint256 id;\r\n        address customer;\r\n        string worker;\r\n        string title;\r\n        string description;\r\n        string tag;\r\n        string date;\r\n        string senderEmail;\r\n        string cancelReason;\r\n        int rate;\r\n        TicketStatus status;\r\n    }\r\n\r\n    string internal ApplicationName = \"TicketMarketplace\";\r\n    string internal WorkflowName = \"TicketMarketplace\";\r\n\r\n    event ContractCreated(\r\n        string applicationName,\r\n        string workflowName,\r\n        address originatingAddress\r\n    );\r\n    event ContractUpdated(\r\n        string applicationName,\r\n        string workflowName,\r\n        string action,\r\n        address originatingAddress\r\n    );\r\n\r\n    Ticket[] public tickets;\r\n\r\n    function createTicket(\r\n        string memory senderEmail,\r\n        string memory title,\r\n        string memory tags,\r\n        string memory date,\r\n        string memory _description,\r\n        string memory target\r\n    ) public returns (uint256) {\r\n        tickets.push(\r\n            Ticket({\r\n                id: tickets.length,\r\n                customer: msg.sender,\r\n                senderEmail: senderEmail,\r\n                cancelReason: \"\",\r\n                title: title,\r\n                worker: target,\r\n                date: date,\r\n                description: _description,\r\n                status: TicketStatus.Proposal,\r\n                rate: -1,\r\n                tag: tags\r\n            })\r\n        );\r\n        return tickets.length - 1;\r\n    }\r\n\r\n    function cancelTicket(\r\n        string memory cancelReason,\r\n        uint256 ticketIndex\r\n    ) public {\r\n        Ticket storage ticket = tickets[ticketIndex];\r\n        require(\r\n            ticket.status == TicketStatus.Proposal || ticket.status == TicketStatus.ExpertDone,\r\n            \"You can't cancel the ticket if started\"\r\n        );\r\n        ticket.status = TicketStatus.Cancel;\r\n        ticket.cancelReason = cancelReason;\r\n        emit ContractUpdated(\r\n            ApplicationName,\r\n            WorkflowName,\r\n            \"TicketAccepted\",\r\n            msg.sender\r\n        );\r\n    }\r\n\r\n    function startTicket(\r\n        uint256 ticketIndex\r\n    ) public {\r\n        Ticket storage ticket = tickets[ticketIndex];\r\n        // require(\r\n        //     abi.encodePacked(msg.sender) == keccak256(bytes(ticket.worker)),\r\n        //     \"Sender can't start they own ticket\"\r\n        // );\r\n        require(\r\n            ticket.status == TicketStatus.Proposal,\r\n            \"Ticket must be in Proposal status\"\r\n        );\r\n        ticket.status = TicketStatus.Doing;\r\n        emit ContractUpdated(\r\n            ApplicationName,\r\n            WorkflowName,\r\n            \"TicketStarted\",\r\n            msg.sender\r\n        );\r\n    }\r\n\r\n    function expertFinishTicket(uint256 ticketIndex) public {\r\n        Ticket storage ticket = tickets[ticketIndex];\r\n        // require(\r\n        //     msg.sender == keccak256(ticket.worker),\r\n        //     \"Only the assigned worker can complete the ticket\"\r\n        // );\r\n        require(\r\n            ticket.status == TicketStatus.Doing,\r\n            \"Ticket must be in Doing status\"\r\n        );\r\n        ticket.status = TicketStatus.ExpertDone;\r\n        emit ContractUpdated(\r\n            ApplicationName,\r\n            WorkflowName,\r\n            \"TicketFinished\",\r\n            msg.sender\r\n        );\r\n    }\r\n\r\n\r\n    function customerDoneTicket(uint256 ticketIndex, int256 rate) public {\r\n        Ticket storage ticket = tickets[ticketIndex];\r\n        require(\r\n            msg.sender == ticket.customer,\r\n            \"Ticket must be finish by customer\"\r\n        );\r\n        require(\r\n            ticket.status == TicketStatus.ExpertDone,\r\n            \"Ticket must be in done by the expert\"\r\n        );\r\n        ticket.status = TicketStatus.CustDone;\r\n        ticket.rate = rate;\r\n        emit ContractUpdated(\r\n            ApplicationName,\r\n            WorkflowName,\r\n            \"TicketFinished\",\r\n            msg.sender\r\n        );\r\n    }\r\n\r\n    function getTicketsByAddress(\r\n        string calldata addressString\r\n    ) public view returns (Ticket[] memory) {\r\n\r\n\r\n        uint256 count = 0;\r\n        for (uint256 i = 0; i < tickets.length; i++) {\r\n            if (keccak256(bytes(tickets[i].worker)) == keccak256(bytes(addressString))) {\r\n                count++;\r\n            }\r\n        }\r\n\r\n        Ticket[] memory filteredItems = new Ticket[](count);\r\n        uint256 index = 0;\r\n        for (uint256 i = 0; i < tickets.length; i++) {\r\n            if (keccak256(bytes(tickets[i].worker)) == keccak256(bytes(addressString))) {\r\n                filteredItems[index] = tickets[i];\r\n                index++;\r\n            }\r\n        }\r\n\r\n        return filteredItems;\r\n    }\r\n\r\n\r\n    function getYourRequestTicket(address senderAddress) public view returns (Ticket[] memory) {\r\n\r\n        uint256 count = 0;\r\n        for (uint256 i = 0; i < tickets.length; i++) {\r\n            if (tickets[i].customer == senderAddress) {\r\n                count++;\r\n            }\r\n        }\r\n\r\n        Ticket[] memory filteredItems = new Ticket[](count);\r\n        uint256 index = 0;\r\n        for (uint256 i = 0; i < tickets.length; i++) {\r\n            if (tickets[i].customer == senderAddress) {\r\n                filteredItems[index] = tickets[i];\r\n                index++;\r\n            }\r\n        }\r\n\r\n        return filteredItems;\r\n    }\r\n}\r\n",
  "sourcePath": "D:\\DuancuaThien\\blc-fe\\contracts\\TicketMarketplace.sol",
  "compiler": {
    "name": "solc",
    "version": "0.8.19+commit.7dd6d404.Emscripten.clang"
  },
  "schemaVersion": "3.4.14",
  "updatedAt": "2023-06-22T20:41:48.284Z",
  "networkType": "ethereum",
  "devdoc": {
    "kind": "dev",
    "methods": {},
    "version": 1
  },
  "userdoc": {
    "kind": "user",
    "methods": {},
    "version": 1
  }
}