{
  "contractName": "TicketMarketplace",
  "abi": [
    {
      "anonymous": false,
      "inputs": [
        {
          "indexed": false,
          "internalType": "string",
          "name": "applicationName",
          "type": "string"
        },
        {
          "indexed": false,
          "internalType": "string",
          "name": "workflowName",
          "type": "string"
        },
        {
          "indexed": false,
          "internalType": "address",
          "name": "originatingAddress",
          "type": "address"
        }
      ],
      "name": "ContractCreated",
      "type": "event"
    },
    {
      "anonymous": false,
      "inputs": [
        {
          "indexed": false,
          "internalType": "string",
          "name": "applicationName",
          "type": "string"
        },
        {
          "indexed": false,
          "internalType": "string",
          "name": "workflowName",
          "type": "string"
        },
        {
          "indexed": false,
          "internalType": "string",
          "name": "action",
          "type": "string"
        },
        {
          "indexed": false,
          "internalType": "address",
          "name": "originatingAddress",
          "type": "address"
        }
      ],
      "name": "ContractUpdated",
      "type": "event"
    },
    {
      "inputs": [
        {
          "internalType": "uint256",
          "name": "",
          "type": "uint256"
        }
      ],
      "name": "tickets",
      "outputs": [
        {
          "internalType": "address",
          "name": "customer",
          "type": "address"
        },
        {
          "internalType": "string",
          "name": "worker",
          "type": "string"
        },
        {
          "internalType": "string",
          "name": "description",
          "type": "string"
        },
        {
          "internalType": "string",
          "name": "tag",
          "type": "string"
        },
        {
          "internalType": "int256",
          "name": "rate",
          "type": "int256"
        },
        {
          "internalType": "enum TicketMarketplace.TicketStatus",
          "name": "status",
          "type": "uint8"
        }
      ],
      "stateMutability": "view",
      "type": "function",
      "constant": true
    },
    {
      "inputs": [
        {
          "internalType": "string",
          "name": "tags",
          "type": "string"
        },
        {
          "internalType": "string",
          "name": "_description",
          "type": "string"
        },
        {
          "internalType": "string",
          "name": "target",
          "type": "string"
        }
      ],
      "name": "createTicket",
      "outputs": [
        {
          "internalType": "uint256",
          "name": "",
          "type": "uint256"
        }
      ],
      "stateMutability": "nonpayable",
      "type": "function"
    },
    {
      "inputs": [
        {
          "internalType": "uint256",
          "name": "ticketIndex",
          "type": "uint256"
        }
      ],
      "name": "cancelTicket",
      "outputs": [],
      "stateMutability": "nonpayable",
      "type": "function"
    },
    {
      "inputs": [
        {
          "internalType": "uint256",
          "name": "ticketIndex",
          "type": "uint256"
        }
      ],
      "name": "startTicket",
      "outputs": [],
      "stateMutability": "nonpayable",
      "type": "function"
    },
    {
      "inputs": [
        {
          "internalType": "uint256",
          "name": "ticketIndex",
          "type": "uint256"
        }
      ],
      "name": "expertFinishTicket",
      "outputs": [],
      "stateMutability": "nonpayable",
      "type": "function"
    },
    {
      "inputs": [
        {
          "internalType": "uint256",
          "name": "ticketIndex",
          "type": "uint256"
        },
        {
          "internalType": "int256",
          "name": "rate",
          "type": "int256"
        }
      ],
      "name": "customerDoneTicket",
      "outputs": [],
      "stateMutability": "nonpayable",
      "type": "function"
    },
    {
      "inputs": [
        {
          "internalType": "string",
          "name": "addressString",
          "type": "string"
        }
      ],
      "name": "getTickets",
      "outputs": [
        {
          "components": [
            {
              "internalType": "address",
              "name": "customer",
              "type": "address"
            },
            {
              "internalType": "string",
              "name": "worker",
              "type": "string"
            },
            {
              "internalType": "string",
              "name": "description",
              "type": "string"
            },
            {
              "internalType": "string",
              "name": "tag",
              "type": "string"
            },
            {
              "internalType": "int256",
              "name": "rate",
              "type": "int256"
            },
            {
              "internalType": "enum TicketMarketplace.TicketStatus",
              "name": "status",
              "type": "uint8"
            }
          ],
          "internalType": "struct TicketMarketplace.Ticket[]",
          "name": "",
          "type": "tuple[]"
        }
      ],
      "stateMutability": "view",
      "type": "function",
      "constant": true
    }
  ],
  "bytecode": "0x60806040526040518060400160405280601181526020017f5469636b65744d61726b6574706c616365000000000000000000000000000000815250600090816200004a919062000320565b506040518060400160405280601181526020017f5469636b65744d61726b6574706c6163650000000000000000000000000000008152506001908162000091919062000320565b503480156200009f57600080fd5b5062000407565b600081519050919050565b7f4e487b7100000000000000000000000000000000000000000000000000000000600052604160045260246000fd5b7f4e487b7100000000000000000000000000000000000000000000000000000000600052602260045260246000fd5b600060028204905060018216806200012857607f821691505b6020821081036200013e576200013d620000e0565b5b50919050565b60008190508160005260206000209050919050565b60006020601f8301049050919050565b600082821b905092915050565b600060088302620001a87fffffffffffffffffffffffffffffffffffffffffffffffffffffffffffffffff8262000169565b620001b4868362000169565b95508019841693508086168417925050509392505050565b6000819050919050565b6000819050919050565b600062000201620001fb620001f584620001cc565b620001d6565b620001cc565b9050919050565b6000819050919050565b6200021d83620001e0565b620002356200022c8262000208565b84845462000176565b825550505050565b600090565b6200024c6200023d565b6200025981848462000212565b505050565b5b8181101562000281576200027560008262000242565b6001810190506200025f565b5050565b601f821115620002d0576200029a8162000144565b620002a58462000159565b81016020851015620002b5578190505b620002cd620002c48562000159565b8301826200025e565b50505b505050565b600082821c905092915050565b6000620002f560001984600802620002d5565b1980831691505092915050565b6000620003108383620002e2565b9150826002028217905092915050565b6200032b82620000a6565b67ffffffffffffffff811115620003475762000346620000b1565b5b6200035382546200010f565b6200036082828562000285565b600060209050601f83116001811462000398576000841562000383578287015190505b6200038f858262000302565b865550620003ff565b601f198416620003a88662000144565b60005b82811015620003d257848901518255600182019150602085019450602081019050620003ab565b86831015620003f25784890151620003ee601f891682620002e2565b8355505b6001600288020188555050505b505050505050565b611fc680620004176000396000f3fe608060405234801561001057600080fd5b506004361061007d5760003560e01c80635a3886111161005b5780635a38861114610103578063ab21b0551461011f578063ae4619241461014f578063ee355b1f1461016b5761007d565b80633dc261f9146100825780634a404c13146100b257806350b44712146100ce575b600080fd5b61009c60048036038101906100979190610fb7565b610187565b6040516100a99190611077565b60405180910390f35b6100cc60048036038101906100c791906110be565b61030a565b005b6100e860048036038101906100e391906110be565b610416565b6040516100fa9695949392919061123b565b60405180910390f35b61011d600480360381019061011891906110be565b610627565b005b61013960048036038101906101349190611311565b610733565b604051610146919061152e565b60405180910390f35b6101696004803603810190610164919061157c565b610b4b565b005b610185600480360381019061018091906110be565b610cf3565b005b600060026040518060c001604052803373ffffffffffffffffffffffffffffffffffffffff1681526020018481526020018581526020018681526020017fffffffffffffffffffffffffffffffffffffffffffffffffffffffffffffffff8152602001600060048111156101fe576101fd6111c4565b5b815250908060018154018082558091505060019003906000526020600020906006020160009091909190915060008201518160000160006101000a81548173ffffffffffffffffffffffffffffffffffffffff021916908373ffffffffffffffffffffffffffffffffffffffff160217905550602082015181600101908161028691906117c8565b50604082015181600201908161029c91906117c8565b5060608201518160030190816102b291906117c8565b506080820151816004015560a08201518160050160006101000a81548160ff021916908360048111156102e8576102e76111c4565b5b02179055505050600160028054905061030191906118c9565b90509392505050565b6000600282815481106103205761031f6118fd565b5b9060005260206000209060060201905060016004811115610344576103436111c4565b5b8160050160009054906101000a900460ff166004811115610368576103676111c4565b5b146103a8576040517f08c379a000000000000000000000000000000000000000000000000000000000815260040161039f90611978565b60405180910390fd5b60038160050160006101000a81548160ff021916908360048111156103d0576103cf6111c4565b5b02179055507fbc3f77ce3a281e615c85054a5814e59703e2ee0cf33782f46911e0888d4c394c600060013360405161040a93929190611a68565b60405180910390a15050565b6002818154811061042657600080fd5b90600052602060002090600602016000915090508060000160009054906101000a900473ffffffffffffffffffffffffffffffffffffffff169080600101805461046f906115eb565b80601f016020809104026020016040519081016040528092919081815260200182805461049b906115eb565b80156104e85780601f106104bd576101008083540402835291602001916104e8565b820191906000526020600020905b8154815290600101906020018083116104cb57829003601f168201915b5050505050908060020180546104fd906115eb565b80601f0160208091040260200160405190810160405280929190818152602001828054610529906115eb565b80156105765780601f1061054b57610100808354040283529160200191610576565b820191906000526020600020905b81548152906001019060200180831161055957829003601f168201915b50505050509080600301805461058b906115eb565b80601f01602080910402602001604051908101604052809291908181526020018280546105b7906115eb565b80156106045780601f106105d957610100808354040283529160200191610604565b820191906000526020600020905b8154815290600101906020018083116105e757829003601f168201915b5050505050908060040154908060050160009054906101000a900460ff16905086565b60006002828154811061063d5761063c6118fd565b5b9060005260206000209060060201905060006004811115610661576106606111c4565b5b8160050160009054906101000a900460ff166004811115610685576106846111c4565b5b146106c5576040517f08c379a00000000000000000000000000000000000000000000000000000000081526004016106bc90611b32565b60405180910390fd5b60018160050160006101000a81548160ff021916908360048111156106ed576106ec6111c4565b5b02179055507fbc3f77ce3a281e615c85054a5814e59703e2ee0cf33782f46911e0888d4c394c600060013360405161072793929190611b9e565b60405180910390a15050565b60606000805b6002805490508110156107bf578484604051610756929190611c26565b604051809103902060028281548110610772576107716118fd565b5b90600052602060002090600602016001016040516107909190611cd7565b6040518091039020036107ac5781806107a890611cee565b9250505b80806107b790611cee565b915050610739565b5060008167ffffffffffffffff8111156107dc576107db610e8c565b5b60405190808252806020026020018201604052801561081557816020015b610802610dff565b8152602001906001900390816107fa5790505b5090506000805b600280549050811015610b3e578686604051610839929190611c26565b604051809103902060028281548110610855576108546118fd565b5b90600052602060002090600602016001016040516108739190611cd7565b604051809103902003610b2b5760028181548110610894576108936118fd565b5b90600052602060002090600602016040518060c00160405290816000820160009054906101000a900473ffffffffffffffffffffffffffffffffffffffff1673ffffffffffffffffffffffffffffffffffffffff1673ffffffffffffffffffffffffffffffffffffffff168152602001600182018054610913906115eb565b80601f016020809104026020016040519081016040528092919081815260200182805461093f906115eb565b801561098c5780601f106109615761010080835404028352916020019161098c565b820191906000526020600020905b81548152906001019060200180831161096f57829003601f168201915b505050505081526020016002820180546109a5906115eb565b80601f01602080910402602001604051908101604052809291908181526020018280546109d1906115eb565b8015610a1e5780601f106109f357610100808354040283529160200191610a1e565b820191906000526020600020905b815481529060010190602001808311610a0157829003601f168201915b50505050508152602001600382018054610a37906115eb565b80601f0160208091040260200160405190810160405280929190818152602001828054610a63906115eb565b8015610ab05780601f10610a8557610100808354040283529160200191610ab0565b820191906000526020600020905b815481529060010190602001808311610a9357829003601f168201915b50505050508152602001600482015481526020016005820160009054906101000a900460ff166004811115610ae857610ae76111c4565b5b6004811115610afa57610af96111c4565b5b81525050838381518110610b1157610b106118fd565b5b60200260200101819052508180610b2790611cee565b9250505b8080610b3690611cee565b91505061081c565b5081935050505092915050565b600060028381548110610b6157610b606118fd565b5b906000526020600020906006020190508060000160009054906101000a900473ffffffffffffffffffffffffffffffffffffffff1673ffffffffffffffffffffffffffffffffffffffff163373ffffffffffffffffffffffffffffffffffffffff1614610c03576040517f08c379a0000000000000000000000000000000000000000000000000000000008152600401610bfa90611da8565b60405180910390fd5b60036004811115610c1757610c166111c4565b5b8160050160009054906101000a900460ff166004811115610c3b57610c3a6111c4565b5b14610c7b576040517f08c379a0000000000000000000000000000000000000000000000000000000008152600401610c7290611e3a565b60405180910390fd5b60048160050160006101000a81548160ff02191690836004811115610ca357610ca26111c4565b5b02179055508181600401819055507fbc3f77ce3a281e615c85054a5814e59703e2ee0cf33782f46911e0888d4c394c6000600133604051610ce693929190611a68565b60405180910390a1505050565b600060028281548110610d0957610d086118fd565b5b9060005260206000209060060201905060006004811115610d2d57610d2c6111c4565b5b8160050160009054906101000a900460ff166004811115610d5157610d506111c4565b5b14610d91576040517f08c379a0000000000000000000000000000000000000000000000000000000008152600401610d8890611ecc565b60405180910390fd5b60028160050160006101000a81548160ff02191690836004811115610db957610db86111c4565b5b02179055507fbc3f77ce3a281e615c85054a5814e59703e2ee0cf33782f46911e0888d4c394c6000600133604051610df393929190611f38565b60405180910390a15050565b6040518060c00160405280600073ffffffffffffffffffffffffffffffffffffffff1681526020016060815260200160608152602001606081526020016000815260200160006004811115610e5757610e566111c4565b5b81525090565b6000604051905090565b600080fd5b600080fd5b600080fd5b600080fd5b6000601f19601f8301169050919050565b7f4e487b7100000000000000000000000000000000000000000000000000000000600052604160045260246000fd5b610ec482610e7b565b810181811067ffffffffffffffff82111715610ee357610ee2610e8c565b5b80604052505050565b6000610ef6610e5d565b9050610f028282610ebb565b919050565b600067ffffffffffffffff821115610f2257610f21610e8c565b5b610f2b82610e7b565b9050602081019050919050565b82818337600083830152505050565b6000610f5a610f5584610f07565b610eec565b905082815260208101848484011115610f7657610f75610e76565b5b610f81848285610f38565b509392505050565b600082601f830112610f9e57610f9d610e71565b5b8135610fae848260208601610f47565b91505092915050565b600080600060608486031215610fd057610fcf610e67565b5b600084013567ffffffffffffffff811115610fee57610fed610e6c565b5b610ffa86828701610f89565b935050602084013567ffffffffffffffff81111561101b5761101a610e6c565b5b61102786828701610f89565b925050604084013567ffffffffffffffff81111561104857611047610e6c565b5b61105486828701610f89565b9150509250925092565b6000819050919050565b6110718161105e565b82525050565b600060208201905061108c6000830184611068565b92915050565b61109b8161105e565b81146110a657600080fd5b50565b6000813590506110b881611092565b92915050565b6000602082840312156110d4576110d3610e67565b5b60006110e2848285016110a9565b91505092915050565b600073ffffffffffffffffffffffffffffffffffffffff82169050919050565b6000611116826110eb565b9050919050565b6111268161110b565b82525050565b600081519050919050565b600082825260208201905092915050565b60005b8381101561116657808201518184015260208101905061114b565b60008484015250505050565b600061117d8261112c565b6111878185611137565b9350611197818560208601611148565b6111a081610e7b565b840191505092915050565b6000819050919050565b6111be816111ab565b82525050565b7f4e487b7100000000000000000000000000000000000000000000000000000000600052602160045260246000fd5b60058110611204576112036111c4565b5b50565b6000819050611215826111f3565b919050565b600061122582611207565b9050919050565b6112358161121a565b82525050565b600060c082019050611250600083018961111d565b81810360208301526112628188611172565b905081810360408301526112768187611172565b9050818103606083015261128a8186611172565b905061129960808301856111b5565b6112a660a083018461122c565b979650505050505050565b600080fd5b600080fd5b60008083601f8401126112d1576112d0610e71565b5b8235905067ffffffffffffffff8111156112ee576112ed6112b1565b5b60208301915083600182028301111561130a576113096112b6565b5b9250929050565b6000806020838503121561132857611327610e67565b5b600083013567ffffffffffffffff81111561134657611345610e6c565b5b611352858286016112bb565b92509250509250929050565b600081519050919050565b600082825260208201905092915050565b6000819050602082019050919050565b6113938161110b565b82525050565b600082825260208201905092915050565b60006113b58261112c565b6113bf8185611399565b93506113cf818560208601611148565b6113d881610e7b565b840191505092915050565b6113ec816111ab565b82525050565b6113fb8161121a565b82525050565b600060c083016000830151611419600086018261138a565b506020830151848203602086015261143182826113aa565b9150506040830151848203604086015261144b82826113aa565b9150506060830151848203606086015261146582826113aa565b915050608083015161147a60808601826113e3565b5060a083015161148d60a08601826113f2565b508091505092915050565b60006114a48383611401565b905092915050565b6000602082019050919050565b60006114c48261135e565b6114ce8185611369565b9350836020820285016114e08561137a565b8060005b8581101561151c57848403895281516114fd8582611498565b9450611508836114ac565b925060208a019950506001810190506114e4565b50829750879550505050505092915050565b6000602082019050818103600083015261154881846114b9565b905092915050565b611559816111ab565b811461156457600080fd5b50565b60008135905061157681611550565b92915050565b6000806040838503121561159357611592610e67565b5b60006115a1858286016110a9565b92505060206115b285828601611567565b9150509250929050565b7f4e487b7100000000000000000000000000000000000000000000000000000000600052602260045260246000fd5b6000600282049050600182168061160357607f821691505b602082108103611616576116156115bc565b5b50919050565b60008190508160005260206000209050919050565b60006020601f8301049050919050565b600082821b905092915050565b60006008830261167e7fffffffffffffffffffffffffffffffffffffffffffffffffffffffffffffffff82611641565b6116888683611641565b95508019841693508086168417925050509392505050565b6000819050919050565b60006116c56116c06116bb8461105e565b6116a0565b61105e565b9050919050565b6000819050919050565b6116df836116aa565b6116f36116eb826116cc565b84845461164e565b825550505050565b600090565b6117086116fb565b6117138184846116d6565b505050565b5b818110156117375761172c600082611700565b600181019050611719565b5050565b601f82111561177c5761174d8161161c565b61175684611631565b81016020851015611765578190505b61177961177185611631565b830182611718565b50505b505050565b600082821c905092915050565b600061179f60001984600802611781565b1980831691505092915050565b60006117b8838361178e565b9150826002028217905092915050565b6117d18261112c565b67ffffffffffffffff8111156117ea576117e9610e8c565b5b6117f482546115eb565b6117ff82828561173b565b600060209050601f8311600181146118325760008415611820578287015190505b61182a85826117ac565b865550611892565b601f1984166118408661161c565b60005b8281101561186857848901518255600182019150602085019450602081019050611843565b868310156118855784890151611881601f89168261178e565b8355505b6001600288020188555050505b505050505050565b7f4e487b7100000000000000000000000000000000000000000000000000000000600052601160045260246000fd5b60006118d48261105e565b91506118df8361105e565b92508282039050818111156118f7576118f661189a565b5b92915050565b7f4e487b7100000000000000000000000000000000000000000000000000000000600052603260045260246000fd5b7f5469636b6574206d75737420626520696e20446f696e67207374617475730000600082015250565b6000611962601e83611137565b915061196d8261192c565b602082019050919050565b6000602082019050818103600083015261199181611955565b9050919050565b600081546119a5816115eb565b6119af8186611137565b945060018216600081146119ca57600181146119e057611a13565b60ff198316865281151560200286019350611a13565b6119e98561161c565b60005b83811015611a0b578154818901526001820191506020810190506119ec565b808801955050505b50505092915050565b7f5469636b657446696e6973686564000000000000000000000000000000000000600082015250565b6000611a52600e83611137565b9150611a5d82611a1c565b602082019050919050565b60006080820190508181036000830152611a828186611998565b90508181036020830152611a968185611998565b90508181036040830152611aa981611a45565b9050611ab8606083018461111d565b949350505050565b7f5469636b6574206d75737420626520696e2050726f706f73616c20737461747560008201527f7300000000000000000000000000000000000000000000000000000000000000602082015250565b6000611b1c602183611137565b9150611b2782611ac0565b604082019050919050565b60006020820190508181036000830152611b4b81611b0f565b9050919050565b7f5469636b65745374617274656400000000000000000000000000000000000000600082015250565b6000611b88600d83611137565b9150611b9382611b52565b602082019050919050565b60006080820190508181036000830152611bb88186611998565b90508181036020830152611bcc8185611998565b90508181036040830152611bdf81611b7b565b9050611bee606083018461111d565b949350505050565b600081905092915050565b6000611c0d8385611bf6565b9350611c1a838584610f38565b82840190509392505050565b6000611c33828486611c01565b91508190509392505050565b60008190508160005260206000209050919050565b60008154611c61816115eb565b611c6b8186611bf6565b94506001821660008114611c865760018114611c9b57611cce565b60ff1983168652811515820286019350611cce565b611ca485611c3f565b60005b83811015611cc657815481890152600182019150602081019050611ca7565b838801955050505b50505092915050565b6000611ce38284611c54565b915081905092915050565b6000611cf98261105e565b91507fffffffffffffffffffffffffffffffffffffffffffffffffffffffffffffffff8203611d2b57611d2a61189a565b5b600182019050919050565b7f5469636b6574206d7573742062652066696e69736820627920637573746f6d6560008201527f7200000000000000000000000000000000000000000000000000000000000000602082015250565b6000611d92602183611137565b9150611d9d82611d36565b604082019050919050565b60006020820190508181036000830152611dc181611d85565b9050919050565b7f5469636b6574206d75737420626520696e20646f6e652062792074686520657860008201527f7065727400000000000000000000000000000000000000000000000000000000602082015250565b6000611e24602483611137565b9150611e2f82611dc8565b604082019050919050565b60006020820190508181036000830152611e5381611e17565b9050919050565b7f596f752063616e27742063616e63656c20746865207469636b6574206966207360008201527f7461727465640000000000000000000000000000000000000000000000000000602082015250565b6000611eb6602683611137565b9150611ec182611e5a565b604082019050919050565b60006020820190508181036000830152611ee581611ea9565b9050919050565b7f5469636b65744163636570746564000000000000000000000000000000000000600082015250565b6000611f22600e83611137565b9150611f2d82611eec565b602082019050919050565b60006080820190508181036000830152611f528186611998565b90508181036020830152611f668185611998565b90508181036040830152611f7981611f15565b9050611f88606083018461111d565b94935050505056fea264697066735822122091c535424a4328e5fd4c7e38237a964d0cfd48538f179e6ceab921f141884e8e64736f6c63430008130033",
  "immutableReferences": {},
  "source": "// SPDX-License-Identifier: MIT\r\npragma solidity 0.8.19;\r\n\r\ncontract TicketMarketplace {\r\n    enum TicketStatus {\r\n        Proposal,\r\n        Doing,\r\n        Cancel,\r\n        ExpertDone,\r\n        CustDone\r\n    }\r\n\r\n    struct Ticket {\r\n        address customer;\r\n        string worker;\r\n        string description;\r\n        string tag;\r\n        int rate;\r\n        TicketStatus status;\r\n    }\r\n\r\n    string internal ApplicationName = \"TicketMarketplace\";\r\n    string internal WorkflowName = \"TicketMarketplace\";\r\n\r\n    event ContractCreated(\r\n        string applicationName,\r\n        string workflowName,\r\n        address originatingAddress\r\n    );\r\n    event ContractUpdated(\r\n        string applicationName,\r\n        string workflowName,\r\n        string action,\r\n        address originatingAddress\r\n    );\r\n\r\n    Ticket[] public tickets;\r\n\r\n    function createTicket(\r\n        string memory tags,\r\n        string memory _description,\r\n        string memory target\r\n    ) public returns (uint256) {\r\n        tickets.push(\r\n            Ticket({\r\n                customer: msg.sender,\r\n                worker: target,\r\n                description: _description,\r\n                status: TicketStatus.Proposal,\r\n                rate: -1,\r\n                tag: tags\r\n            })\r\n        );\r\n        return tickets.length - 1;\r\n    }\r\n\r\n    function cancelTicket(uint256 ticketIndex) public {\r\n        Ticket storage ticket = tickets[ticketIndex];\r\n        require(\r\n            ticket.status == TicketStatus.Proposal,\r\n            \"You can't cancel the ticket if started\"\r\n        );\r\n        ticket.status = TicketStatus.Cancel;\r\n        emit ContractUpdated(\r\n            ApplicationName,\r\n            WorkflowName,\r\n            \"TicketAccepted\",\r\n            msg.sender\r\n        );\r\n    }\r\n\r\n    function startTicket(uint256 ticketIndex) public {\r\n        Ticket storage ticket = tickets[ticketIndex];\r\n        // require(\r\n        //     abi.encodePacked(msg.sender) == keccak256(bytes(ticket.worker)),\r\n        //     \"Sender can't start they own ticket\"\r\n        // );\r\n        require(\r\n            ticket.status == TicketStatus.Proposal,\r\n            \"Ticket must be in Proposal status\"\r\n        );\r\n        ticket.status = TicketStatus.Doing;\r\n        emit ContractUpdated(\r\n            ApplicationName,\r\n            WorkflowName,\r\n            \"TicketStarted\",\r\n            msg.sender\r\n        );\r\n    }\r\n\r\n    function expertFinishTicket(uint256 ticketIndex) public {\r\n        Ticket storage ticket = tickets[ticketIndex];\r\n        // require(\r\n        //     msg.sender == keccak256(ticket.worker),\r\n        //     \"Only the assigned worker can complete the ticket\"\r\n        // );\r\n        require(\r\n            ticket.status == TicketStatus.Doing,\r\n            \"Ticket must be in Doing status\"\r\n        );\r\n        ticket.status = TicketStatus.ExpertDone;\r\n        emit ContractUpdated(\r\n            ApplicationName,\r\n            WorkflowName,\r\n            \"TicketFinished\",\r\n            msg.sender\r\n        );\r\n    }\r\n\r\n\r\n    function customerDoneTicket(uint256 ticketIndex, int rate) public {\r\n        Ticket storage ticket = tickets[ticketIndex];\r\n        require(\r\n            msg.sender == ticket.customer,\r\n            \"Ticket must be finish by customer\"\r\n        );\r\n        require(\r\n            ticket.status == TicketStatus.ExpertDone,\r\n            \"Ticket must be in done by the expert\"\r\n        );\r\n        ticket.status = TicketStatus.CustDone;\r\n        ticket.rate = rate;\r\n        emit ContractUpdated(\r\n            ApplicationName,\r\n            WorkflowName,\r\n            \"TicketFinished\",\r\n            msg.sender\r\n        );\r\n    }\r\n\r\n    function getTickets(\r\n        string calldata addressString\r\n    ) public view returns (Ticket[] memory) {\r\n\r\n    \r\n        uint256 count = 0;\r\n        for (uint256 i = 0; i < tickets.length; i++) {\r\n            if (keccak256(bytes(tickets[i].worker)) == keccak256(bytes(addressString))) {\r\n                count++;\r\n            }\r\n        }\r\n\r\n        Ticket[] memory filteredItems = new Ticket[](count);\r\n        uint256 index = 0;\r\n        for (uint256 i = 0; i < tickets.length; i++) {\r\n            if (keccak256(bytes(tickets[i].worker)) == keccak256(bytes(addressString))) {\r\n                filteredItems[index] = tickets[i];\r\n                index++;\r\n            }\r\n        }\r\n\r\n        return filteredItems;\r\n    }\r\n}\r\n",
  "sourcePath": "D:\\DuancuaThien\\blc-fe\\contracts\\TicketMarketplace.sol",
  "compiler": {
    "name": "solc",
    "version": "0.8.19+commit.7dd6d404.Emscripten.clang"
  },
  "schemaVersion": "3.4.14",
  "updatedAt": "2023-06-20T10:53:56.565Z",
  "networkType": "ethereum",
  "devdoc": {
    "kind": "dev",
    "methods": {},
    "version": 1
  },
  "userdoc": {
    "kind": "user",
    "methods": {},
    "version": 1
  }
}